{
  "_format": "hh-sol-artifact-1",
  "contractName": "DisputeResolution",
  "sourceName": "contracts/DisputeResolution.sol",
  "abi": [
    {
      "inputs": [
        {
          "internalType": "address",
          "name": "_progressValidation",
          "type": "address"
        },
        {
          "internalType": "uint256",
          "name": "_minSupervisorVotes",
          "type": "uint256"
        },
        {
          "internalType": "uint256",
          "name": "_resolutionTimeLimit",
          "type": "uint256"
        }
      ],
      "stateMutability": "nonpayable",
      "type": "constructor"
    },
    {
      "anonymous": false,
      "inputs": [
        {
          "indexed": true,
          "internalType": "uint256",
          "name": "tenderId",
          "type": "uint256"
        },
        {
          "indexed": false,
          "internalType": "uint256",
          "name": "progressId",
          "type": "uint256"
        }
      ],
      "name": "DisputeEscalated",
      "type": "event"
    },
    {
      "anonymous": false,
      "inputs": [
        {
          "indexed": true,
          "internalType": "uint256",
          "name": "tenderId",
          "type": "uint256"
        },
        {
          "indexed": false,
          "internalType": "uint256",
          "name": "progressId",
          "type": "uint256"
        },
        {
          "indexed": false,
          "internalType": "address",
          "name": "initiator",
          "type": "address"
        }
      ],
      "name": "DisputeRaised",
      "type": "event"
    },
    {
      "anonymous": false,
      "inputs": [
        {
          "indexed": true,
          "internalType": "uint256",
          "name": "tenderId",
          "type": "uint256"
        },
        {
          "indexed": false,
          "internalType": "uint256",
          "name": "progressId",
          "type": "uint256"
        },
        {
          "indexed": false,
          "internalType": "enum DisputeResolution.DisputeStatus",
          "name": "status",
          "type": "uint8"
        }
      ],
      "name": "DisputeResolved",
      "type": "event"
    },
    {
      "anonymous": false,
      "inputs": [
        {
          "indexed": true,
          "internalType": "uint256",
          "name": "tenderId",
          "type": "uint256"
        },
        {
          "indexed": false,
          "internalType": "uint256",
          "name": "progressId",
          "type": "uint256"
        },
        {
          "indexed": false,
          "internalType": "address",
          "name": "supervisor",
          "type": "address"
        }
      ],
      "name": "SupervisorAssigned",
      "type": "event"
    },
    {
      "anonymous": false,
      "inputs": [
        {
          "indexed": true,
          "internalType": "uint256",
          "name": "tenderId",
          "type": "uint256"
        },
        {
          "indexed": false,
          "internalType": "uint256",
          "name": "progressId",
          "type": "uint256"
        },
        {
          "indexed": false,
          "internalType": "address",
          "name": "supervisor",
          "type": "address"
        }
      ],
      "name": "SupervisorVoted",
      "type": "event"
    },
    {
      "inputs": [
        {
          "internalType": "address",
          "name": "_supervisor",
          "type": "address"
        },
        {
          "internalType": "string",
          "name": "_department",
          "type": "string"
        }
      ],
      "name": "addSupervisor",
      "outputs": [],
      "stateMutability": "nonpayable",
      "type": "function"
    },
    {
      "inputs": [
        {
          "internalType": "uint256",
          "name": "_tenderId",
          "type": "uint256"
        },
        {
          "internalType": "uint256",
          "name": "_progressId",
          "type": "uint256"
        },
        {
          "internalType": "address",
          "name": "_supervisor",
          "type": "address"
        }
      ],
      "name": "assignSupervisor",
      "outputs": [],
      "stateMutability": "nonpayable",
      "type": "function"
    },
    {
      "inputs": [
        {
          "internalType": "uint256",
          "name": "",
          "type": "uint256"
        }
      ],
      "name": "disputeCounter",
      "outputs": [
        {
          "internalType": "uint256",
          "name": "",
          "type": "uint256"
        }
      ],
      "stateMutability": "view",
      "type": "function"
    },
    {
      "inputs": [
        {
          "internalType": "uint256",
          "name": "",
          "type": "uint256"
        },
        {
          "internalType": "uint256",
          "name": "",
          "type": "uint256"
        }
      ],
      "name": "disputes",
      "outputs": [
        {
          "internalType": "uint256",
          "name": "tenderId",
          "type": "uint256"
        },
        {
          "internalType": "uint256",
          "name": "progressId",
          "type": "uint256"
        },
        {
          "internalType": "address",
          "name": "initiator",
          "type": "address"
        },
        {
          "internalType": "string",
          "name": "reason",
          "type": "string"
        },
        {
          "internalType": "string",
          "name": "evidenceHash",
          "type": "string"
        },
        {
          "internalType": "enum DisputeResolution.DisputeStatus",
          "name": "status",
          "type": "uint8"
        },
        {
          "internalType": "uint256",
          "name": "timestamp",
          "type": "uint256"
        },
        {
          "internalType": "uint256",
          "name": "resolutionTime",
          "type": "uint256"
        },
        {
          "internalType": "address",
          "name": "resolver",
          "type": "address"
        },
        {
          "internalType": "string",
          "name": "resolution",
          "type": "string"
        },
        {
          "internalType": "uint256",
          "name": "supervisorVoteCount",
          "type": "uint256"
        },
        {
          "internalType": "bool",
          "name": "isClosed",
          "type": "bool"
        }
      ],
      "stateMutability": "view",
      "type": "function"
    },
    {
      "inputs": [],
      "name": "getActiveSupervisors",
      "outputs": [
        {
          "internalType": "address[]",
          "name": "",
          "type": "address[]"
        }
      ],
      "stateMutability": "view",
      "type": "function"
    },
    {
      "inputs": [
        {
          "internalType": "uint256",
          "name": "_tenderId",
          "type": "uint256"
        },
        {
          "internalType": "uint256",
          "name": "_progressId",
          "type": "uint256"
        }
      ],
      "name": "getDisputeDetails",
      "outputs": [
        {
          "internalType": "address",
          "name": "initiator",
          "type": "address"
        },
        {
          "internalType": "string",
          "name": "reason",
          "type": "string"
        },
        {
          "internalType": "enum DisputeResolution.DisputeStatus",
          "name": "status",
          "type": "uint8"
        },
        {
          "internalType": "uint256",
          "name": "timestamp",
          "type": "uint256"
        },
        {
          "internalType": "uint256",
          "name": "resolutionTime",
          "type": "uint256"
        },
        {
          "internalType": "string",
          "name": "resolution",
          "type": "string"
        },
        {
          "internalType": "uint256",
          "name": "supervisorVoteCount",
          "type": "uint256"
        },
        {
          "internalType": "bool",
          "name": "isClosed",
          "type": "bool"
        }
      ],
      "stateMutability": "view",
      "type": "function"
    },
    {
      "inputs": [],
      "name": "minSupervisorVotes",
      "outputs": [
        {
          "internalType": "uint256",
          "name": "",
          "type": "uint256"
        }
      ],
      "stateMutability": "view",
      "type": "function"
    },
    {
      "inputs": [],
      "name": "owner",
      "outputs": [
        {
          "internalType": "address",
          "name": "",
          "type": "address"
        }
      ],
      "stateMutability": "view",
      "type": "function"
    },
    {
      "inputs": [],
      "name": "progressValidation",
      "outputs": [
        {
          "internalType": "contract IProgressValidation",
          "name": "",
          "type": "address"
        }
      ],
      "stateMutability": "view",
      "type": "function"
    },
    {
      "inputs": [
        {
          "internalType": "uint256",
          "name": "_tenderId",
          "type": "uint256"
        },
        {
          "internalType": "uint256",
          "name": "_progressId",
          "type": "uint256"
        },
        {
          "internalType": "string",
          "name": "_reason",
          "type": "string"
        },
        {
          "internalType": "string",
          "name": "_evidenceHash",
          "type": "string"
        }
      ],
      "name": "raiseDispute",
      "outputs": [],
      "stateMutability": "nonpayable",
      "type": "function"
    },
    {
      "inputs": [
        {
          "internalType": "address",
          "name": "_supervisor",
          "type": "address"
        }
      ],
      "name": "removeSupervisor",
      "outputs": [],
      "stateMutability": "nonpayable",
      "type": "function"
    },
    {
      "inputs": [],
      "name": "resolutionTimeLimit",
      "outputs": [
        {
          "internalType": "uint256",
          "name": "",
          "type": "uint256"
        }
      ],
      "stateMutability": "view",
      "type": "function"
    },
    {
      "inputs": [
        {
          "internalType": "address",
          "name": "",
          "type": "address"
        }
      ],
      "name": "supervisors",
      "outputs": [
        {
          "internalType": "bool",
          "name": "isActive",
          "type": "bool"
        },
        {
          "internalType": "uint256",
          "name": "resolutionCount",
          "type": "uint256"
        },
        {
          "internalType": "string",
          "name": "department",
          "type": "string"
        }
      ],
      "stateMutability": "view",
      "type": "function"
    },
    {
      "inputs": [
        {
          "internalType": "uint256",
          "name": "_tenderId",
          "type": "uint256"
        },
        {
          "internalType": "uint256",
          "name": "_progressId",
          "type": "uint256"
        },
        {
          "internalType": "bool",
          "name": "_approved",
          "type": "bool"
        },
        {
          "internalType": "string",
          "name": "_comments",
          "type": "string"
        }
      ],
      "name": "voteSupervisor",
      "outputs": [],
      "stateMutability": "nonpayable",
      "type": "function"
    }
  ],
  "bytecode": "0x60803461008d57601f61156c38819003918201601f19168301916001600160401b038311848410176100925780849260609460405283398101031261008d5780516001600160a01b038116919082900361008d57604060208201519101519160018060a01b03193381600354161760035560045416176004556005556006556040516114c390816100a98239f35b600080fd5b634e487b7160e01b600052604160045260246000fdfe608080604052600436101561001357600080fd5b60003560e01c9081631ce4fa4c146110b55750806325e4365214610faa57806328a06e7d14610b855780632a10642514610b67578063347d930114610b00578063601ec412146108ee5780636b5199c41461046d5780637128defb146103cd578063893c12dd146102645780638da5cb5b1461023b578063b4dfa6461461020f578063b5e0892114610148578063e548e3e7146100dc5763f7bf2971146100b957600080fd5b346100d75760003660031901126100d7576020600654604051908152f35b600080fd5b346100d75760203660031901126100d7576001600160a01b036100fd611294565b166000526001602052604060002060ff81541661014461012460026001850154940161114b565b6040519384931515845260208401526060604084015260608301906111f0565b0390f35b346100d757610156366110d9565b906000526000602052604060002090600052602052604060002060018060a01b0360028201541660ff6005830154166006830154906101fe600785015491600b8601549360ff600c88015416936101bb60096101b460038b0161114b565b990161114b565b916101e76101dc6040519a8b9a610100908c528060208d01528b01906111f0565b9460408a0190611230565b6060880152608087015285820360a08701526111f0565b9160c0840152151560e08301520390f35b346100d75760203660031901126100d75760043560005260026020526020604060002054604051908152f35b346100d75760003660031901126100d7576003546040516001600160a01b039091168152602090f35b346100d75760603660031901126100d7576004356024356044356001600160a01b03808216908183036100d7576102a090600354163314611437565b600052600160205260ff60406000205416156103935782600052600060205260406000208260005260205260056040600020019182549260ff8416600481101561037d576103385760ff19909316600117909255604080519283526001600160a01b0390911660208301527f49e79e85ab1faca5c04a66ef90e6fa0a1846db9e325dff0913c3960a99b9a9819190819081015b0390a2005b60405162461bcd60e51b815260206004820152601c60248201527f44697370757465206e6f7420696e2070656e64696e67207374617465000000006044820152606490fd5b634e487b7160e01b600052602160045260246000fd5b60405162461bcd60e51b815260206004820152601260248201527124b73b30b634b21039bab832b93b34b9b7b960711b6044820152606490fd5b346100d75760203660031901126100d7576103e6611294565b6003546001600160a01b0391906104009083163314611437565b1680600052600160205260ff6040600020541615610430576000908152600160205260409020805460ff19169055005b60405162461bcd60e51b815260206004820152601560248201527453757065727669736f72206e6f742061637469766560581b6044820152606490fd5b346100d75760803660031901126100d75760443580151581036100d75760643567ffffffffffffffff81116100d7576104aa90369060040161123d565b9033600052600160205260ff60406000205416156108925760043560005260006020526040600020602435600052602052604060002060ff600582015416600481101561037d5760010361084d57600a8101336000528060205260ff6040600020541661081857600b92610535913360005260205260406000209060ff801983541691151516179055565b0161054081546112aa565b90819055604080516024358152336020820152600435917e8ea42918ea481547f23d80f41dad473bc090602a954aa3c1773a54c6f9d07f91a2600554111561058457005b6004356000526000602052604060002060243560005260205260406000209060006105ad6112fb565b60005b8151811015610601576001600160a01b036105cb82846112d1565b5116600052600a850160205260ff604060002054166105ed575b6001016105b0565b916105f96001916112aa565b9290506105e5565b50508060011b908082046002149015171561080257600b83015410156107be5760058201805460ff191660021790555b8051600983019167ffffffffffffffff82116107a85761065183546110ef565b601f8111610760575b50602090601f83116001146106f25791806005949260ff96946000926106e7575b50508160011b916000199060031b1c19161790555b426007820155600c8101600184198254161790550154166106bd6040519160243583526020830190611230565b7f47f401adb157b05ca2460e795000b6c7ed325678dca7814dc22bbc26f2e2c00e604060043592a2005b01519050868061067b565b90601f198316918460005260206000209260005b818110610748575092600192859260ff9896600598961061072f575b505050811b019055610690565b015160001960f88460031b161c19169055868080610722565b92936020600181928786015181550195019301610706565b836000526020600020601f840160051c8101916020851061079e575b601f0160051c01905b818110610792575061065a565b60008155600101610785565b909150819061077c565b634e487b7160e01b600052604160045260246000fd5b60058201600360ff1982541617905560405160243581527f366e7dd2cab048eaff199cb82b06661733696643e03b462e0b2635552275ed14602060043592a2610631565b634e487b7160e01b600052601160045260246000fd5b60405162461bcd60e51b815260206004820152600d60248201526c105b1c9958591e481d9bdd1959609a1b6044820152606490fd5b60405162461bcd60e51b815260206004820152601860248201527f44697370757465206e6f7420756e6465722072657669657700000000000000006044820152606490fd5b60405162461bcd60e51b815260206004820152602e60248201527f4f6e6c79206163746976652073757065727669736f72732063616e2063616c6c60448201526d103a3434b990333ab731ba34b7b760911b6064820152608490fd5b346100d75760403660031901126100d757610907611294565b67ffffffffffffffff6024358181116100d75761092890369060040161123d565b60035490926001600160a01b03916109439083163314611437565b16908160005260019160209083825260ff60406000205416610abb576040516060810191818310858411176107a8576002926040528582528382019060008252604083019788526000528584526109ae604060002092511515839060ff801983541691151516179055565b518582015501935180519283116107a8576109c985546110ef565b601f8111610a72575b5081601f8411600114610a0f5750928293918392600094610a04575b50501b916000199060031b1c1916179055600080f35b0151925085806109ee565b919083601f1981168760005284600020946000905b88838310610a585750505010610a3f575b505050811b019055005b015160001960f88460031b161c19169055838080610a35565b858701518855909601959485019487935090810190610a24565b8560005282600020601f850160051c810191848610610ab1575b601f0160051c019085905b828110610aa55750506109d2565b60008155018590610a97565b9091508190610a8c565b60405162461bcd60e51b815260048101839052601960248201527f53757065727669736f7220616c726561647920657869737473000000000000006044820152606490fd5b346100d75760003660031901126100d757610b196112fb565b6040518091602080830160208452825180915260206040850193019160005b828110610b4757505050500390f35b83516001600160a01b031685528695509381019392810192600101610b38565b346100d75760003660031901126100d7576020600554604051908152f35b346100d75760803660031901126100d75760443567ffffffffffffffff81116100d757610bb690369060040161123d565b60643567ffffffffffffffff81116100d757610bd690369060040161123d565b815115610f6c57805115610f275760043560005260006020526040600020602435600052602052604060002060ff600c82015416610ed657600435815560243560018201556002810180546001600160a01b03191633179055825167ffffffffffffffff81116107a857610c4d60038301546110ef565b601f8111610e8f575b506020601f8211600114610e235781929394600092610e18575b50508160011b916000199060031b1c19161760038201555b60048101825167ffffffffffffffff81116107a857610ca782546110ef565b601f8111610dd0575b506020601f8211600114610d6a5781929394600092610d5f575b50508160011b916000199060031b1c19161790555b600c6005820160ff19908181541690554260068401556000600b840155818301541691015560043560005260026020526040600020610d1e81546112aa565b9055604080516024358152336020820152600435917f83201991c75b30e493678d0543bdbd02d6a194a5a0dda31490a5fe09e9f0a220919081908101610333565b015190508480610cca565b601f198216908360005260206000209160005b818110610db857509583600195969710610d9f575b505050811b019055610cdf565b015160001960f88460031b161c19169055848080610d92565b9192602060018192868b015181550194019201610d7d565b826000526020600020601f830160051c81019160208410610e0e575b601f0160051c01905b818110610e025750610cb0565b60008155600101610df5565b9091508190610dec565b015190508480610c70565b601f198216906003840160005260206000209160005b818110610e7757509583600195969710610e5e575b505050811b016003820155610c88565b015160001960f88460031b161c19169055848080610e4e565b9192602060018192868b015181550194019201610e39565b600383016000526020600020601f830160051c810160208410610ecf575b601f830160051c82018110610ec3575050610c56565b60008155600101610ead565b5080610ead565b60405162461bcd60e51b8152602060048201526024808201527f4469737075746520616c72656164792065786973747320616e6420697320636c6044820152631bdcd95960e21b6064820152608490fd5b60405162461bcd60e51b815260206004820152601d60248201527f45766964656e636520686173682063616e6e6f7420626520656d7074790000006044820152606490fd5b60405162461bcd60e51b8152602060048201526016602482015275526561736f6e2063616e6e6f7420626520656d70747960501b6044820152606490fd5b346100d757610fb8366110d9565b60009182526020828152604080842092845291905290208054600182015460028301546001600160a01b0390811693919290610ff66003840161114b565b906110036004850161114b565b600585015460ff16916006860154600787015491600888015416926009880161102b9061114b565b95600b89015498600c015460ff16976040519b8c9b610180928d5260208d015260408c01528060608c01528a01611061916111f0565b89810360808b0152611072916111f0565b9360a0890161108091611230565b60c088015260e08701526101008601528481036101208601526110a2916111f0565b9161014084015215156101608301520390f35b346100d75760003660031901126100d7576004546001600160a01b03168152602090f35b60409060031901126100d7576004359060243590565b90600182811c9216801561111f575b602083101461110957565b634e487b7160e01b600052602260045260246000fd5b91607f16916110fe565b90601f8019910116810190811067ffffffffffffffff8211176107a857604052565b9060405191826000825461115e816110ef565b908184526020946001916001811690816000146111ce575060011461118f575b50505061118d92500383611129565b565b600090815285812095935091905b8183106111b657505061118d935082010138808061117e565b8554888401850152948501948794509183019161119d565b9250505061118d94925060ff191682840152151560051b82010138808061117e565b919082519283825260005b84811061121c575050826000602080949584010152601f8019910116010190565b6020818301810151848301820152016111fb565b90600482101561037d5752565b81601f820112156100d75780359067ffffffffffffffff82116107a85760405192611272601f8401601f191660200185611129565b828452602083830101116100d757816000926020809301838601378301015290565b600435906001600160a01b03821682036100d757565b60001981146108025760010190565b67ffffffffffffffff81116107a85760051b60200190565b80518210156112e55760209160051b010190565b634e487b7160e01b600052603260045260246000fd5b600090604091604051610ca0810181811067ffffffffffffffff8211176114235760405260648152602090610c80366020830137825b815181101561137e576001600160a01b0361134c82846112d1565b51166000526001835260ff86600020541661136a575b600101611331565b926113766001916112aa565b939050611362565b50909161138a816112b9565b906113986040519283611129565b8082526113a7601f19916112b9565b0136602083013760009160005b815181101561141a576001600160a01b03806113d083856112d1565b51166000526001865260ff8860002054166113ef575b506001016113b4565b819461141391611401600194866112d1565b511661140d82876112d1565b526112aa565b93906113e6565b50909450505050565b634e487b7160e01b83526041600452602483fd5b1561143e57565b60405162461bcd60e51b815260206004820152602160248201527f4f6e6c79206f776e65722063616e2063616c6c20746869732066756e6374696f6044820152603760f91b6064820152608490fdfea2646970667358221220c3ee733af4858e264baf3bcaa185c058f9fb3ed72fad2a4ab3bd3a4f3b8ee9ea64736f6c63430008160033",
  "linkReferences": {},
  "deployedLinkReferences": {}
}