{
  "_format": "hh-sol-artifact-1",
  "contractName": "ProgressValidation",
  "sourceName": "contracts/ProgressValidation.sol",
  "abi": [
    {
      "inputs": [
        {
          "internalType": "address",
          "name": "_credentialVerification",
          "type": "address"
        },
        {
          "internalType": "uint256",
          "name": "_minValidations",
          "type": "uint256"
        },
        {
          "internalType": "uint256",
          "name": "_validatorCooldown",
          "type": "uint256"
        }
      ],
      "stateMutability": "nonpayable",
      "type": "constructor"
    },
    {
      "anonymous": false,
      "inputs": [
        {
          "indexed": true,
          "internalType": "uint256",
          "name": "tenderId",
          "type": "uint256"
        },
        {
          "indexed": false,
          "internalType": "uint256",
          "name": "progressId",
          "type": "uint256"
        },
        {
          "indexed": false,
          "internalType": "enum ProgressValidation.ProgressStatus",
          "name": "status",
          "type": "uint8"
        }
      ],
      "name": "ProgressStatusUpdated",
      "type": "event"
    },
    {
      "anonymous": false,
      "inputs": [
        {
          "indexed": true,
          "internalType": "uint256",
          "name": "tenderId",
          "type": "uint256"
        },
        {
          "indexed": false,
          "internalType": "uint256",
          "name": "progressId",
          "type": "uint256"
        },
        {
          "indexed": false,
          "internalType": "address",
          "name": "contractor",
          "type": "address"
        }
      ],
      "name": "ProgressSubmitted",
      "type": "event"
    },
    {
      "anonymous": false,
      "inputs": [
        {
          "indexed": true,
          "internalType": "uint256",
          "name": "tenderId",
          "type": "uint256"
        },
        {
          "indexed": false,
          "internalType": "uint256",
          "name": "progressId",
          "type": "uint256"
        },
        {
          "indexed": false,
          "internalType": "address",
          "name": "validator",
          "type": "address"
        },
        {
          "indexed": false,
          "internalType": "bool",
          "name": "approved",
          "type": "bool"
        }
      ],
      "name": "ProgressValidated",
      "type": "event"
    },
    {
      "anonymous": false,
      "inputs": [
        {
          "indexed": true,
          "internalType": "address",
          "name": "validator",
          "type": "address"
        }
      ],
      "name": "ValidatorAdded",
      "type": "event"
    },
    {
      "anonymous": false,
      "inputs": [
        {
          "indexed": true,
          "internalType": "uint256",
          "name": "tenderId",
          "type": "uint256"
        },
        {
          "indexed": false,
          "internalType": "uint256",
          "name": "progressId",
          "type": "uint256"
        },
        {
          "indexed": false,
          "internalType": "address",
          "name": "validator",
          "type": "address"
        }
      ],
      "name": "ValidatorAssigned",
      "type": "event"
    },
    {
      "anonymous": false,
      "inputs": [
        {
          "indexed": true,
          "internalType": "address",
          "name": "validator",
          "type": "address"
        }
      ],
      "name": "ValidatorRemoved",
      "type": "event"
    },
    {
      "inputs": [
        {
          "internalType": "address",
          "name": "_validator",
          "type": "address"
        }
      ],
      "name": "addValidator",
      "outputs": [],
      "stateMutability": "nonpayable",
      "type": "function"
    },
    {
      "inputs": [],
      "name": "credentialVerification",
      "outputs": [
        {
          "internalType": "contract ICredentialVerification",
          "name": "",
          "type": "address"
        }
      ],
      "stateMutability": "view",
      "type": "function"
    },
    {
      "inputs": [
        {
          "internalType": "uint256",
          "name": "_tenderId",
          "type": "uint256"
        },
        {
          "internalType": "uint256",
          "name": "_progressId",
          "type": "uint256"
        }
      ],
      "name": "getProgressDetails",
      "outputs": [
        {
          "internalType": "string",
          "name": "description",
          "type": "string"
        },
        {
          "internalType": "uint256",
          "name": "completionPercentage",
          "type": "uint256"
        },
        {
          "internalType": "uint256",
          "name": "timestamp",
          "type": "uint256"
        },
        {
          "internalType": "address",
          "name": "contractor",
          "type": "address"
        },
        {
          "internalType": "enum ProgressValidation.ProgressStatus",
          "name": "status",
          "type": "uint8"
        },
        {
          "internalType": "uint256",
          "name": "validationCount",
          "type": "uint256"
        },
        {
          "internalType": "address[]",
          "name": "validatorList",
          "type": "address[]"
        }
      ],
      "stateMutability": "view",
      "type": "function"
    },
    {
      "inputs": [
        {
          "internalType": "uint256",
          "name": "_tenderId",
          "type": "uint256"
        },
        {
          "internalType": "uint256",
          "name": "_progressId",
          "type": "uint256"
        }
      ],
      "name": "isProgressValidated",
      "outputs": [
        {
          "internalType": "bool",
          "name": "",
          "type": "bool"
        }
      ],
      "stateMutability": "view",
      "type": "function"
    },
    {
      "inputs": [],
      "name": "minValidationsRequired",
      "outputs": [
        {
          "internalType": "uint256",
          "name": "",
          "type": "uint256"
        }
      ],
      "stateMutability": "view",
      "type": "function"
    },
    {
      "inputs": [],
      "name": "owner",
      "outputs": [
        {
          "internalType": "address",
          "name": "",
          "type": "address"
        }
      ],
      "stateMutability": "view",
      "type": "function"
    },
    {
      "inputs": [
        {
          "internalType": "uint256",
          "name": "",
          "type": "uint256"
        }
      ],
      "name": "progressCounter",
      "outputs": [
        {
          "internalType": "uint256",
          "name": "",
          "type": "uint256"
        }
      ],
      "stateMutability": "view",
      "type": "function"
    },
    {
      "inputs": [
        {
          "internalType": "uint256",
          "name": "",
          "type": "uint256"
        },
        {
          "internalType": "uint256",
          "name": "",
          "type": "uint256"
        }
      ],
      "name": "progressReports",
      "outputs": [
        {
          "internalType": "uint256",
          "name": "tenderId",
          "type": "uint256"
        },
        {
          "internalType": "string",
          "name": "description",
          "type": "string"
        },
        {
          "internalType": "string",
          "name": "evidenceHash",
          "type": "string"
        },
        {
          "internalType": "uint256",
          "name": "completionPercentage",
          "type": "uint256"
        },
        {
          "internalType": "uint256",
          "name": "timestamp",
          "type": "uint256"
        },
        {
          "internalType": "address",
          "name": "contractor",
          "type": "address"
        },
        {
          "internalType": "enum ProgressValidation.ProgressStatus",
          "name": "status",
          "type": "uint8"
        },
        {
          "internalType": "uint256",
          "name": "validationCount",
          "type": "uint256"
        },
        {
          "internalType": "uint256",
          "name": "requiredValidations",
          "type": "uint256"
        }
      ],
      "stateMutability": "view",
      "type": "function"
    },
    {
      "inputs": [
        {
          "internalType": "address",
          "name": "_validator",
          "type": "address"
        }
      ],
      "name": "removeValidator",
      "outputs": [],
      "stateMutability": "nonpayable",
      "type": "function"
    },
    {
      "inputs": [
        {
          "internalType": "uint256",
          "name": "_tenderId",
          "type": "uint256"
        },
        {
          "internalType": "string",
          "name": "_description",
          "type": "string"
        },
        {
          "internalType": "string",
          "name": "_evidenceHash",
          "type": "string"
        },
        {
          "internalType": "uint256",
          "name": "_completionPercentage",
          "type": "uint256"
        }
      ],
      "name": "submitProgress",
      "outputs": [],
      "stateMutability": "nonpayable",
      "type": "function"
    },
    {
      "inputs": [
        {
          "internalType": "uint256",
          "name": "",
          "type": "uint256"
        },
        {
          "internalType": "uint256",
          "name": "",
          "type": "uint256"
        }
      ],
      "name": "tenderValidators",
      "outputs": [
        {
          "internalType": "address",
          "name": "",
          "type": "address"
        }
      ],
      "stateMutability": "view",
      "type": "function"
    },
    {
      "inputs": [
        {
          "internalType": "uint256",
          "name": "_tenderId",
          "type": "uint256"
        },
        {
          "internalType": "uint256",
          "name": "_progressId",
          "type": "uint256"
        },
        {
          "internalType": "bool",
          "name": "_approved",
          "type": "bool"
        },
        {
          "internalType": "string",
          "name": "_comments",
          "type": "string"
        },
        {
          "internalType": "string",
          "name": "_evidenceHash",
          "type": "string"
        }
      ],
      "name": "validateProgress",
      "outputs": [],
      "stateMutability": "nonpayable",
      "type": "function"
    },
    {
      "inputs": [],
      "name": "validatorCooldown",
      "outputs": [
        {
          "internalType": "uint256",
          "name": "",
          "type": "uint256"
        }
      ],
      "stateMutability": "view",
      "type": "function"
    },
    {
      "inputs": [
        {
          "internalType": "address",
          "name": "",
          "type": "address"
        }
      ],
      "name": "validators",
      "outputs": [
        {
          "internalType": "bool",
          "name": "isActive",
          "type": "bool"
        },
        {
          "internalType": "uint256",
          "name": "validationCount",
          "type": "uint256"
        },
        {
          "internalType": "uint256",
          "name": "reputation",
          "type": "uint256"
        },
        {
          "internalType": "uint256",
          "name": "lastAssignedTime",
          "type": "uint256"
        }
      ],
      "stateMutability": "view",
      "type": "function"
    }
  ],
  "bytecode": "0x60803461008d57601f6115f138819003918201601f19168301916001600160401b038311848410176100925780849260609460405283398101031261008d5780516001600160a01b038116919082900361008d57604060208201519101519160018060a01b031933816004541617600455600554161760055560065560075560405161154890816100a98239f35b600080fd5b634e487b7160e01b600052604160045260246000fdfe6080604052600436101561001257600080fd5b60003560e01c806340a141ff146111955780634d238c8e1461106a5780634e9e29db14610b2a5780635006e85414610b0c5780637a22f57c14610aee5780638a038d3a14610aa45780638da5cb5b14610a7b57806394992870146103b95780639850f4ee1461029c578063aa9dbb0314610270578063abfb9254146101a8578063bd4e715b1461017f578063c592b415146101205763fa52c7d8146100b657600080fd5b3461011b57602036600319011261011b576004356001600160a01b0381169081900361011b5760005260026020526080604060002060ff8154169060018101549060036002820154910154916040519315158452602084015260408301526060820152f35b600080fd5b3461011b5761012e366112d4565b90600052600060205260406000209060005260205260ff60056040600020015460a01c16600581101561016957602090600260405191148152f35b634e487b7160e01b600052602160045260246000fd5b3461011b57600036600319011261011b576005546040516001600160a01b039091168152602090f35b3461011b576101b6366112d4565b906000526000602052604060002090600052602052604060002080546101de6001830161139f565b916101eb6002820161139f565b6003820154916102616004820154600583015490610238600760068601549501549561022a6040519a8b9a610120908c528060208d01528b0190611318565b9089820360408b0152611318565b956060880152608087015260018060a01b03811660a087015260ff60c087019160a01c16611358565b60e08401526101008301520390f35b3461011b57602036600319011261011b5760043560005260016020526020604060002054604051908152f35b3461011b576102aa366112d4565b906000526020906000825260406000209060005281526040600020906001600383015460048401549060058501549360018060a01b039260068701546102f6600160098a01990161139f565b966040519283858b54918281520190819b600052866000209060005b8181106103a45750505091610367916103308688979695038661125b565b6103456040519b60e08d5260e08d0190611318565b97868c015260408b015287811660608b015260ff60808b019160a01c16611358565b60a088015286840360c088015251928381520195926000905b83821061038d5786880387f35b845181168852968201969382019390850190610380565b82548b16845292880192918b01918b01610312565b3461011b5760a036600319011261011b57604435801515810361011b5760643567ffffffffffffffff811161011b576103f690369060040161127d565b9060843567ffffffffffffffff811161011b5761041790369060040161127d565b9033600052600260205260ff6040600020541615610a20576004356000526000602052604060002060243560005260205260406000209160ff600584015460a01c166005811015610169576001036109dc57336000526008830160205260ff604060002054166109a357610490336024356004356114a9565b1561095e57604051938460a081011067ffffffffffffffff60a0870111176108785760a085016040526001855260208501918315158352604086019182526060860152426080860152336000526008840160205260406000209161050386511515849060ff801983541691151516179055565b51825461ff00191690151560081b61ff00161782555180519067ffffffffffffffff821161087857819061053a6001850154611365565b601f811161090b575b50602090601f83116001146108995760009261088e575b50508160011b916000199060031b1c19161760018201555b606084015180519067ffffffffffffffff8211610878576105966002840154611365565b601f8111610831575b50602090601f83116001146107ba579582600393608093600798996000926107af575b50508160011b9160001990861b1c19161760028501555b015191015560068301906105ed825461149a565b8255336000526002602052600160406000200161060a815461149a565b9055604051906024358252336020830152151560408201527ff77aba78d2148c4e7abae70617da9f1956c963d93495ff6310ca6e17a0e49cc2606060043592a254910154111561065657005b6004356000526000602052604060002060243560005260205260406000206000806009830154905b818110610748575050600381029080820460031490151715610732576006820154918260011b92808404600214901517156107325760ff926005921061071957808201805460a085901b1916600160a11b1790555b015460a01c166106ef6040519160243583526020830190611358565b7f53a14bfadce73e9295960ecab396aa58fe4e5124d3c96dbebe1e5e4b698caf3e604060043592a2005b808201805460a085901b1916600360a01b1790556106d3565b634e487b7160e01b600052601160045260246000fd5b61075581600986016112ea565b60018060a01b0391549060031b1c166000526008840160205260406000205460ff811690816107a1575b5061078d575b60010161067e565b9161079960019161149a565b929050610785565b60ff915060081c168561077f565b0151905089806105c2565b906002840160005260206000209160005b601f19851681106108195750836080936007989993600193600397601f19811610610801575b505050811b0160028501556105d9565b015160001983881b60f8161c191690558980806107f1565b919260206001819286850151815501940192016107cb565b600284016000526020600020601f840160051c810160208510610871575b601f830160051c8201811061086557505061059f565b6000815560010161084f565b508061084f565b634e487b7160e01b600052604160045260246000fd5b01519050868061055a565b9250600184016000526020600020906000935b601f19841685106108f0576001945083601f198116106108d7575b505050811b016001820155610572565b015160001960f88460031b161c191690558680806108c7565b818101518355602094850194600190930192909101906108ac565b909150600184016000526020600020601f840160051c810160208510610957575b90849392915b601f830160051c82018110610948575050610543565b60008155859450600101610932565b508061092c565b60405162461bcd60e51b815260206004820152601960248201527f4e6f742061737369676e65642061732076616c696461746f72000000000000006044820152606490fd5b60405162461bcd60e51b8152602060048201526011602482015270105b1c9958591e481d985b1a59185d1959607a1b6044820152606490fd5b606460405162461bcd60e51b815260206004820152602060248201527f50726f6772657373206e6f7420696e2076616c69646174696f6e2073746174656044820152fd5b60405162461bcd60e51b815260206004820152602d60248201527f4f6e6c79206163746976652076616c696461746f72732063616e2063616c6c2060448201526c3a3434b990333ab731ba34b7b760991b6064820152608490fd5b3461011b57600036600319011261011b576004546040516001600160a01b039091168152602090f35b3461011b57610ab2366112d4565b9060005260036020526040600020805482101561011b57602091610ad5916112ea565b905460405160039290921b1c6001600160a01b03168152f35b3461011b57600036600319011261011b576020600754604051908152f35b3461011b57600036600319011261011b576020600654604051908152f35b3461011b57608036600319011261011b5760243567ffffffffffffffff811161011b57610b5b90369060040161127d565b60443567ffffffffffffffff811161011b57610b7b90369060040161127d565b6064803511611025576004356000526001602052604060002054600060205260406000208160005260205260406000206004358155835167ffffffffffffffff811161087857610bce6001830154611365565b601f8111610fde575b50602094601f8211600114610f7257948192939495600092610f67575b50508160011b916000199060031b1c19161760018201555b825167ffffffffffffffff811161087857610c2a6002830154611365565b601f8111610f20575b506020601f8211600114610eb25781929394600092610ea7575b50508160011b916000199060031b1c19161760028201555b606435600382015542600482015560058101805460ff60a01b193316906affffffffffffffffffffff60a81b16179055600760065491015560043560005260016020526040600020610cb7815461149a565b9055600435600052600060205260406000208160005260205260406000209060043560005260036020526040600020906000805b600654811080610e9d575b15610e0e57610d0582856112ea565b60018060a01b0391549060031b1c1691826000526002602052604060002060ff8154169081610df3575b50610d46575b610d4091925061149a565b90610ceb565b60098601546801000000000000000081101561087857610d4092610d79826001610daa940160098b015560098a016112ea565b81549060031b9087821b9160018060a01b03901b19161790558460005260026020524260036040600020015561149a565b604080518681526001600160a01b039590951660208601529093600435917fda30c9dcb83fcb0f5dd01a039a89656a39fe9f6b1b51862c9309f1faad27241191a2829150610d35565b60039150015460075481018091116107325742101587610d2f565b849150610e4e575b5060408051918252336020830152600435917f04424ed1483eb4ce2c11d4edba108adaad9bd155e14c575d8870c8f991a4745e9190a2005b600501805460ff60a01b1916600160a01b1790556040805182815260016020820152600435917f53a14bfadce73e9295960ecab396aa58fe4e5124d3c96dbebe1e5e4b698caf3e91a281610e16565b5083548210610cf6565b015190508480610c4d565b6002830160005260206000209060005b601f1984168110610f085750600193949583601f19811610610eef575b505050811b016002820155610c65565b015160001960f88460031b161c19169055848080610edf565b9091602060018192858a015181550193019101610ec2565b600283016000526020600020601f830160051c810160208410610f60575b601f830160051c82018110610f54575050610c33565b60008155600101610f3e565b5080610f3e565b015190508580610bf4565b601f198216956001840160005260206000209160005b888110610fc657508360019596979810610fad575b505050811b016001820155610c0c565b015160001960f88460031b161c19169055858080610f9d565b91926020600181928685015181550194019201610f88565b600183016000526020600020601f830160051c81016020841061101e575b601f830160051c82018110611012575050610bd7565b60008155600101610ffc565b5080610ffc565b60405162461bcd60e51b815260206004820152601d60248201527f496e76616c696420636f6d706c6574696f6e2070657263656e746167650000006044820152606490fd5b3461011b57602036600319011261011b576004356001600160a01b038181169182900361011b576110a090600454163314611444565b80600052600260205260ff60406000205416611150576040516080810181811067ffffffffffffffff8211176108785760405260018152600360208201600081526040830160648152606084019160008352856000526002602052611119604060002095511515869060ff801983541691151516179055565b516001850155516002840155519101557fe366c1c0452ed8eec96861e9e54141ebff23c9ec89fe27b996b45f5ec3884987600080a2005b60405162461bcd60e51b815260206004820152601860248201527f56616c696461746f7220616c72656164792065786973747300000000000000006044820152606490fd5b3461011b57602036600319011261011b576004356001600160a01b038181169182900361011b576111cb90600454163314611444565b80600052600260205260ff604060002054161561121f57806000526002602052604060002060ff1981541690557fe1434e25d6611e0db941968fdc97811c982ac1602e951637d206f5fdda9dd8f1600080a2005b60405162461bcd60e51b815260206004820152601460248201527356616c696461746f72206e6f742061637469766560601b6044820152606490fd5b90601f8019910116810190811067ffffffffffffffff82111761087857604052565b81601f8201121561011b5780359067ffffffffffffffff821161087857604051926112b2601f8401601f19166020018561125b565b8284526020838301011161011b57816000926020809301838601378301015290565b604090600319011261011b576004359060243590565b80548210156113025760005260206000200190600090565b634e487b7160e01b600052603260045260246000fd5b919082519283825260005b848110611344575050826000602080949584010152601f8019910116010190565b602081830181015184830182015201611323565b9060058210156101695752565b90600182811c92168015611395575b602083101461137f57565b634e487b7160e01b600052602260045260246000fd5b91607f1691611374565b906040519182600082546113b281611365565b9081845260209460019160018116908160001461142257506001146113e3575b5050506113e19250038361125b565b565b600090815285812095935091905b81831061140a5750506113e193508201013880806113d2565b855488840185015294850194879450918301916113f1565b925050506113e194925060ff191682840152151560051b8201013880806113d2565b1561144b57565b60405162461bcd60e51b815260206004820152602160248201527f4f6e6c79206f776e65722063616e2063616c6c20746869732066756e6374696f6044820152603760f91b6064820152608490fd5b60001981146107325760010190565b919060009283528260205260408320908352602052600960408320019082918054925b8381106114da575050505090565b6114e481836112ea565b905460039190911b1c6001600160a01b0390811690841614611508576001016114cc565b505050505060019056fea26469706673582212208e4052bc416f6bad79587b52f5d6f249ab6b2346001e7723c68ce6657e9ecd6b64736f6c63430008160033",
  "linkReferences": {},
  "deployedLinkReferences": {}
}