{
  "_format": "hh-sol-artifact-1",
  "contractName": "PlatformToken",
  "sourceName": "contracts/PlatformToken.sol",
  "abi": [
    {
      "inputs": [
        {
          "internalType": "string",
          "name": "_name",
          "type": "string"
        },
        {
          "internalType": "string",
          "name": "_symbol",
          "type": "string"
        },
        {
          "internalType": "address",
          "name": "_auditLogAddress",
          "type": "address"
        }
      ],
      "stateMutability": "nonpayable",
      "type": "constructor"
    },
    {
      "inputs": [],
      "name": "AccessControlBadConfirmation",
      "type": "error"
    },
    {
      "inputs": [
        {
          "internalType": "address",
          "name": "account",
          "type": "address"
        },
        {
          "internalType": "bytes32",
          "name": "neededRole",
          "type": "bytes32"
        }
      ],
      "name": "AccessControlUnauthorizedAccount",
      "type": "error"
    },
    {
      "inputs": [
        {
          "internalType": "address",
          "name": "spender",
          "type": "address"
        },
        {
          "internalType": "uint256",
          "name": "allowance",
          "type": "uint256"
        },
        {
          "internalType": "uint256",
          "name": "needed",
          "type": "uint256"
        }
      ],
      "name": "ERC20InsufficientAllowance",
      "type": "error"
    },
    {
      "inputs": [
        {
          "internalType": "address",
          "name": "sender",
          "type": "address"
        },
        {
          "internalType": "uint256",
          "name": "balance",
          "type": "uint256"
        },
        {
          "internalType": "uint256",
          "name": "needed",
          "type": "uint256"
        }
      ],
      "name": "ERC20InsufficientBalance",
      "type": "error"
    },
    {
      "inputs": [
        {
          "internalType": "address",
          "name": "approver",
          "type": "address"
        }
      ],
      "name": "ERC20InvalidApprover",
      "type": "error"
    },
    {
      "inputs": [
        {
          "internalType": "address",
          "name": "receiver",
          "type": "address"
        }
      ],
      "name": "ERC20InvalidReceiver",
      "type": "error"
    },
    {
      "inputs": [
        {
          "internalType": "address",
          "name": "sender",
          "type": "address"
        }
      ],
      "name": "ERC20InvalidSender",
      "type": "error"
    },
    {
      "inputs": [
        {
          "internalType": "address",
          "name": "spender",
          "type": "address"
        }
      ],
      "name": "ERC20InvalidSpender",
      "type": "error"
    },
    {
      "inputs": [],
      "name": "EnforcedPause",
      "type": "error"
    },
    {
      "inputs": [],
      "name": "ExpectedPause",
      "type": "error"
    },
    {
      "inputs": [],
      "name": "ReentrancyGuardReentrantCall",
      "type": "error"
    },
    {
      "anonymous": false,
      "inputs": [
        {
          "indexed": true,
          "internalType": "address",
          "name": "owner",
          "type": "address"
        },
        {
          "indexed": true,
          "internalType": "address",
          "name": "spender",
          "type": "address"
        },
        {
          "indexed": false,
          "internalType": "uint256",
          "name": "value",
          "type": "uint256"
        }
      ],
      "name": "Approval",
      "type": "event"
    },
    {
      "anonymous": false,
      "inputs": [
        {
          "indexed": false,
          "internalType": "address",
          "name": "account",
          "type": "address"
        }
      ],
      "name": "Paused",
      "type": "event"
    },
    {
      "anonymous": false,
      "inputs": [
        {
          "indexed": true,
          "internalType": "address",
          "name": "user",
          "type": "address"
        },
        {
          "indexed": true,
          "internalType": "uint256",
          "name": "schemeId",
          "type": "uint256"
        },
        {
          "indexed": false,
          "internalType": "uint256",
          "name": "amount",
          "type": "uint256"
        }
      ],
      "name": "RewardClaimed",
      "type": "event"
    },
    {
      "anonymous": false,
      "inputs": [
        {
          "indexed": true,
          "internalType": "uint256",
          "name": "schemeId",
          "type": "uint256"
        },
        {
          "indexed": false,
          "internalType": "string",
          "name": "name",
          "type": "string"
        },
        {
          "indexed": false,
          "internalType": "uint256",
          "name": "rewardAmount",
          "type": "uint256"
        },
        {
          "indexed": false,
          "internalType": "uint256",
          "name": "cooldownPeriod",
          "type": "uint256"
        }
      ],
      "name": "RewardSchemeMinted",
      "type": "event"
    },
    {
      "anonymous": false,
      "inputs": [
        {
          "indexed": true,
          "internalType": "uint256",
          "name": "schemeId",
          "type": "uint256"
        },
        {
          "indexed": false,
          "internalType": "string",
          "name": "name",
          "type": "string"
        },
        {
          "indexed": false,
          "internalType": "uint256",
          "name": "rewardAmount",
          "type": "uint256"
        },
        {
          "indexed": false,
          "internalType": "uint256",
          "name": "cooldownPeriod",
          "type": "uint256"
        },
        {
          "indexed": false,
          "internalType": "bool",
          "name": "active",
          "type": "bool"
        }
      ],
      "name": "RewardSchemeUpdated",
      "type": "event"
    },
    {
      "anonymous": false,
      "inputs": [
        {
          "indexed": true,
          "internalType": "bytes32",
          "name": "role",
          "type": "bytes32"
        },
        {
          "indexed": true,
          "internalType": "bytes32",
          "name": "previousAdminRole",
          "type": "bytes32"
        },
        {
          "indexed": true,
          "internalType": "bytes32",
          "name": "newAdminRole",
          "type": "bytes32"
        }
      ],
      "name": "RoleAdminChanged",
      "type": "event"
    },
    {
      "anonymous": false,
      "inputs": [
        {
          "indexed": true,
          "internalType": "bytes32",
          "name": "role",
          "type": "bytes32"
        },
        {
          "indexed": true,
          "internalType": "address",
          "name": "account",
          "type": "address"
        },
        {
          "indexed": true,
          "internalType": "address",
          "name": "sender",
          "type": "address"
        }
      ],
      "name": "RoleGranted",
      "type": "event"
    },
    {
      "anonymous": false,
      "inputs": [
        {
          "indexed": true,
          "internalType": "bytes32",
          "name": "role",
          "type": "bytes32"
        },
        {
          "indexed": true,
          "internalType": "address",
          "name": "account",
          "type": "address"
        },
        {
          "indexed": true,
          "internalType": "address",
          "name": "sender",
          "type": "address"
        }
      ],
      "name": "RoleRevoked",
      "type": "event"
    },
    {
      "anonymous": false,
      "inputs": [
        {
          "indexed": true,
          "internalType": "address",
          "name": "from",
          "type": "address"
        },
        {
          "indexed": true,
          "internalType": "address",
          "name": "to",
          "type": "address"
        },
        {
          "indexed": false,
          "internalType": "uint256",
          "name": "value",
          "type": "uint256"
        }
      ],
      "name": "Transfer",
      "type": "event"
    },
    {
      "anonymous": false,
      "inputs": [
        {
          "indexed": false,
          "internalType": "address",
          "name": "account",
          "type": "address"
        }
      ],
      "name": "Unpaused",
      "type": "event"
    },
    {
      "anonymous": false,
      "inputs": [
        {
          "indexed": true,
          "internalType": "address",
          "name": "user",
          "type": "address"
        },
        {
          "indexed": false,
          "internalType": "bool",
          "name": "blacklisted",
          "type": "bool"
        }
      ],
      "name": "UserBlacklistStatusUpdated",
      "type": "event"
    },
    {
      "inputs": [],
      "name": "BLACKLIST_MANAGER_ROLE",
      "outputs": [
        {
          "internalType": "bytes32",
          "name": "",
          "type": "bytes32"
        }
      ],
      "stateMutability": "view",
      "type": "function"
    },
    {
      "inputs": [],
      "name": "DEFAULT_ADMIN_ROLE",
      "outputs": [
        {
          "internalType": "bytes32",
          "name": "",
          "type": "bytes32"
        }
      ],
      "stateMutability": "view",
      "type": "function"
    },
    {
      "inputs": [],
      "name": "MAX_REWARD_AMOUNT",
      "outputs": [
        {
          "internalType": "uint256",
          "name": "",
          "type": "uint256"
        }
      ],
      "stateMutability": "view",
      "type": "function"
    },
    {
      "inputs": [],
      "name": "MAX_SUPPLY",
      "outputs": [
        {
          "internalType": "uint256",
          "name": "",
          "type": "uint256"
        }
      ],
      "stateMutability": "view",
      "type": "function"
    },
    {
      "inputs": [],
      "name": "MINTER_ROLE",
      "outputs": [
        {
          "internalType": "bytes32",
          "name": "",
          "type": "bytes32"
        }
      ],
      "stateMutability": "view",
      "type": "function"
    },
    {
      "inputs": [],
      "name": "MIN_REWARD_COOLDOWN",
      "outputs": [
        {
          "internalType": "uint256",
          "name": "",
          "type": "uint256"
        }
      ],
      "stateMutability": "view",
      "type": "function"
    },
    {
      "inputs": [],
      "name": "REWARD_MANAGER_ROLE",
      "outputs": [
        {
          "internalType": "bytes32",
          "name": "",
          "type": "bytes32"
        }
      ],
      "stateMutability": "view",
      "type": "function"
    },
    {
      "inputs": [
        {
          "internalType": "address",
          "name": "owner",
          "type": "address"
        },
        {
          "internalType": "address",
          "name": "spender",
          "type": "address"
        }
      ],
      "name": "allowance",
      "outputs": [
        {
          "internalType": "uint256",
          "name": "",
          "type": "uint256"
        }
      ],
      "stateMutability": "view",
      "type": "function"
    },
    {
      "inputs": [
        {
          "internalType": "address",
          "name": "spender",
          "type": "address"
        },
        {
          "internalType": "uint256",
          "name": "value",
          "type": "uint256"
        }
      ],
      "name": "approve",
      "outputs": [
        {
          "internalType": "bool",
          "name": "",
          "type": "bool"
        }
      ],
      "stateMutability": "nonpayable",
      "type": "function"
    },
    {
      "inputs": [],
      "name": "auditLog",
      "outputs": [
        {
          "internalType": "contract AuditLog",
          "name": "",
          "type": "address"
        }
      ],
      "stateMutability": "view",
      "type": "function"
    },
    {
      "inputs": [
        {
          "internalType": "address",
          "name": "account",
          "type": "address"
        }
      ],
      "name": "balanceOf",
      "outputs": [
        {
          "internalType": "uint256",
          "name": "",
          "type": "uint256"
        }
      ],
      "stateMutability": "view",
      "type": "function"
    },
    {
      "inputs": [
        {
          "internalType": "uint256",
          "name": "value",
          "type": "uint256"
        }
      ],
      "name": "burn",
      "outputs": [],
      "stateMutability": "nonpayable",
      "type": "function"
    },
    {
      "inputs": [
        {
          "internalType": "address",
          "name": "account",
          "type": "address"
        },
        {
          "internalType": "uint256",
          "name": "value",
          "type": "uint256"
        }
      ],
      "name": "burnFrom",
      "outputs": [],
      "stateMutability": "nonpayable",
      "type": "function"
    },
    {
      "inputs": [
        {
          "internalType": "address",
          "name": "_user",
          "type": "address"
        },
        {
          "internalType": "uint256",
          "name": "_schemeId",
          "type": "uint256"
        }
      ],
      "name": "canClaimReward",
      "outputs": [
        {
          "internalType": "bool",
          "name": "",
          "type": "bool"
        }
      ],
      "stateMutability": "view",
      "type": "function"
    },
    {
      "inputs": [
        {
          "internalType": "uint256",
          "name": "_schemeId",
          "type": "uint256"
        }
      ],
      "name": "claimReward",
      "outputs": [],
      "stateMutability": "nonpayable",
      "type": "function"
    },
    {
      "inputs": [
        {
          "internalType": "string",
          "name": "_name",
          "type": "string"
        },
        {
          "internalType": "uint256",
          "name": "_rewardAmount",
          "type": "uint256"
        },
        {
          "internalType": "uint256",
          "name": "_cooldownPeriod",
          "type": "uint256"
        }
      ],
      "name": "createRewardScheme",
      "outputs": [
        {
          "internalType": "uint256",
          "name": "",
          "type": "uint256"
        }
      ],
      "stateMutability": "nonpayable",
      "type": "function"
    },
    {
      "inputs": [],
      "name": "decimals",
      "outputs": [
        {
          "internalType": "uint8",
          "name": "",
          "type": "uint8"
        }
      ],
      "stateMutability": "view",
      "type": "function"
    },
    {
      "inputs": [
        {
          "internalType": "uint256",
          "name": "_schemeId",
          "type": "uint256"
        }
      ],
      "name": "getRewardSchemeInfo",
      "outputs": [
        {
          "internalType": "string",
          "name": "name",
          "type": "string"
        },
        {
          "internalType": "uint256",
          "name": "rewardAmount",
          "type": "uint256"
        },
        {
          "internalType": "uint256",
          "name": "cooldownPeriod",
          "type": "uint256"
        },
        {
          "internalType": "bool",
          "name": "active",
          "type": "bool"
        },
        {
          "internalType": "uint256",
          "name": "createdAt",
          "type": "uint256"
        },
        {
          "internalType": "address",
          "name": "createdBy",
          "type": "address"
        }
      ],
      "stateMutability": "view",
      "type": "function"
    },
    {
      "inputs": [
        {
          "internalType": "bytes32",
          "name": "role",
          "type": "bytes32"
        }
      ],
      "name": "getRoleAdmin",
      "outputs": [
        {
          "internalType": "bytes32",
          "name": "",
          "type": "bytes32"
        }
      ],
      "stateMutability": "view",
      "type": "function"
    },
    {
      "inputs": [
        {
          "internalType": "address",
          "name": "_user",
          "type": "address"
        }
      ],
      "name": "getUserRewardInfo",
      "outputs": [
        {
          "internalType": "uint256",
          "name": "totalRewards",
          "type": "uint256"
        },
        {
          "internalType": "bool",
          "name": "blacklisted",
          "type": "bool"
        }
      ],
      "stateMutability": "view",
      "type": "function"
    },
    {
      "inputs": [
        {
          "internalType": "bytes32",
          "name": "role",
          "type": "bytes32"
        },
        {
          "internalType": "address",
          "name": "account",
          "type": "address"
        }
      ],
      "name": "grantRole",
      "outputs": [],
      "stateMutability": "nonpayable",
      "type": "function"
    },
    {
      "inputs": [
        {
          "internalType": "bytes32",
          "name": "role",
          "type": "bytes32"
        },
        {
          "internalType": "address",
          "name": "account",
          "type": "address"
        }
      ],
      "name": "hasRole",
      "outputs": [
        {
          "internalType": "bool",
          "name": "",
          "type": "bool"
        }
      ],
      "stateMutability": "view",
      "type": "function"
    },
    {
      "inputs": [
        {
          "internalType": "address",
          "name": "_to",
          "type": "address"
        },
        {
          "internalType": "uint256",
          "name": "_amount",
          "type": "uint256"
        }
      ],
      "name": "mint",
      "outputs": [],
      "stateMutability": "nonpayable",
      "type": "function"
    },
    {
      "inputs": [],
      "name": "name",
      "outputs": [
        {
          "internalType": "string",
          "name": "",
          "type": "string"
        }
      ],
      "stateMutability": "view",
      "type": "function"
    },
    {
      "inputs": [],
      "name": "pause",
      "outputs": [],
      "stateMutability": "nonpayable",
      "type": "function"
    },
    {
      "inputs": [],
      "name": "paused",
      "outputs": [
        {
          "internalType": "bool",
          "name": "",
          "type": "bool"
        }
      ],
      "stateMutability": "view",
      "type": "function"
    },
    {
      "inputs": [
        {
          "internalType": "bytes32",
          "name": "role",
          "type": "bytes32"
        },
        {
          "internalType": "address",
          "name": "callerConfirmation",
          "type": "address"
        }
      ],
      "name": "renounceRole",
      "outputs": [],
      "stateMutability": "nonpayable",
      "type": "function"
    },
    {
      "inputs": [
        {
          "internalType": "bytes32",
          "name": "role",
          "type": "bytes32"
        },
        {
          "internalType": "address",
          "name": "account",
          "type": "address"
        }
      ],
      "name": "revokeRole",
      "outputs": [],
      "stateMutability": "nonpayable",
      "type": "function"
    },
    {
      "inputs": [],
      "name": "rewardSchemeCount",
      "outputs": [
        {
          "internalType": "uint256",
          "name": "",
          "type": "uint256"
        }
      ],
      "stateMutability": "view",
      "type": "function"
    },
    {
      "inputs": [
        {
          "internalType": "uint256",
          "name": "",
          "type": "uint256"
        }
      ],
      "name": "rewardSchemes",
      "outputs": [
        {
          "internalType": "uint256",
          "name": "id",
          "type": "uint256"
        },
        {
          "internalType": "string",
          "name": "name",
          "type": "string"
        },
        {
          "internalType": "uint256",
          "name": "rewardAmount",
          "type": "uint256"
        },
        {
          "internalType": "uint256",
          "name": "cooldownPeriod",
          "type": "uint256"
        },
        {
          "internalType": "bool",
          "name": "active",
          "type": "bool"
        },
        {
          "internalType": "uint256",
          "name": "createdAt",
          "type": "uint256"
        },
        {
          "internalType": "address",
          "name": "createdBy",
          "type": "address"
        }
      ],
      "stateMutability": "view",
      "type": "function"
    },
    {
      "inputs": [
        {
          "internalType": "bytes4",
          "name": "interfaceId",
          "type": "bytes4"
        }
      ],
      "name": "supportsInterface",
      "outputs": [
        {
          "internalType": "bool",
          "name": "",
          "type": "bool"
        }
      ],
      "stateMutability": "view",
      "type": "function"
    },
    {
      "inputs": [],
      "name": "symbol",
      "outputs": [
        {
          "internalType": "string",
          "name": "",
          "type": "string"
        }
      ],
      "stateMutability": "view",
      "type": "function"
    },
    {
      "inputs": [],
      "name": "totalSupply",
      "outputs": [
        {
          "internalType": "uint256",
          "name": "",
          "type": "uint256"
        }
      ],
      "stateMutability": "view",
      "type": "function"
    },
    {
      "inputs": [
        {
          "internalType": "address",
          "name": "to",
          "type": "address"
        },
        {
          "internalType": "uint256",
          "name": "value",
          "type": "uint256"
        }
      ],
      "name": "transfer",
      "outputs": [
        {
          "internalType": "bool",
          "name": "",
          "type": "bool"
        }
      ],
      "stateMutability": "nonpayable",
      "type": "function"
    },
    {
      "inputs": [
        {
          "internalType": "address",
          "name": "from",
          "type": "address"
        },
        {
          "internalType": "address",
          "name": "to",
          "type": "address"
        },
        {
          "internalType": "uint256",
          "name": "value",
          "type": "uint256"
        }
      ],
      "name": "transferFrom",
      "outputs": [
        {
          "internalType": "bool",
          "name": "",
          "type": "bool"
        }
      ],
      "stateMutability": "nonpayable",
      "type": "function"
    },
    {
      "inputs": [],
      "name": "unpause",
      "outputs": [],
      "stateMutability": "nonpayable",
      "type": "function"
    },
    {
      "inputs": [
        {
          "internalType": "address",
          "name": "_user",
          "type": "address"
        },
        {
          "internalType": "bool",
          "name": "_blacklisted",
          "type": "bool"
        }
      ],
      "name": "updateBlacklist",
      "outputs": [],
      "stateMutability": "nonpayable",
      "type": "function"
    },
    {
      "inputs": [
        {
          "internalType": "uint256",
          "name": "_schemeId",
          "type": "uint256"
        },
        {
          "internalType": "string",
          "name": "_name",
          "type": "string"
        },
        {
          "internalType": "uint256",
          "name": "_rewardAmount",
          "type": "uint256"
        },
        {
          "internalType": "uint256",
          "name": "_cooldownPeriod",
          "type": "uint256"
        },
        {
          "internalType": "bool",
          "name": "_active",
          "type": "bool"
        }
      ],
      "name": "updateRewardScheme",
      "outputs": [],
      "stateMutability": "nonpayable",
      "type": "function"
    },
    {
      "inputs": [
        {
          "internalType": "address",
          "name": "",
          "type": "address"
        }
      ],
      "name": "userRewards",
      "outputs": [
        {
          "internalType": "uint256",
          "name": "totalRewards",
          "type": "uint256"
        },
        {
          "internalType": "bool",
          "name": "blacklisted",
          "type": "bool"
        }
      ],
      "stateMutability": "view",
      "type": "function"
    }
  ],
  "bytecode": "0x608060405234620003c45762002cea803803806200001d81620003c9565b9283398101606082820312620003c45781516001600160401b039290838111620003c457826200004f918301620003ef565b9160209081830151858111620003c4576040916200006f918501620003ef565b9201516001600160a01b0381169390849003620003c457805194808611620002c45760038054966001938489811c99168015620003b9575b868a1014620003a3578190601f998a81116200034d575b5086908a8311600114620002e657600092620002da575b505060001982841b1c191690841b1781555b8451918211620002c45760049485548481811c91168015620002b9575b86821014620002a45788811162000259575b5084978311600114620001f05796829394959697600093620001e4575b505082841b92600019911b1c19161783555b6006558215620001a157600b80546001600160a01b031916841790556200016c3362000461565b506200017833620004e2565b50620001843362000585565b50620001903362000623565b506040516126089081620006c28239f35b60405162461bcd60e51b815291820152601960248201527f496e76616c6964206175646974206c6f67206164647265737300000000000000604482015260649150fd5b01519150388062000133565b90601f1983169786600052856000209260005b8a811062000243575084869798999a1062000228575b50505050811b01835562000145565b01519060f884600019921b161c191690553880808062000219565b8183015185559386019391870191870162000203565b86600052856000208980860160051c8201928887106200029a575b0160051c019085905b8281106200028d57505062000116565b600081550185906200027d565b9250819262000274565b602287634e487b7160e01b6000525260246000fd5b90607f169062000104565b634e487b7160e01b600052604160045260246000fd5b015190503880620000d5565b90869350601f1983169185600052886000209260005b8a8282106200033657505084116200031d575b505050811b018155620000e7565b015160001983861b60f8161c191690553880806200030f565b8385015186558a97909501949384019301620002fc565b90915083600052866000208a80850160051c82019289861062000399575b918891869594930160051c01915b82811062000389575050620000be565b6000815585945088910162000379565b925081926200036b565b634e487b7160e01b600052602260045260246000fd5b98607f1698620000a7565b600080fd5b6040519190601f01601f191682016001600160401b03811183821017620002c457604052565b919080601f84011215620003c45782516001600160401b038111620002c45760209062000425601f8201601f19168301620003c9565b92818452828287010111620003c45760005b8181106200044d57508260009394955001015290565b858101830151848201840152820162000437565b6001600160a01b031660008181527f6d5257204ebe7d88fd91ae87941cb2dd9d8062b64ae5a2bd2d28ec40b9fbf6df602052604081205490919060ff16620004de5781805260076020526040822081835260205260408220600160ff19825416179055339160008051602062002cca8339815191528180a4600190565b5090565b6001600160a01b031660008181527fa4bfd7afe708e2e87e7f0e2ad9b4d545417e0f795f57b5c5ab5d799c565a04f460205260408120549091907f9f2df0fed2c77648de5860a4cc508cd0818c85b8b8a1ab4ceeef8d981c8956a69060ff16620005805780835260076020526040832082845260205260408320600160ff1982541617905560008051602062002cca833981519152339380a4600190565b505090565b6001600160a01b031660008181527f68405b06246e93395e5157fd26f44a02d4b1a6c272d2c7829b79530fa8f71a5960205260408120549091907f0f51adb3f49e4a9bbb17b3783f025995eaf8c24be2c8eefff214bdfda05ef94d9060ff16620005805780835260076020526040832082845260205260408320600160ff1982541617905560008051602062002cca833981519152339380a4600190565b6001600160a01b031660008181527f64129f4b3e6777694bd174e3bf026382d87d7312f4751ee53aeec8b5e1299c7260205260408120549091907ff988e4fb62b8e14f4820fed03192306ddf4d7dbfa215595ba1c6ba4b76b369ee9060ff16620005805780835260076020526040832082845260205260408320600160ff1982541617905560008051602062002cca833981519152339380a460019056fe608060409080825260048036101561001657600080fd5b600091823560e01c90816301ffc9a7146119aa575080630660f1e8146112dd57806306b29604146118ff57806306fdde0314611824578063095ea7b31461177957806318160ddd1461175a57806319760a361461173c57806323b872dd146116ff578063248a9ca3146116d35780632f2ff15d146116aa578063313ce5671461168e57806332cb6b0c1461166757806336568abe146116215780633f4ba83a146115b657806340c10f19146113d8578063410b24241461139d57806342966c68146113805780635a2d6ebd146113575780635c975abb1461133357806369517310146112dd5780636d750d80146112a257806370a082311461126b57806379cc6790146112385780637ab97fc3146111a85780638456cb591461114d5780639155e08314610ee257806391d1485414610e9a57806395d89b4114610dab578063a04f6b4b14610d87578063a217fddf14610d6c578063a6df8bfc14610d4d578063a9059cbb14610d1c578063ae169a5014610a08578063c273c53e146109b0578063d539139314610975578063d547741f14610936578063dd62ed3e146108ed578063ec07c9b11461056a5763f708c1d1146101d157600080fd5b346105665760a03660031901126105665780359267ffffffffffffffff91602435838111610562576102069036908301611bc6565b9060443595606435608435908115159182810361055e576102256120e5565b61022d612259565b61023a600a548510611c0d565b8389526020976008895261025560ff878a8d20015416611c51565b61026187511515611da1565b61026c8b1515611de4565b610281683635c9adc5dea000008c1115611e3c565b61029062015180841015611e81565b848a5260088952878a20906001820190885190811161054b576102b38254611a77565b601f8111610503575b508a601f821160011461046d5793887f83168f5cfd6dd4101fa469a95e4231cab8c4930e8fa099346f718311b35eb61896948e9f948e9f946104139f9d9c9b9a98819061033b9791610462575b508160011b916000199060031b1c19161790555b846002820155856003820155019060ff801983541691151516179055565b885192839260808452610351608085018a611a52565b928a8501528a84015260608301520390a260018060a01b03600b5416906103be6037865180957f557064617465642072657761726420736368656d653a20000000000000000000888301526103ae815180928a8686019101611a2f565b8101036017810186520184611ae3565b87855180978195829463b55ddac360e01b84523390840152608060248401526015608484015274149155d0549117d4d0d211535157d5541110551151605a1b60a484015260c0604484015260c4830190611a52565b6007606483015203925af1908115610459575061042e578280f35b813d8311610452575b6104418183611ae3565b8101031261044f5738808280f35b80fd5b503d610437565b513d85823e3d90fd5b90508d015138610309565b828d528b8d2090601f1983168e5b8181106104ec5750948d9e9f9460016104139f9d9c9b9a98949561033b968d958f837f83168f5cfd6dd4101fa469a95e4231cab8c4930e8fa099346f718311b35eb6189e9c106104d3575b505050811b01905561031d565b015160001960f88460031b161c1916905538808f6104c6565b91928e600181928f8701518155019401920161047b565b828d528b8d20601f830160051c8101918d8410610541575b601f0160051c01908d905b8281106105345750506102bc565b6001918155018d90610526565b909150819061051b565b634e487b7160e01b8c526041885260248cfd5b8880fd5b8480fd5b5080fd5b5091903461044f57606036600319011261044f5767ffffffffffffffff9183358381116108e95761059e9036908601611bc6565b9160243592604435956105af6120e5565b6105b7612259565b6105c382511515611da1565b6105ce851515611de4565b6105e3683635c9adc5dea00000861115611e3c565b6105f262015180881015611e81565b600a54946105ff86611ecd565b600a5585845260209760088952858520878155600180820186519a8b116108d65790818b6106338e99989796959454611a77565b601f811161087b575b505087601f8d116001146107f057927fe6453229071ff3c23b6272b4f337cf1ac8546d6914fca494ce84cc5cf73a921e94926006928e8e9f8d9e9f99976107909e916107e5575b50600019600383901b1c191690831b1790555b8460028301558360038301558782019060ff1982541617905542600582015501336bffffffffffffffffffffffff60a01b8254161790558951918291606083526106e36060840189611a52565b91898401528b8301520390a260018060a01b03600b54169061073b6037885180957f437265617465642072657761726420736368656d653a20000000000000000000888301526103ae815180928a8686019101611a2f565b85875180968195829463b55ddac360e01b84523390840152608060248401526015608484015274149155d0549117d4d0d211535157d0d49150551151605a1b60a484015260c0604484015260c4830190611a52565b6007606483015203925af180156107db579085916107b2575b50505051908152f35b813d83116107d4575b6107c58183611ae3565b8101031261044f5783816107a9565b503d6107bb565b83513d84823e3d90fd5b90508b015138610683565b818a52888a2090601f198e168b5b818110610866575092848e9f6107909d9e9f9997947fe6453229071ff3c23b6272b4f337cf1ac8546d6914fca494ce84cc5cf73a921e999794826006981061084d575b5050811b019055610696565b8d015160001960f88460031b161c191690553880610841565b8a830151845592850192918b01918b016107fe565b828b9a92939495969798999a52818b2091601f840160051c830193106108cc575b90601f8f9a99989796959493920160051c01905b8181106108bf578d915061063c565b8a81558e995083016108b0565b909150819061089c565b634e487b7160e01b885260418652602488fd5b8280fd5b8284346105665780600319360112610566578060209261090b6119fe565b610913611a19565b6001600160a01b0391821683526001865283832091168252845220549051908152f35b5082346108e957806003193601126108e957610971913561096c600161095a611a19565b93838752600760205286200154612141565b6121e2565b5080f35b828434610566578160031936011261056657602090517f9f2df0fed2c77648de5860a4cc508cd0818c85b8b8a1ab4ceeef8d981c8956a68152f35b508290346108e957816003193601126108e9576020926109ff916109fa60ff6109d76119fe565b9286602435956109ea600a548810611c0d565b86815260088a5220015416611c51565b611d4a565b90519015158152f35b508290346108e95760209182600319360112610d1857813591610a29612259565b610a31612277565b3385526009845260ff6002838720015416610ce157610a53600a548410611c0d565b82855260088452610a6b60ff82848820015416611c51565b8285526008845281852033865260098552828620936001946001810190828952818852610aa0868a2054600386015490611cdb565b4210610c9e5790879493929160025491610ad76b033b2e3c9fd0803ce8000000610ad06002880195865490611cdb565b1115611cfe565b838b52865242878b2055610aed82548254611cdb565b9055610afa81543361229a565b5485519081527ff01da32686223933d8a18a391060918c7f11a3648639edd87ae013e2e2731743853392a36001808060a01b03600b54169101918451927f436c61696d6564207265776172642066726f6d20736368656d653a200000000085850152603c8997825492610b6c84611a77565b9360018116908115610c745750600114610c33575b50505050610b9b83610be99703601f198101855284611ae3565b87855180978195829463b55ddac360e01b8452339084015260806024840152600e60848401526d149155d0549117d0d3105253515160921b60a484015260c0604484015260c4830190611a52565b6007606483015203925af19081156104595750610c0a575b82600160065580f35b813d8311610c2c575b610c1d8183611ae3565b8101031261044f578180610c01565b503d610c13565b90919298508a52858a208a905b898210610c5f5750505050610b9b83603c610be998820101978b610b81565b80548783018501528a97909101908201610c40565b9050610be99a50879350603c9250610b9b94915060ff19168284015280151502820101978b610b81565b855162461bcd60e51b8152808601899052601b60248201527f436f6f6c646f776e20706572696f64206e6f7420656c617073656400000000006044820152606490fd5b83606492519162461bcd60e51b83528201526013602482015272155cd95c881a5cc8189b1858dadb1a5cdd1959606a1b6044820152fd5b8380fd5b828434610566578060031936011261056657602090610d46610d3c6119fe565b6024359033611faf565b5160018152f35b828434610566578160031936011261056657602090600a549051908152f35b82843461056657816003193601126105665751908152602090f35b82843461056657816003193601126105665760209051683635c9adc5dea000008152f35b5082346108e957826003193601126108e9578051838194908454610dce81611a77565b9182855260209660019288600182169182600014610e70575050600114610e15575b8588610e1189610e02848a0385611ae3565b51928284938452830190611a52565b0390f35b815286935091907f8a35acfbc15ff81a39ae7d344fd709f28e8600b4aa8c65c6b64bfe7fe36bd19b5b828410610e585750505082010181610e02610e1188610df0565b8054848a018601528895508794909301928101610e3e565b60ff19168882015294151560051b87019094019450859350610e029250610e119150899050610df0565b508290346108e957816003193601126108e9578160209360ff92610ebc611a19565b90358252600786528282206001600160a01b039091168252855220549151911615158152f35b5082346108e957806003193601126108e957610efc6119fe565b6024359081151593848303611149577ff988e4fb62b8e14f4820fed03192306ddf4d7dbfa215595ba1c6ba4b76b369ee9485875260209560078752858820338952875260ff86892054161561112b5750916110c1949391610fcb8794610f60612259565b897f4cd029c6114930c51f783c4c16e37c138bd1e592dcf52d849b26b8d45d4fc6788760018060a01b0393610fbb8960028d888c1697610fa1891515611c9d565b8881526009875220019060ff801983541691151516179055565b8a51908152a2600b5416926123df565b92156111045761106b60488651610fe181611ab1565b838152637472756560e01b87820152945b87519586917f5570646174656420626c61636b6c6973742073746174757320666f722075736589840152620391d160ed1b8a84015261103a815180928b604387019101611a2f565b8201640103a379d160dd1b604382015261105c825180938b8785019101611a2f565b01036028810186520184611ae3565b87855180978195829463b55ddac360e01b845233908401526080602484015260166084840152751554d15497d0931050d2d31254d517d554111055115160521b60a484015260c0604484015260c4830190611a52565b6007606483015203925af190811561045957506110dc578280f35b813d83116110fd575b6110ef8183611ae3565b8101031261044f5781808280f35b503d6110e5565b61106b6048865161111481611ab1565b600581526466616c736560d81b8782015294610ff2565b855163e2517d3f60e01b815233818501526024810191909152604490fd5b8580fd5b82843461056657816003193601126105665760207f62e78cea01bee320cd4e420270b5ea74000d11b0c9f74754ebdbfc544b05a2589161118b61208d565b611193612259565b600160ff19600554161760055551338152a180f35b50903461044f57602036600319011261044f57829082358152600860205220918254916111d760018501611b05565b9360028101549160ff6003830154918301541690600583015492600660018060a01b03910154169361121a8651988998895260e060208a015260e0890190611a52565b9587015260608601521515608085015260a084015260c08301520390f35b8284346105665736600319011261044f576112686112546119fe565b60243590611263823383611edc565b612533565b80f35b8284346105665760203660031901126105665760209181906001600160a01b036112936119fe565b16815280845220549051908152f35b828434610566578160031936011261056657602090517f0f51adb3f49e4a9bbb17b3783f025995eaf8c24be2c8eefff214bdfda05ef94d8152f35b828434610566576020366003190112610566579081906001600160a01b036113036119fe565b168152600960205220610e1160ff6002835493015416925192839283909291602090604083019483521515910152565b82843461056657816003193601126105665760209060ff6005541690519015158152f35b828434610566578160031936011261056657600b5490516001600160a01b039091168152602090f35b503461056657602036600319011261056657611268903533612533565b828434610566578160031936011261056657602090517ff988e4fb62b8e14f4820fed03192306ddf4d7dbfa215595ba1c6ba4b76b369ee8152f35b50346105665782600319360112610566576113f16119fe565b926024357f9f2df0fed2c77648de5860a4cc508cd0818c85b8b8a1ab4ceeef8d981c8956a69283855260209360078552838620338752855260ff848720541615611599575061143e612259565b611446612277565b6001600160a01b0361145b8782161515611c9d565b82156115565782859261150a60326114ab6114a58c966114916b033b2e3c9fd0803ce8000000610ad0610be99d9c600254611cdb565b61149b878961229a565b600b54169561231f565b956123df565b94875195869166026b4b73a32b2160cd1b898401526114d3815180928b602787019101611a2f565b82016a0103a37b5b2b739903a37960ad1b60278201526114fb825180938b8785019101611a2f565b01036012810186520184611ae3565b87855180978195829463b55ddac360e01b8452339084015260806024840152600c60848401526b1513d2d15397d3525395115160a21b60a484015260c0604484015260c4830190611a52565b835162461bcd60e51b8152808301869052601d60248201527f416d6f756e74206d7573742062652067726561746572207468616e20300000006044820152606490fd5b6044925083519163e2517d3f60e01b835233908301526024820152fd5b508290346108e957826003193601126108e9576115d161208d565b6005549060ff821615611613575060ff1916600555513381527f5db9ee0a495bf2e6ff9c91a7834c1ba4fdd244a5e8aa4e537bd38aeae4b073aa90602090a180f35b8251638dfc202b60e01b8152fd5b50913461056657806003193601126105665761163b611a19565b90336001600160a01b0383160361165857506109719192356121e2565b5163334bd91960e11b81528390fd5b828434610566578160031936011261056657602090516b033b2e3c9fd0803ce80000008152f35b8284346105665781600319360112610566576020905160128152f35b5082346108e957806003193601126108e95761097191356116ce600161095a611a19565b612167565b508290346108e95760203660031901126108e95781602093600192358152600785522001549051908152f35b82843461056657606036600319011261056657602090610d466117206119fe565b611728611a19565b60443591611737833383611edc565b611faf565b82843461056657816003193601126105665760209051620151808152f35b8284346105665781600319360112610566576020906002549051908152f35b508290346108e957816003193601126108e9576117946119fe565b60243590331561180d576001600160a01b03169182156117f657508083602095338152600187528181208582528752205582519081527f8c5be1e5ebec7d5bd14f71427d1e84f3dd0314c0f7b2291e5b200ac8c7c3b925843392a35160018152f35b8351634a1406b160e11b8152908101859052602490fd5b835163e602df0560e01b8152808401869052602490fd5b50503461044f578060031936011261044f57815191828260035461184781611a77565b90818452602095600191876001821691826000146118d857505060011461187c575b505050610e119291610e02910385611ae3565b9190869350600383527fc2575a0e9e593c00f959f8c92f12db2869c3395a3b0502d05e2516446f71f85b5b8284106118c05750505082010181610e02610e11611869565b8054848a0186015288955087949093019281016118a7565b60ff19168782015293151560051b86019093019350849250610e029150610e119050611869565b508290346108e95760203660031901126108e9578161198c938235611927600a548210611c0d565b808252600860205261194060ff85858520015416611c51565b815260086020522060028101549160ff600383015491830154166005830154916119786001808060a01b036006870154169501611b05565b95805197889760c0895260c0890190611a52565b95602088015286015215156060850152608084015260a08301520390f35b919050346108e95760203660031901126108e9573563ffffffff60e01b81168091036108e95760209250637965db0b60e01b81149081156119ed575b5015158152f35b6301ffc9a760e01b149050836119e6565b600435906001600160a01b0382168203611a1457565b600080fd5b602435906001600160a01b0382168203611a1457565b60005b838110611a425750506000910152565b8181015183820152602001611a32565b90602091611a6b81518092818552858086019101611a2f565b601f01601f1916010190565b90600182811c92168015611aa7575b6020831014611a9157565b634e487b7160e01b600052602260045260246000fd5b91607f1691611a86565b6040810190811067ffffffffffffffff821117611acd57604052565b634e487b7160e01b600052604160045260246000fd5b90601f8019910116810190811067ffffffffffffffff821117611acd57604052565b90604051918260008254611b1881611a77565b90818452602094600191600181169081600014611b885750600114611b49575b505050611b4792500383611ae3565b565b600090815285812095935091905b818310611b70575050611b479350820101388080611b38565b85548884018501529485019487945091830191611b57565b92505050611b4794925060ff191682840152151560051b820101388080611b38565b67ffffffffffffffff8111611acd57601f01601f191660200190565b81601f82011215611a1457803590611bdd82611baa565b92611beb6040519485611ae3565b82845260208383010111611a1457816000926020809301838601378301015290565b15611c1457565b60405162461bcd60e51b8152602060048201526015602482015274496e76616c69642072657761726420736368656d6560581b6044820152606490fd5b15611c5857565b60405162461bcd60e51b815260206004820152601b60248201527f52657761726420736368656d65206973206e6f742061637469766500000000006044820152606490fd5b15611ca457565b60405162461bcd60e51b815260206004820152600f60248201526e496e76616c6964206164647265737360881b6044820152606490fd5b91908201809211611ce857565b634e487b7160e01b600052601160045260246000fd5b15611d0557565b60405162461bcd60e51b815260206004820152601760248201527f576f756c6420657863656564206d617820737570706c790000000000000000006044820152606490fd5b6001600160a01b0316600090815260096020526040812060028101549192909160ff16611d9c57604083600392611d969552600860205260018282209401602052205491015490611cdb565b42101590565b505090565b15611da857565b60405162461bcd60e51b81526020600482015260146024820152734e616d652063616e6e6f7420626520656d70747960601b6044820152606490fd5b15611deb57565b60405162461bcd60e51b8152602060048201526024808201527f52657761726420616d6f756e74206d75737420626520677265617465722074686044820152630616e20360e41b6064820152608490fd5b15611e4357565b60405162461bcd60e51b81526020600482015260166024820152750a4caeec2e4c840c2dadeeadce840e8dede40d0d2ced60531b6044820152606490fd5b15611e8857565b60405162461bcd60e51b815260206004820152601960248201527f436f6f6c646f776e20706572696f6420746f6f2073686f7274000000000000006044820152606490fd5b6000198114611ce85760010190565b9160018060a01b038093169160009383855260016020526040938486209183169182875260205284862054926000198410611f1b575b50505050505050565b848410611f7f57508015611f67578115611f4f57855260016020528385209085526020520391205538808080808080611f12565b8451634a1406b160e11b815260048101879052602490fd5b845163e602df0560e01b815260048101879052602490fd5b8551637dc7a0d960e11b81526001600160a01b039190911660048201526024810184905260448101859052606490fd5b916001600160a01b03808416928315612074571692831561205b5760009083825281602052604082205490838210612029575091604082827fddf252ad1be2c89b69c2b068fc378daa952ba7f163c4a11628f55a4df523b3ef958760209652828652038282205586815220818154019055604051908152a3565b60405163391434e360e21b81526001600160a01b03919091166004820152602481019190915260448101839052606490fd5b60405163ec442f0560e01b815260006004820152602490fd5b604051634b637e8f60e11b815260006004820152602490fd5b3360009081527f6d5257204ebe7d88fd91ae87941cb2dd9d8062b64ae5a2bd2d28ec40b9fbf6df602052604081205460ff16156120c75750565b6044906040519063e2517d3f60e01b82523360048301526024820152fd5b3360009081527f68405b06246e93395e5157fd26f44a02d4b1a6c272d2c7829b79530fa8f71a5960205260409020547f0f51adb3f49e4a9bbb17b3783f025995eaf8c24be2c8eefff214bdfda05ef94d9060ff16156120c75750565b80600052600760205260406000203360005260205260ff60406000205416156120c75750565b906000918083526007602052604083209160018060a01b03169182845260205260ff60408420541615600014611d9c5780835260076020526040832082845260205260408320600160ff198254161790557f2f8788117e7eff1d82e926ec794901d17c78024a50270940304540a733656f0d339380a4600190565b906000918083526007602052604083209160018060a01b03169182845260205260ff604084205416600014611d9c578083526007602052604083208284526020526040832060ff1981541690557ff6391f5c32d9c69d2a47ea670b442974b53935d1edc7fd64eb21e047a839171b339380a4600190565b60ff6005541661226557565b60405163d93c066560e01b8152600490fd5b600260065414612288576002600655565b604051633ee5aeb560e01b8152600490fd5b6001600160a01b031690811561205b577fddf252ad1be2c89b69c2b068fc378daa952ba7f163c4a11628f55a4df523b3ef6020826122dc600094600254611cdb565b60025584845283825260408420818154019055604051908152a3565b908151811015612309570160200190565b634e487b7160e01b600052603260045260246000fd5b80156123c15780816000925b6123ab575061233982611baa565b916123476040519384611ae3565b80835281601f1961235783611baa565b013660208601375b61236857505090565b6000198101908111611ce8578091600a9160308383068101809111611ce85760f81b6001600160f81b03191660001a906123a290866122f8565b5304908161235f565b90916123b8600a91611ecd565b9291048061232b565b506040516123ce81611ab1565b60018152600360fc1b602082015290565b604051906001600160a01b03166123f582611ab1565b6010825260206f181899199a1a9b1b9c1cb0b131b232b360811b6020840152604051926060840184811067ffffffffffffffff821117611acd57604052602a8452602084016040368237845115612309576030905383519260019360011015612309576078602186015360005b6014811061247257505050505090565b600c8101808211611ce857848110156123095782901a60046001600160f81b0319600f816124a485851c8316896122f8565b511693858a1b9460029087870482148815171561251e5786820180921161251e576124d96124e19493928e9260001a926122f8565b5316876122f8565b511690600392830180931161250957509061250287939260001a91896122f8565b5301612462565b601190634e487b7160e01b6000525260246000fd5b601186634e487b7160e01b6000525260246000fd5b906001600160a01b03821690811561207457600092828452836020526040842054908282106125a05750817fddf252ad1be2c89b69c2b068fc378daa952ba7f163c4a11628f55a4df523b3ef926020928587528684520360408620558060025403600255604051908152a3565b60405163391434e360e21b81526001600160a01b03919091166004820152602481019190915260448101829052606490fdfea2646970667358221220b339be2511c3a67ceb34d0d8ab881b76359fa97f34afeab3351006764b64d4d264736f6c634300081600332f8788117e7eff1d82e926ec794901d17c78024a50270940304540a733656f0d",
  "linkReferences": {},
  "deployedLinkReferences": {}
}