{
  "_format": "hh-sol-artifact-1",
  "contractName": "PlatformSettings",
  "sourceName": "contracts/PlatformSettings.sol",
  "abi": [
    {
      "inputs": [],
      "stateMutability": "nonpayable",
      "type": "constructor"
    },
    {
      "anonymous": false,
      "inputs": [
        {
          "indexed": true,
          "internalType": "address",
          "name": "admin",
          "type": "address"
        }
      ],
      "name": "AdministratorAdded",
      "type": "event"
    },
    {
      "anonymous": false,
      "inputs": [
        {
          "indexed": true,
          "internalType": "address",
          "name": "admin",
          "type": "address"
        }
      ],
      "name": "AdministratorRemoved",
      "type": "event"
    },
    {
      "anonymous": false,
      "inputs": [
        {
          "indexed": true,
          "internalType": "address",
          "name": "by",
          "type": "address"
        }
      ],
      "name": "PlatformPaused",
      "type": "event"
    },
    {
      "anonymous": false,
      "inputs": [
        {
          "indexed": true,
          "internalType": "address",
          "name": "by",
          "type": "address"
        }
      ],
      "name": "PlatformUnpaused",
      "type": "event"
    },
    {
      "anonymous": false,
      "inputs": [
        {
          "indexed": true,
          "internalType": "bytes32",
          "name": "roleId",
          "type": "bytes32"
        },
        {
          "indexed": false,
          "internalType": "string",
          "name": "name",
          "type": "string"
        }
      ],
      "name": "RoleCreated",
      "type": "event"
    },
    {
      "anonymous": false,
      "inputs": [
        {
          "indexed": true,
          "internalType": "bytes32",
          "name": "roleId",
          "type": "bytes32"
        },
        {
          "indexed": true,
          "internalType": "address",
          "name": "member",
          "type": "address"
        }
      ],
      "name": "RoleMemberAdded",
      "type": "event"
    },
    {
      "anonymous": false,
      "inputs": [
        {
          "indexed": true,
          "internalType": "bytes32",
          "name": "roleId",
          "type": "bytes32"
        },
        {
          "indexed": true,
          "internalType": "address",
          "name": "member",
          "type": "address"
        }
      ],
      "name": "RoleMemberRemoved",
      "type": "event"
    },
    {
      "anonymous": false,
      "inputs": [
        {
          "indexed": true,
          "internalType": "bytes32",
          "name": "roleId",
          "type": "bytes32"
        },
        {
          "indexed": true,
          "internalType": "bytes32",
          "name": "permission",
          "type": "bytes32"
        }
      ],
      "name": "RolePermissionGranted",
      "type": "event"
    },
    {
      "anonymous": false,
      "inputs": [
        {
          "indexed": true,
          "internalType": "bytes32",
          "name": "roleId",
          "type": "bytes32"
        },
        {
          "indexed": true,
          "internalType": "bytes32",
          "name": "permission",
          "type": "bytes32"
        }
      ],
      "name": "RolePermissionRevoked",
      "type": "event"
    },
    {
      "anonymous": false,
      "inputs": [
        {
          "indexed": true,
          "internalType": "bytes32",
          "name": "settingId",
          "type": "bytes32"
        },
        {
          "indexed": false,
          "internalType": "string",
          "name": "name",
          "type": "string"
        }
      ],
      "name": "SettingCreated",
      "type": "event"
    },
    {
      "anonymous": false,
      "inputs": [
        {
          "indexed": true,
          "internalType": "bytes32",
          "name": "settingId",
          "type": "bytes32"
        },
        {
          "indexed": false,
          "internalType": "bytes",
          "name": "value",
          "type": "bytes"
        }
      ],
      "name": "SettingUpdated",
      "type": "event"
    },
    {
      "inputs": [
        {
          "internalType": "address",
          "name": "_admin",
          "type": "address"
        }
      ],
      "name": "addAdministrator",
      "outputs": [],
      "stateMutability": "nonpayable",
      "type": "function"
    },
    {
      "inputs": [
        {
          "internalType": "bytes32",
          "name": "_roleId",
          "type": "bytes32"
        },
        {
          "internalType": "address",
          "name": "_member",
          "type": "address"
        }
      ],
      "name": "addRoleMember",
      "outputs": [],
      "stateMutability": "nonpayable",
      "type": "function"
    },
    {
      "inputs": [
        {
          "internalType": "address",
          "name": "",
          "type": "address"
        }
      ],
      "name": "administrators",
      "outputs": [
        {
          "internalType": "bool",
          "name": "",
          "type": "bool"
        }
      ],
      "stateMutability": "view",
      "type": "function"
    },
    {
      "inputs": [
        {
          "internalType": "bytes32",
          "name": "_roleId",
          "type": "bytes32"
        },
        {
          "internalType": "string",
          "name": "_name",
          "type": "string"
        },
        {
          "internalType": "string",
          "name": "_description",
          "type": "string"
        }
      ],
      "name": "createRole",
      "outputs": [],
      "stateMutability": "nonpayable",
      "type": "function"
    },
    {
      "inputs": [
        {
          "internalType": "bytes32",
          "name": "_settingId",
          "type": "bytes32"
        },
        {
          "internalType": "string",
          "name": "_name",
          "type": "string"
        },
        {
          "internalType": "string",
          "name": "_description",
          "type": "string"
        },
        {
          "internalType": "string",
          "name": "_dataType",
          "type": "string"
        },
        {
          "internalType": "bytes",
          "name": "_initialValue",
          "type": "bytes"
        },
        {
          "internalType": "bool",
          "name": "_isPublic",
          "type": "bool"
        }
      ],
      "name": "createSetting",
      "outputs": [],
      "stateMutability": "nonpayable",
      "type": "function"
    },
    {
      "inputs": [],
      "name": "getAllRoleKeys",
      "outputs": [
        {
          "internalType": "bytes32[]",
          "name": "",
          "type": "bytes32[]"
        }
      ],
      "stateMutability": "view",
      "type": "function"
    },
    {
      "inputs": [],
      "name": "getAllSettingKeys",
      "outputs": [
        {
          "internalType": "bytes32[]",
          "name": "",
          "type": "bytes32[]"
        }
      ],
      "stateMutability": "view",
      "type": "function"
    },
    {
      "inputs": [
        {
          "internalType": "bytes32",
          "name": "_roleId",
          "type": "bytes32"
        }
      ],
      "name": "getRoleInfo",
      "outputs": [
        {
          "internalType": "bool",
          "name": "exists",
          "type": "bool"
        },
        {
          "internalType": "string",
          "name": "name",
          "type": "string"
        },
        {
          "internalType": "string",
          "name": "description",
          "type": "string"
        }
      ],
      "stateMutability": "view",
      "type": "function"
    },
    {
      "inputs": [
        {
          "internalType": "bytes32",
          "name": "_settingId",
          "type": "bytes32"
        }
      ],
      "name": "getSettingInfo",
      "outputs": [
        {
          "internalType": "string",
          "name": "name",
          "type": "string"
        },
        {
          "internalType": "string",
          "name": "description",
          "type": "string"
        },
        {
          "internalType": "string",
          "name": "dataType",
          "type": "string"
        },
        {
          "internalType": "bool",
          "name": "isPublic",
          "type": "bool"
        },
        {
          "internalType": "bool",
          "name": "isActive",
          "type": "bool"
        },
        {
          "internalType": "uint256",
          "name": "lastUpdated",
          "type": "uint256"
        }
      ],
      "stateMutability": "view",
      "type": "function"
    },
    {
      "inputs": [
        {
          "internalType": "bytes32",
          "name": "_settingId",
          "type": "bytes32"
        }
      ],
      "name": "getSettingValue",
      "outputs": [
        {
          "internalType": "bytes",
          "name": "",
          "type": "bytes"
        }
      ],
      "stateMutability": "view",
      "type": "function"
    },
    {
      "inputs": [
        {
          "internalType": "bytes32",
          "name": "_roleId",
          "type": "bytes32"
        },
        {
          "internalType": "bytes32",
          "name": "_permission",
          "type": "bytes32"
        }
      ],
      "name": "grantRolePermission",
      "outputs": [],
      "stateMutability": "nonpayable",
      "type": "function"
    },
    {
      "inputs": [
        {
          "internalType": "bytes32",
          "name": "_roleId",
          "type": "bytes32"
        },
        {
          "internalType": "bytes32",
          "name": "_permission",
          "type": "bytes32"
        }
      ],
      "name": "hasPermission",
      "outputs": [
        {
          "internalType": "bool",
          "name": "",
          "type": "bool"
        }
      ],
      "stateMutability": "view",
      "type": "function"
    },
    {
      "inputs": [
        {
          "internalType": "bytes32",
          "name": "_roleId",
          "type": "bytes32"
        },
        {
          "internalType": "address",
          "name": "_member",
          "type": "address"
        }
      ],
      "name": "hasRole",
      "outputs": [
        {
          "internalType": "bool",
          "name": "",
          "type": "bool"
        }
      ],
      "stateMutability": "view",
      "type": "function"
    },
    {
      "inputs": [],
      "name": "owner",
      "outputs": [
        {
          "internalType": "address",
          "name": "",
          "type": "address"
        }
      ],
      "stateMutability": "view",
      "type": "function"
    },
    {
      "inputs": [],
      "name": "pausePlatform",
      "outputs": [],
      "stateMutability": "nonpayable",
      "type": "function"
    },
    {
      "inputs": [],
      "name": "paused",
      "outputs": [
        {
          "internalType": "bool",
          "name": "",
          "type": "bool"
        }
      ],
      "stateMutability": "view",
      "type": "function"
    },
    {
      "inputs": [
        {
          "internalType": "address",
          "name": "_admin",
          "type": "address"
        }
      ],
      "name": "removeAdministrator",
      "outputs": [],
      "stateMutability": "nonpayable",
      "type": "function"
    },
    {
      "inputs": [
        {
          "internalType": "bytes32",
          "name": "_roleId",
          "type": "bytes32"
        },
        {
          "internalType": "address",
          "name": "_member",
          "type": "address"
        }
      ],
      "name": "removeRoleMember",
      "outputs": [],
      "stateMutability": "nonpayable",
      "type": "function"
    },
    {
      "inputs": [
        {
          "internalType": "bytes32",
          "name": "_roleId",
          "type": "bytes32"
        },
        {
          "internalType": "bytes32",
          "name": "_permission",
          "type": "bytes32"
        }
      ],
      "name": "revokeRolePermission",
      "outputs": [],
      "stateMutability": "nonpayable",
      "type": "function"
    },
    {
      "inputs": [
        {
          "internalType": "uint256",
          "name": "",
          "type": "uint256"
        }
      ],
      "name": "roleKeys",
      "outputs": [
        {
          "internalType": "bytes32",
          "name": "",
          "type": "bytes32"
        }
      ],
      "stateMutability": "view",
      "type": "function"
    },
    {
      "inputs": [
        {
          "internalType": "bytes32",
          "name": "",
          "type": "bytes32"
        }
      ],
      "name": "roles",
      "outputs": [
        {
          "internalType": "bool",
          "name": "exists",
          "type": "bool"
        },
        {
          "internalType": "string",
          "name": "name",
          "type": "string"
        },
        {
          "internalType": "string",
          "name": "description",
          "type": "string"
        }
      ],
      "stateMutability": "view",
      "type": "function"
    },
    {
      "inputs": [
        {
          "internalType": "uint256",
          "name": "",
          "type": "uint256"
        }
      ],
      "name": "settingKeys",
      "outputs": [
        {
          "internalType": "bytes32",
          "name": "",
          "type": "bytes32"
        }
      ],
      "stateMutability": "view",
      "type": "function"
    },
    {
      "inputs": [
        {
          "internalType": "bytes32",
          "name": "",
          "type": "bytes32"
        }
      ],
      "name": "settings",
      "outputs": [
        {
          "internalType": "string",
          "name": "name",
          "type": "string"
        },
        {
          "internalType": "string",
          "name": "description",
          "type": "string"
        },
        {
          "internalType": "string",
          "name": "dataType",
          "type": "string"
        },
        {
          "internalType": "bytes",
          "name": "value",
          "type": "bytes"
        },
        {
          "internalType": "bool",
          "name": "isPublic",
          "type": "bool"
        },
        {
          "internalType": "bool",
          "name": "isActive",
          "type": "bool"
        },
        {
          "internalType": "uint256",
          "name": "lastUpdated",
          "type": "uint256"
        }
      ],
      "stateMutability": "view",
      "type": "function"
    },
    {
      "inputs": [
        {
          "internalType": "address",
          "name": "_newOwner",
          "type": "address"
        }
      ],
      "name": "transferOwnership",
      "outputs": [],
      "stateMutability": "nonpayable",
      "type": "function"
    },
    {
      "inputs": [],
      "name": "unpausePlatform",
      "outputs": [],
      "stateMutability": "nonpayable",
      "type": "function"
    },
    {
      "inputs": [
        {
          "internalType": "bytes32",
          "name": "_settingId",
          "type": "bytes32"
        },
        {
          "internalType": "bytes",
          "name": "_value",
          "type": "bytes"
        }
      ],
      "name": "updateSetting",
      "outputs": [],
      "stateMutability": "nonpayable",
      "type": "function"
    }
  ],
  "bytecode": "0x6080806040523461006857600580546001600160a01b031916339081179091556000818152600260205260408120805460ff191660011790557fe78a1675a4b4d68d04fc70b93f9c37c5288e084d9b02d718103f7ad5e292b6889080a2611c23908161006e8239f35b600080fdfe6040608081526004908136101561001557600080fd5b600091823560e01c806302f8fc0a146117785780630bc1b61b1461128b578063107d9ce614611211578063129a51f21461118f5780631a9ba7eb146110ea5780631b65471f14610fed5780631e25ad9514610fa0578063225e707e14610eae57806326b49c9114610dd8578063309c29c214610d8b578063370c24cf14610cb45780634dd8fac814610bb95780635c975abb14610b9257806368fa813414610a955780636b78c29b146109ec57806376be1585146109ae5780638da5cb5b1461098557806391d1485414610926578063953566511461055b578063a95368e4146108d6578063b0553f27146105c6578063be409a111461055b578063c999117614610492578063d6568c6b146103c9578063e932bfed146101d55763f2fde38b1461013f57600080fd5b346101d15760203660031901126101d157610158611953565b60055491906001600160a01b03906101733383861614611b97565b1692831561018e5750506001600160a01b0319161760055580f35b906020606492519162461bcd60e51b8352820152601960248201527f496e76616c6964206e6577206f776e65722061646472657373000000000000006044820152fd5b8280fd5b5090346101d157806003193601126101d15781359167ffffffffffffffff916024358381116103c55761020b90369084016118aa565b923386526020926002845261022560ff8489205416611aa9565b85875260019182855260ff82858a20015460081c161561038957868852828552600384892001918651918211610376575061026a816102648454611969565b84611b41565b84601f82116001146102f057916102c0826102df95937f6b03fa344451e4491297cbd47f7131f89a9ed5087d6a4b899e78c16910c808f0999897958c916102e5575b508160011b916000199060031b1c19161790565b90555b8688528352426005828920015551928284938452830190611a39565b0390a280f35b9050880151386102ac565b82895285892090601f1983168a5b8181106103615750927f6b03fa344451e4491297cbd47f7131f89a9ed5087d6a4b899e78c16910c808f09897969492869492826102df989410610348575b5050811b0190556102c3565b89015160001960f88460031b161c19169055388061033c565b898301518455928601929188019188016102fe565b634e487b7160e01b895260419052602488fd5b835162461bcd60e51b8152808301869052601660248201527514d95d1d1a5b99c8191bd95cc81b9bdd08195e1a5cdd60521b6044820152606490fd5b8580fd5b5090346101d15760203660031901126101d157806104589383358152600160205220918201549060ff61047360058501549260026104668251976104188961041181846119a3565b038a611872565b6104458451916104368361042f81600185016119a3565b0384611872565b61042f865180968193016119a3565b8351998a9960c08b5260c08b0190611a39565b9089820360208b0152611a39565b9187830390880152611a39565b928181161515606086015260081c161515608084015260a08301520390f35b5090346101d15760203660031901126101d1576104ad611953565b6005546001600160a01b0391906104c79083163314611b97565b1691828452600260205260ff8285205416610519575081835260026020528220805460ff191660011790557fe78a1675a4b4d68d04fc70b93f9c37c5288e084d9b02d718103f7ad5e292b6888280a280f35b6020606492519162461bcd60e51b8352820152601860248201527f416c726561647920616e2061646d696e6973747261746f7200000000000000006044820152fd5b50346101d15760203660031901126101d1579181923581528060205220906105c2600260ff845416926105b88151956105a28761059b81600185016119a3565b0388611872565b6105b1835180958193016119a3565b0383611872565b5193849384611a79565b0390f35b508290346108d25760603660031901126108d25780359060249067ffffffffffffffff82358181116103c5576105ff90369084016118aa565b926044358281116108ce5761061790369085016118aa565b923387526020936002855261063160ff8a8a205416611aa9565b86885287855260ff898920541661089757868852878552888820936001948560ff19825416178155858101885183811161088557610673816102648454611969565b888c601f83116001146108205791806106a49260029695949161081557508160011b916000199060031b1c19161790565b90555b01918051918211610803576106c6826106c08554611969565b85611b41565b8690601f83116001146107a4576106f592918b9183610799575b50508160011b916000199060031b1c19161790565b90555b60035492600160401b841015610787578301806003558310156107765750508495846102df9260037fef930b59e196073cf2e704c5400ae8881f0c78187a78675fab553a226cbc22a99798527fc2575a0e9e593c00f959f8c92f12db2869c3395a3b0502d05e2516446f71f85b015551928284938452830190611a39565b634e487b7160e01b87526032905285fd5b50634e487b7160e01b87526041905285fd5b015190508c806106e0565b838b52878b208793929091601f1984168d5b8b8282106107ed57505084116107d4575b505050811b0190556106f8565b015160001960f88460031b161c191690558b80806107c7565b8385015186558b979095019493840193016107b6565b634e487b7160e01b8a5260418452848afd5b90508c0151386102ac565b8381528a8120601f1984169594938b9390928d8f5b89831061086e575050508260029710610855575b5050811b0190556106a7565b8d015160001960f88460031b161c191690558f80610849565b83015184558d959093019291820191018d8f610835565b634e487b7160e01b8c5260418652868cfd5b506013606492858a519362461bcd60e51b855284015282015272526f6c6520616c72656164792065786973747360681b6044820152fd5b8680fd5b5080fd5b50346101d15760203660031901126101d157803590805482101561092257602093527f8a35acfbc15ff81a39ae7d344fd709f28e8600b4aa8c65c6b64bfe7fe36bd19b01549051908152f35b8380fd5b5090346101d157806003193601126101d15760209261094361193d565b9235815280845281812060ff8154169384610964575b505050519015158152f35b6001600160a01b0316825260030184528190205460ff169150388080610959565b5050346108d257816003193601126108d25760055490516001600160a01b039091168152602090f35b5050346108d25760203660031901126108d25760209160ff9082906001600160a01b036109d9611953565b1681526002855220541690519015158152f35b50346101d157826003193601126101d1573383526002602052610a1460ff8385205416611aa9565b6005549160ff8360a01c16610a5d57505060ff60a01b1916600160a01b17600555337fee117a57b842aeedda7c198176d58273eb02763375703a7ccfa663dc06c1cb6a8280a280f35b906020606492519162461bcd60e51b83528201526012602482015271141b185d199bdc9b481a5cc81c185d5cd95960721b6044820152fd5b5090346101d15760203660031901126101d157610ab0611953565b6005546001600160a01b039081169391610acb338614611b97565b16928314610b5a57828452600260205260ff828520541615610b21575081835260026020528220805460ff191690557fd5c9a61a4ab4b84f78da506149b7b0d376843283a81eee2dbdc9a55f988ab6438280a280f35b6020606492519162461bcd60e51b835282015260146024820152732737ba1030b71030b236b4b734b9ba3930ba37b960611b6044820152fd5b6020606492519162461bcd60e51b8352820152601360248201527221b0b73737ba103932b6b7bb329037bbb732b960691b6044820152fd5b5050346108d257816003193601126108d25760209060ff60055460a01c1690519015158152f35b5090346101d157806003193601126101d157813590610bd661193d565b9233855260209060028252610bf060ff8488205416611aa9565b838652858252610c0560ff8488205416611aff565b8386528582528286206001600160a01b0390951680875260039590950182528286205460ff1615610c73575082855284815281852084865260030190528320805460ff191690557f717fc06ae3368e46eeb97b8cace5f04e4732d02f6de122ad357689c1a756edf48380a380f35b915162461bcd60e51b815291820152601960248201527f4d656d62657220646f6573206e6f74206861766520726f6c65000000000000006044820152606490fd5b508234610d8857602091826003193601126108d2578035908183526001845280858420015460ff8160081c169081610d62575b5015610d26575092610d1760038284610d10976105c296526001875220018251958680926119a3565b0385611872565b51928284938452830190611a39565b845162461bcd60e51b8152908101849052601660248201527553657474696e67206e6f742061636365737369626c6560501b6044820152606490fd5b60ff9150168015610d74575b86610ce7565b503383526002845260ff8584205416610d6e565b80fd5b50346101d15760203660031901126101d157356003548110156101d1576003602093527fc2575a0e9e593c00f959f8c92f12db2869c3395a3b0502d05e2516446f71f85b01549051908152f35b50346101d157610de736611857565b92909133855260209060028252610e0360ff8488205416611aa9565b838652858252610e1860ff8488205416611aff565b8386528582528083872001858752825260ff838720541615610e74578386528582528286208587520190528320805460ff191690557fcfe716de1f1499c2334500dd7b1338ae390d9092e221ae3a9663fd263e5cb9798380a380f35b915162461bcd60e51b815291820152601660248201527514195c9b5a5cdcda5bdb881b9bdd0819dc985b9d195960521b6044820152606490fd5b5090346101d15760203660031901126101d15790600160ff610f816003610f73866002610f666005610ef79a610f589c8b3581528a6020522099610efe8b86519d8e80926119a3565b038d611872565b610f188b610f118751809d8193016119a3565b038b611872565b610f2b8b610d10875180978193016119a3565b610f3e8b61059b8751809a8193016119a3565b8a01549901549783519b8c9b60e08d5260e08d0190611a39565b908b820360208d0152611a39565b91898303908a0152611a39565b908682036060880152611a39565b928181161515608086015260081c16151560a084015260c08301520390f35b508290346108d257602092610fb436611857565b939081528085528181209260ff8454169384610fd6575b868585519015158152f35b60ff94508395835201855220541681848080610fcb565b5090346101d157806003193601126101d15781359061100a61193d565b923385526020906002825261102460ff8488205416611aa9565b83865285825261103960ff8488205416611aff565b8386528582528286206001600160a01b0390951680875260039590950182528286205460ff166110a9575082855284815281852084865260030190528320805460ff191660011790557f82807d544fe4b67de30727e16024b36f0fbec78aa11d6266e60a40eeb09b809c8380a380f35b915162461bcd60e51b815291820152601760248201527f4d656d62657220616c72656164792068617320726f6c650000000000000000006044820152606490fd5b50346101d157826003193601126101d157338352600260205261111260ff8385205416611aa9565b6005549160ff8360a01c161561115657505060ff60a01b1916600555337f0a7c6382517057f26f15c04d3e8a2bb9d5f92931eb1f20ca76352b2465a5135b8280a280f35b906020606492519162461bcd60e51b83528201526013602482015272141b185d199bdc9b481b9bdd081c185d5cd959606a1b6044820152fd5b509190346108d257816003193601126108d2578051918284549081815260208091019583527f8a35acfbc15ff81a39ae7d344fd709f28e8600b4aa8c65c6b64bfe7fe36bd19b92905b8282106111fa576105c286866111f0828b0383611872565b5191829182611901565b8354875295860195600193840193909101906111d8565b828434610d885780600319360112610d88578151918291600354808552602080950194600383527fc2575a0e9e593c00f959f8c92f12db2869c3395a3b0502d05e2516446f71f85b92905b828210611274576105c286866111f0828b0383611872565b83548752958601956001938401939091019061125c565b508290346108d25760c03660031901126108d25780359067ffffffffffffffff90602480358381116103c5576112c490369084016118aa565b926044358181116108ce576112dc90369085016118aa565b90606435818111611774576112f490369086016118aa565b906084358181116117705761130c90369087016118aa565b60a4359283151580940361176c5791899593918b97959333885260ff8760209a60028c5261133e83828d205416611aa9565b8d8b5260019a8b8d5220015460081c16611731578a8c528789528c8c20948a5184811161162c57611379816113738954611969565b89611b41565b8a8e6001601f8411146116c5576113a49291826116ba57508160011b916000199060031b1c19161790565b86555b8886019080518581116116a8578e6113c9826113c38654611969565b86611b41565b8c90601f831160011461163e57906113f593836115c15750508160011b916000199060031b1c19161790565b90555b6002850190805184811161162c57611414816106c08554611969565b8a8e6001601f8411146115cc579061144093836115c15750508160011b916000199060031b1c19161790565b90555b8051600385019281116115af5761145e816106c08554611969565b888c601f8311600114611552579061148a93836115475750508160011b916000199060031b1c19161790565b90555b6101008483019160ff835491169061ffff191617179055600542910155815492600160401b841015611535578301808355831015611524575095846102df9287987fd6be47d4903a8b5e9c31a8cec1e007bec8ce56b0bf14867b01925420438f135e9798527f8a35acfbc15ff81a39ae7d344fd709f28e8600b4aa8c65c6b64bfe7fe36bd19b015551928284938452830190611a39565b634e487b7160e01b87526032825286fd5b50634e487b7160e01b87526041825286fd5b015190508e806106e0565b908993601f1984168684528c8420935b8d8282106115995750508411611580575b505050811b01905561148d565b015160001960f88460031b161c191690558d8080611573565b8385015186558d97909501949384019301611562565b634e487b7160e01b8c5260418752858cfd5b0151905038806106e0565b8481528c81208c94909291601f198516908f5b82821061161557505084116115fc575b505050811b019055611443565b015160001960f88460031b161c191690558f80806115ef565b8385015186558f979095019493840193018f6115df565b634e487b7160e01b8e5260418952878efd5b908c938e601f1985169087855280852094905b828210611687575050841161166e575b505050811b0190556113f8565b015160001960f88460031b161c19169055388080611661565b91929395968291958786015181550195019301908f918f9695949392611651565b634e487b7160e01b8f5260418a52888ffd5b90508d0151386102ac565b8b92918e8e601f198516908c855280852094905b82821061170f57505084116116f6575b505050811b0186556113a7565b015160001960f88460031b161c1916905538808e6116e9565b929484849395979892960151815501940192018f90918f928f969594936116d9565b8c5162461bcd60e51b81528088018a90526016818801527553657474696e6720616c72656164792065786973747360501b6044820152606490fd5b8980fd5b8880fd5b8780fd5b50346101d15761178736611857565b929091338552602090600282526117a360ff8488205416611aa9565b8386528582526117b860ff8488205416611aff565b8386528582528083872001858752825260ff8387205416611816578386528582528286208587520190528320805460ff191660011790557f9e955d1a6cf023dbbfab816f0796bf71938df68a465df804653e9961e832adeb8380a380f35b915162461bcd60e51b815291820152601a60248201527f5065726d697373696f6e20616c7265616479206772616e7465640000000000006044820152606490fd5b604090600319011261186d576004359060243590565b600080fd5b90601f8019910116810190811067ffffffffffffffff82111761189457604052565b634e487b7160e01b600052604160045260246000fd5b81601f8201121561186d5780359067ffffffffffffffff821161189457604051926118df601f8401601f191660200185611872565b8284526020838301011161186d57816000926020809301838601378301015290565b602090602060408183019282815285518094520193019160005b828110611929575050505090565b83518552938101939281019260010161191b565b602435906001600160a01b038216820361186d57565b600435906001600160a01b038216820361186d57565b90600182811c92168015611999575b602083101461198357565b634e487b7160e01b600052602260045260246000fd5b91607f1691611978565b8054600093926119b282611969565b91828252602093600191600181169081600014611a1a57506001146119d9575b5050505050565b90939495506000929192528360002092846000945b838610611a06575050505001019038808080806119d2565b8054858701830152940193859082016119ee565b60ff19168685015250505090151560051b0101915038808080806119d2565b919082519283825260005b848110611a65575050826000602080949584010152601f8019910116010190565b602081830181015184830182015201611a44565b91611a9890611aa6949215158452606060208501526060840190611a39565b916040818403910152611a39565b90565b15611ab057565b60405162461bcd60e51b815260206004820152602160248201527f4f6e6c792061646d696e2063616e2063616c6c20746869732066756e6374696f6044820152603760f91b6064820152608490fd5b15611b0657565b60405162461bcd60e51b8152602060048201526013602482015272149bdb1948191bd95cc81b9bdd08195e1a5cdd606a1b6044820152606490fd5b90601f8111611b4f57505050565b6000916000526020600020906020601f850160051c83019410611b8d575b601f0160051c01915b828110611b8257505050565b818155600101611b76565b9092508290611b6d565b15611b9e57565b60405162461bcd60e51b815260206004820152602160248201527f4f6e6c79206f776e65722063616e2063616c6c20746869732066756e6374696f6044820152603760f91b6064820152608490fdfea26469706673582212204407b1308cd34fae612de889d7412b1a3c31ec334477431d500b866473f2ced664736f6c63430008160033",
  "linkReferences": {},
  "deployedLinkReferences": {}
}