{
  "_format": "hh-sol-artifact-1",
  "contractName": "CredentialVerification",
  "sourceName": "contracts/CredentialVerification.sol",
  "abi": [
    {
      "inputs": [
        {
          "internalType": "uint256",
          "name": "_minimumVerifications",
          "type": "uint256"
        }
      ],
      "stateMutability": "nonpayable",
      "type": "constructor"
    },
    {
      "anonymous": false,
      "inputs": [
        {
          "indexed": true,
          "internalType": "address",
          "name": "user",
          "type": "address"
        },
        {
          "indexed": false,
          "internalType": "string",
          "name": "certificateType",
          "type": "string"
        },
        {
          "indexed": false,
          "internalType": "string",
          "name": "certificateHash",
          "type": "string"
        }
      ],
      "name": "CertificateSubmitted",
      "type": "event"
    },
    {
      "anonymous": false,
      "inputs": [
        {
          "indexed": true,
          "internalType": "address",
          "name": "user",
          "type": "address"
        },
        {
          "indexed": false,
          "internalType": "string",
          "name": "certificateType",
          "type": "string"
        },
        {
          "indexed": false,
          "internalType": "address",
          "name": "verifier",
          "type": "address"
        }
      ],
      "name": "CertificateVerified",
      "type": "event"
    },
    {
      "anonymous": false,
      "inputs": [
        {
          "indexed": false,
          "internalType": "uint256",
          "name": "newMinimum",
          "type": "uint256"
        }
      ],
      "name": "MinimumVerificationsUpdated",
      "type": "event"
    },
    {
      "anonymous": false,
      "inputs": [
        {
          "indexed": true,
          "internalType": "address",
          "name": "verifier",
          "type": "address"
        },
        {
          "indexed": false,
          "internalType": "string",
          "name": "organization",
          "type": "string"
        }
      ],
      "name": "VerifierAdded",
      "type": "event"
    },
    {
      "anonymous": false,
      "inputs": [
        {
          "indexed": true,
          "internalType": "address",
          "name": "verifier",
          "type": "address"
        }
      ],
      "name": "VerifierRemoved",
      "type": "event"
    },
    {
      "inputs": [
        {
          "internalType": "uint256",
          "name": "",
          "type": "uint256"
        }
      ],
      "name": "activeVerifierList",
      "outputs": [
        {
          "internalType": "address",
          "name": "",
          "type": "address"
        }
      ],
      "stateMutability": "view",
      "type": "function"
    },
    {
      "inputs": [
        {
          "internalType": "address",
          "name": "_verifier",
          "type": "address"
        },
        {
          "internalType": "string",
          "name": "_organization",
          "type": "string"
        }
      ],
      "name": "addVerifier",
      "outputs": [],
      "stateMutability": "nonpayable",
      "type": "function"
    },
    {
      "inputs": [
        {
          "internalType": "address",
          "name": "_user",
          "type": "address"
        },
        {
          "internalType": "string",
          "name": "_certificateType",
          "type": "string"
        }
      ],
      "name": "fixVerificationCount",
      "outputs": [],
      "stateMutability": "nonpayable",
      "type": "function"
    },
    {
      "inputs": [],
      "name": "getActiveVerifierCount",
      "outputs": [
        {
          "internalType": "uint256",
          "name": "",
          "type": "uint256"
        }
      ],
      "stateMutability": "view",
      "type": "function"
    },
    {
      "inputs": [],
      "name": "getActiveVerifiers",
      "outputs": [
        {
          "internalType": "address[]",
          "name": "",
          "type": "address[]"
        }
      ],
      "stateMutability": "view",
      "type": "function"
    },
    {
      "inputs": [
        {
          "internalType": "address",
          "name": "_user",
          "type": "address"
        },
        {
          "internalType": "string",
          "name": "_certificateType",
          "type": "string"
        }
      ],
      "name": "getCertificateStatus",
      "outputs": [
        {
          "internalType": "bool",
          "name": "exists",
          "type": "bool"
        },
        {
          "internalType": "bool",
          "name": "isVerified",
          "type": "bool"
        },
        {
          "internalType": "string",
          "name": "issuer",
          "type": "string"
        },
        {
          "internalType": "uint256",
          "name": "issueDate",
          "type": "uint256"
        },
        {
          "internalType": "uint256",
          "name": "expiryDate",
          "type": "uint256"
        },
        {
          "internalType": "uint256",
          "name": "currentVerificationCount",
          "type": "uint256"
        }
      ],
      "stateMutability": "view",
      "type": "function"
    },
    {
      "inputs": [
        {
          "internalType": "address",
          "name": "_user",
          "type": "address"
        },
        {
          "internalType": "string",
          "name": "_certificateType",
          "type": "string"
        }
      ],
      "name": "getCertificateVerifiers",
      "outputs": [
        {
          "internalType": "address[]",
          "name": "",
          "type": "address[]"
        },
        {
          "internalType": "bool[]",
          "name": "",
          "type": "bool[]"
        }
      ],
      "stateMutability": "view",
      "type": "function"
    },
    {
      "inputs": [
        {
          "internalType": "address",
          "name": "_contractor",
          "type": "address"
        }
      ],
      "name": "getContractorScore",
      "outputs": [
        {
          "internalType": "uint256",
          "name": "",
          "type": "uint256"
        }
      ],
      "stateMutability": "view",
      "type": "function"
    },
    {
      "inputs": [
        {
          "internalType": "address",
          "name": "_user",
          "type": "address"
        }
      ],
      "name": "getUserCertificates",
      "outputs": [
        {
          "internalType": "string[]",
          "name": "",
          "type": "string[]"
        }
      ],
      "stateMutability": "view",
      "type": "function"
    },
    {
      "inputs": [
        {
          "internalType": "address",
          "name": "_verifier",
          "type": "address"
        }
      ],
      "name": "getVerifierInfo",
      "outputs": [
        {
          "internalType": "bool",
          "name": "isActive",
          "type": "bool"
        },
        {
          "internalType": "string",
          "name": "organization",
          "type": "string"
        },
        {
          "internalType": "uint256",
          "name": "verificationCount",
          "type": "uint256"
        }
      ],
      "stateMutability": "view",
      "type": "function"
    },
    {
      "inputs": [
        {
          "internalType": "address",
          "name": "_user",
          "type": "address"
        },
        {
          "internalType": "string",
          "name": "_certificateType",
          "type": "string"
        },
        {
          "internalType": "address",
          "name": "_verifier",
          "type": "address"
        }
      ],
      "name": "hasVerifierApproved",
      "outputs": [
        {
          "internalType": "bool",
          "name": "",
          "type": "bool"
        }
      ],
      "stateMutability": "view",
      "type": "function"
    },
    {
      "inputs": [
        {
          "internalType": "address",
          "name": "_contractor",
          "type": "address"
        }
      ],
      "name": "isVerifiedContractor",
      "outputs": [
        {
          "internalType": "bool",
          "name": "",
          "type": "bool"
        }
      ],
      "stateMutability": "view",
      "type": "function"
    },
    {
      "inputs": [
        {
          "internalType": "address",
          "name": "_supervisor",
          "type": "address"
        }
      ],
      "name": "isVerifiedSupervisor",
      "outputs": [
        {
          "internalType": "bool",
          "name": "",
          "type": "bool"
        }
      ],
      "stateMutability": "view",
      "type": "function"
    },
    {
      "inputs": [
        {
          "internalType": "address",
          "name": "_validator",
          "type": "address"
        }
      ],
      "name": "isVerifiedValidator",
      "outputs": [
        {
          "internalType": "bool",
          "name": "",
          "type": "bool"
        }
      ],
      "stateMutability": "view",
      "type": "function"
    },
    {
      "inputs": [],
      "name": "minimumVerifications",
      "outputs": [
        {
          "internalType": "uint256",
          "name": "",
          "type": "uint256"
        }
      ],
      "stateMutability": "view",
      "type": "function"
    },
    {
      "inputs": [],
      "name": "owner",
      "outputs": [
        {
          "internalType": "address",
          "name": "",
          "type": "address"
        }
      ],
      "stateMutability": "view",
      "type": "function"
    },
    {
      "inputs": [
        {
          "internalType": "address",
          "name": "_verifier",
          "type": "address"
        }
      ],
      "name": "removeVerifier",
      "outputs": [],
      "stateMutability": "nonpayable",
      "type": "function"
    },
    {
      "inputs": [
        {
          "internalType": "uint256",
          "name": "_newMinimum",
          "type": "uint256"
        }
      ],
      "name": "setMinimumVerifications",
      "outputs": [],
      "stateMutability": "nonpayable",
      "type": "function"
    },
    {
      "inputs": [
        {
          "internalType": "string",
          "name": "_certificateType",
          "type": "string"
        },
        {
          "internalType": "string",
          "name": "_certificateHash",
          "type": "string"
        },
        {
          "internalType": "string",
          "name": "_issuer",
          "type": "string"
        },
        {
          "internalType": "uint256",
          "name": "_issueDate",
          "type": "uint256"
        },
        {
          "internalType": "uint256",
          "name": "_expiryDate",
          "type": "uint256"
        }
      ],
      "name": "submitCertificate",
      "outputs": [],
      "stateMutability": "nonpayable",
      "type": "function"
    },
    {
      "inputs": [
        {
          "internalType": "address",
          "name": "",
          "type": "address"
        },
        {
          "internalType": "uint256",
          "name": "",
          "type": "uint256"
        }
      ],
      "name": "userCertificateTypes",
      "outputs": [
        {
          "internalType": "string",
          "name": "",
          "type": "string"
        }
      ],
      "stateMutability": "view",
      "type": "function"
    },
    {
      "inputs": [
        {
          "internalType": "address",
          "name": "",
          "type": "address"
        },
        {
          "internalType": "string",
          "name": "",
          "type": "string"
        }
      ],
      "name": "userCertificates",
      "outputs": [
        {
          "internalType": "string",
          "name": "certificateHash",
          "type": "string"
        },
        {
          "internalType": "string",
          "name": "issuer",
          "type": "string"
        },
        {
          "internalType": "uint256",
          "name": "issueDate",
          "type": "uint256"
        },
        {
          "internalType": "uint256",
          "name": "expiryDate",
          "type": "uint256"
        },
        {
          "internalType": "bool",
          "name": "isVerified",
          "type": "bool"
        },
        {
          "internalType": "string",
          "name": "certificateType",
          "type": "string"
        },
        {
          "internalType": "uint256",
          "name": "verificationCount",
          "type": "uint256"
        }
      ],
      "stateMutability": "view",
      "type": "function"
    },
    {
      "inputs": [
        {
          "internalType": "address",
          "name": "",
          "type": "address"
        }
      ],
      "name": "verifierIndex",
      "outputs": [
        {
          "internalType": "uint256",
          "name": "",
          "type": "uint256"
        }
      ],
      "stateMutability": "view",
      "type": "function"
    },
    {
      "inputs": [
        {
          "internalType": "address",
          "name": "",
          "type": "address"
        }
      ],
      "name": "verifiers",
      "outputs": [
        {
          "internalType": "bool",
          "name": "isActive",
          "type": "bool"
        },
        {
          "internalType": "string",
          "name": "organization",
          "type": "string"
        },
        {
          "internalType": "uint256",
          "name": "verificationCount",
          "type": "uint256"
        }
      ],
      "stateMutability": "view",
      "type": "function"
    },
    {
      "inputs": [
        {
          "internalType": "address",
          "name": "_user",
          "type": "address"
        },
        {
          "internalType": "string",
          "name": "_certificateType",
          "type": "string"
        }
      ],
      "name": "verifyCertificate",
      "outputs": [],
      "stateMutability": "nonpayable",
      "type": "function"
    }
  ],
  "bytecode": "0x608034620002bd57601f1962001ebe38819003601f81018316840193926001600160401b0392909184861084871117620002a75780859260409788528339602094859181010312620002bd57519060018060a01b0319913383600554161760055560065584519085820182811085821117620002a7578652600e82526d21b7b73a3930b1ba1027bbb732b960911b858301528551906060820182811086821117620002a7578752600192838352868301908152878301906000968783523388528589528988209451151560ff801987541691161785558585019151938451918211620002935782548781811c9116801562000288575b8b8210146200027457601f811162000229575b508990601f8311600114620001c4575081906002958a92620001b8575b5050600019600383901b1c191690861b1790555b519101556003549068010000000000000000821015620001a457810180600355811015620001905790829160038694528483200190339082541617905560046003549333835252205551611bfb9081620002c38239f35b634e487b7160e01b83526032600452602483fd5b634e487b7160e01b84526041600452602484fd5b01519050388062000125565b838a528a8a20889392909183168b5b8d82821062000212575050968360029810620001f8575b505050811b01905562000139565b015160001960f88460031b161c19169055388080620001ea565b838a015185558b96909401939283019201620001d3565b838a528a8a20601f840160051c8101918c851062000269575b601f0160051c019088905b8281106200025d57505062000108565b8b81550188906200024d565b909150819062000242565b634e487b7160e01b8a52602260045260248afd5b90607f1690620000f5565b634e487b7160e01b89526041600452602489fd5b634e487b7160e01b600052604160045260246000fd5b600080fdfe6040608081526004908136101561001557600080fd5b600091823560e01c9081630385bd18146114d95781630e65bc351461140657816332cc82b31461119d57816345eaa9b71461108357816349693d0a1461103157816354a53ffc14610ffb57816358a59b5914610f185781636baec21514610ee75781636c5c67bd14610dc05781636c82448714610d6b57816370d3c73a14610aca5781637340792a1461090a57816378e1e5a41461086a5781637c43fee71461080f57816388937fb0146107e05781638da5cb5b146107b7578163951e75c514610798578163a3e0851d14610744578163b20f7a34146104a0578163b55b7aa714610481578163ca2dfd0a14610282578163e78042ca14610241578163f43c0637146101b8575063f9052c6c1461012b57600080fd5b346101b45760203660031901126101b45760209061018461014a6115b6565b82519061015682611619565b601782527f76616c696461746f725f63657274696669636174696f6e0000000000000000008583015261198b565b5092915050829392936101ac575b50826101a2575b50519015158152f35b4210915083610199565b925084610192565b5080fd5b82843461023e578160031936011261023e576101d26115b6565b6001600160a01b0316815260026020528181208054602435919082101561023a57906101fd91611894565b939093610228576102248361021186611741565b90519182916020835260208301906115f4565b0390f35b634e487b7160e01b8252819052602490fd5b8280fd5b80fd5b90503461023a57602036600319011261023a57359160035483101561023e575061026c602092611847565b60018060a01b0391549060031b1c169051908152f35b8383346101b4576020908160031936011261023a5761029f6115b6565b6005546001600160a01b03959186916102bb9083163314611935565b16928385526001815260ff8386205416156104415783855260018152828520805460ff1916905581815282852054600019969087810181811161042e5760035490818110156103eb578982019182116103d857908181859310610388575b50505050600354968715610375578697969596019061033782611847565b909182549160031b1b19169055600355848452528120557f44a3cd4eb5cc5748f6169df057b1cb2ae4c383e87cd94663c430e095d4cba4248280a280f35b634e487b7160e01b875260318452602487fd5b6103a8926103986103c693611847565b90549060031b1c16928391611847565b90919060018060a01b038084549260031b9316831b921b1916179055565b87528383528487205587818180610319565b634e487b7160e01b895260118652602489fd5b865162461bcd60e51b8152808701869052601c60248201527f566572696669657220696e646578206f7574206f6620626f756e6473000000006044820152606490fd5b634e487b7160e01b885260118552602488fd5b606492519162461bcd60e51b8352820152601760248201527f566572696669657220646f6573206e6f742065786973740000000000000000006044820152fd5b5050346101b457816003193601126101b4576020906003549051908152f35b8383346101b4576020918260031936011261023e576104bd6115b6565b6001600160a01b0381168252600284528282208054919492938493926104e2816118ac565b926104ef8351948561164b565b81845285528385208590858086015b848410610726575050505050835b825181101561071d576105296105228285611a70565b518861198b565b509291505082610715575b508161070b575b50610549575b60010161050c565b946105548684611a70565b51848151910120610563611b97565b80519086012003610598576032810180911161058557600190955b9050610541565b634e487b7160e01b855260118852602485fd5b6105a28684611a70565b518481519101207f48b602bcf3f8c99c7ad71972f17750f988a6195bff26a97b14c8e89f37c6db2e8351916105d683611619565b7339b0b332ba3cafb1b2b93a34b334b1b0ba34b7b760611b87601494858152015214600014610611578101809111610585576001909561057e565b507ff021a160dcbe45ed6ec9bdfbcdedaaf5cf0f52a42914f583f17cbca78bec29e361063d8785611a70565b518581519101207438bab0b634ba3cafb1b2b93a34b334b1b0ba34b7b760591b86855161066981611619565b6015815201520361068857600f8101809111610585576001909561057e565b7fe5a16e650ae510e26b1285c50f77da93b6051fdad621b29e1a41897e8100f6076106b38785611a70565b518581519101206d39b832b1b4b0b634bd30ba34b7b760911b8685516106d881611619565b600e81520152036106f75760198101809111610585576001909561057e565b600a8101809111610585576001909561057e565b905042108961053b565b91508a610534565b83868351908152f35b600191829161073485611741565b81520192019201919086906104fe565b5050346101b45760203660031901126101b4579081906001600160a01b0361076a6115b6565b16815260016020522061022460ff8254169161078d600160028301549201611741565b935193849384611823565b5050346101b457816003193601126101b4576020906006549051908152f35b5050346101b457816003193601126101b45760055490516001600160a01b039091168152602090f35b5050346101b45760203660031901126101b4576020906101846108016115b6565b610809611b97565b9061198b565b5050346101b45760203660031901126101b4576020906101846108306115b6565b82519061083c82611619565b601882527f73757065727669736f725f63657274696669636174696f6e00000000000000008583015261198b565b90503461023a57606036600319011261023a576108856115b6565b906024359067ffffffffffffffff8211610906576108a59136910161166d565b6001600160a01b036044358181169390849003610902579260066108e76020879581999560ff98168652858252868620828851948386809551938492016115d1565b82019081520301902001908252855220541690519015158152f35b8580fd5b8480fd5b8383346101b45761091a366116c4565b9060018060a01b0361093181600554163314611935565b8116928385526020916001835260ff8287205416610a87578415610a445781516060810181811067ffffffffffffffff821117610a315783526001815260028482018681526109ad858401918a8352898b52600188526109a3878c2095511515869060ff801983541691151516179055565b5160018501611a84565b51910155600354600160401b811015610a1e57966109fc610a1893926103a88a60017f30b5eb94a54f18a967aed7e72caf39194d0f0ba44ed3fed9febc2f35555611589a9b9c01600355611847565b60035490878952845281882055519282849384528301906115f4565b0390a280f35b634e487b7160e01b875260418852602487fd5b634e487b7160e01b885260418952602488fd5b815162461bcd60e51b8152808801849052601860248201527f496e76616c6964207665726966696572206164647265737300000000000000006044820152606490fd5b815162461bcd60e51b8152808801849052601760248201527f566572696669657220616c7265616479206578697374730000000000000000006044820152606490fd5b8383346101b45760a03660031901126101b45767ffffffffffffffff908335828111610d6757610afd903690860161166d565b90602494853584811161090257610b17903690830161166d565b9360443590811161090257610b2f903690830161166d565b60643560843591865115610d255782821015610cee57855115610cac573388528760205284882060208651809282610b6d8b848151938492016115d1565b82019081520301902098610b818a54611707565b15610c11575b507f625b5780797cc520a00cfe1691d53fed88c344abdf19cb1995c7860a4d4986cb9594938893600793610bc98c94610bc08c87611a84565b60018601611a84565b60028401556003830155610be08660058401611a84565b810160ff1981541690550155610a18610c0282519383859485528401906115f4565b828103602084015233956115f4565b3389526002602052858920805490600160401b821015610c9a5790610c3b91600182018155611894565b919091610c8a575092889992610bc97f625b5780797cc520a00cfe1691d53fed88c344abdf19cb1995c7860a4d4986cb999a9693610c7b8a600798611a84565b93965050929998975092610b87565b634e487b7160e01b8a5289865289fd5b634e487b7160e01b8b5260418752828bfd5b845162461bcd60e51b81526020818601819052818b01527f436572746966696361746520747970652063616e6e6f7420626520656d7074796044820152606490fd5b845162461bcd60e51b81526020818601526012818b015271496e76616c696420646174652072616e676560701b6044820152606490fd5b845162461bcd60e51b81526020818601819052818b01527f436572746966696361746520686173682063616e6e6f7420626520656d7074796044820152606490fd5b8380fd5b5050346101b45760203660031901126101b4579081906001600160a01b03610d916115b6565b1681526001602052209061022460ff835416916002610db260018601611741565b940154905193849384611823565b82843461023e57610dd0366116c4565b9160018060a01b038092168152610dfc60208094838252868420828851948386809551938492016115d1565b820190815203019020610e19610e128254611707565b15156118c4565b610e216119f9565b93845193610e46610e31866118ac565b95610e3e8951978861164b565b8087526118ac565b8583019690601f19013688376006859401935b8151811015610e93578083610e7060019385611a70565b5116875285855260ff8a88205416610e88828a611a70565b901515905201610e59565b5096959492505080610eae86519787899889528801906117e6565b928684038288015251928381520193925b828110610ece57505050500390f35b8351151585528695509381019392810192600101610ebf565b5050346101b457816003193601126101b45761022490610f056119f9565b90519182916020835260208301906117e6565b8383346101b457610f28366116c4565b6005546001600160a01b0395928691610f449083163314611935565b168452610f6660208092868252858720828751948386809551938492016115d1565b82019081520301902092610f7d610e128554611707565b849185906003976003549860068801935b8a8110610fbd5789610fba8a8a8a806007840155600654111591019060ff801983541691151516179055565b80f35b82610fc782611847565b905490841b1c168a5284845260ff868b205416610fe7575b600101610f8e565b95610ff3600191611910565b969050610fdf565b90503461023a57602036600319011261023a5760209282916001600160a01b036110236115b6565b168252845220549051908152f35b82843461023e575061106f60c061104a610809366116c4565b94969291959093978051988998151589521515602089015287015260c08601906115f4565b926060850152608084015260a08301520390f35b9190503461023a57602036600319011261023a578135916110af60018060a01b03600554163314611935565b82156111465760035483116110f05750816020917f064be13595bad63e4ac6e8e696aae544ef91cb9841edcef6ce7ba0ae051e34b79360065551908152a180f35b6020608492519162461bcd60e51b8352820152602b60248201527f4d696e696d756d2063616e6e6f7420657863656564206163746976652076657260448201526a1a599a595c8818dbdd5b9d60aa1b6064820152fd5b6020608492519162461bcd60e51b8352820152602c60248201527f4d696e696d756d20766572696669636174696f6e73206d75737420626520677260448201526b06561746572207468616e20360a41b6064820152fd5b8383346101b4576111ad366116c4565b90913384526020926001845260ff8286205416156113ae5760018060a01b031692838552848152818520818351809286516111eb8184868b016115d1565b82019081520301902095611202610e128854611707565b600687019633875287835260ff8488205416611362576003810154421015611320578181019160ff8354166112cf57507f32af38bc8eb9616205b5aca984a96332f33396705c385d4d436e5f5c4c00fb5c959697338952835260078489209160ff1992600184825416179055016112798154611910565b8155338952600184526002858a20016112928154611910565b90555460065411156112c0575b50506112b482519383859485528401906115f4565b9033908301520390a280f35b8154166001179055868061129f565b845162461bcd60e51b8152908101849052602560248201527f436572746966696361746520697320616c72656164792066756c6c79207665726044820152641a599a595960da1b6064820152608490fd5b50915162461bcd60e51b815291820152601760248201527f43657274696669636174652068617320657870697265640000000000000000006044820152606490fd5b50915162461bcd60e51b815291820152602160248201527f416c7265616479207665726966696564206279207468697320766572696669656044820152603960f91b6064820152608490fd5b815162461bcd60e51b8152808701859052602c60248201527f4f6e6c7920616374697665207665726966696572732063616e2063616c6c207460448201526b3434b990333ab731ba34b7b760a11b6064820152608490fd5b90503461023a576114cf61144860206114a49585611423366116c4565b6001600160a01b039091168352828452912086518251909485938290859087016115d1565b8201908152030190209261145b84611741565b9361146860018201611741565b9360028201549060ff60038401549184015416916114b2600761148d60058701611741565b9501549786519a8b9a60e08c5260e08c01906115f4565b908a820360208c01526115f4565b9488015260608701521515608086015284820360a08601526115f4565b9060c08301520390f35b82843461023e576020806003193601126101b457906001600160a01b036114fe6115b6565b16815260028252828120908154611514816118ac565b906115218651928361164b565b8082528482018094845285842084915b83831061159257505050508451938085019181865251809252858501958260051b8601019392955b8287106115665785850386f35b909192938280611582600193603f198a820301865288516115f4565b9601920196019592919092611559565b60018881926115a4859b98999b611741565b81520192019201919096949396611531565b600435906001600160a01b03821682036115cc57565b600080fd5b60005b8381106115e45750506000910152565b81810151838201526020016115d4565b9060209161160d815180928185528580860191016115d1565b601f01601f1916010190565b6040810190811067ffffffffffffffff82111761163557604052565b634e487b7160e01b600052604160045260246000fd5b90601f8019910116810190811067ffffffffffffffff82111761163557604052565b81601f820112156115cc5780359067ffffffffffffffff821161163557604051926116a2601f8401601f19166020018561164b565b828452602083830101116115cc57816000926020809301838601378301015290565b9060406003198301126115cc576004356001600160a01b03811681036115cc57916024359067ffffffffffffffff82116115cc576117049160040161166d565b90565b90600182811c92168015611737575b602083101461172157565b634e487b7160e01b600052602260045260246000fd5b91607f1691611716565b9060405191826000825461175481611707565b908184526020946001916001811690816000146117c45750600114611785575b5050506117839250038361164b565b565b600090815285812095935091905b8183106117ac5750506117839350820101388080611774565b85548884018501529485019487945091830191611793565b9250505061178394925060ff191682840152151560051b820101388080611774565b90815180825260208080930193019160005b828110611806575050505090565b83516001600160a01b0316855293810193928101926001016117f8565b93929161184290604092151586526060602087015260608601906115f4565b930152565b60035481101561187e5760036000527fc2575a0e9e593c00f959f8c92f12db2869c3395a3b0502d05e2516446f71f85b0190600090565b634e487b7160e01b600052603260045260246000fd5b805482101561187e5760005260206000200190600090565b67ffffffffffffffff81116116355760051b60200190565b156118cb57565b60405162461bcd60e51b815260206004820152601a60248201527f436572746966696361746520646f6573206e6f742065786973740000000000006044820152606490fd5b600019811461191f5760010190565b634e487b7160e01b600052601160045260246000fd5b1561193c57565b60405162461bcd60e51b815260206004820152602160248201527f4f6e6c79206f776e65722063616e2063616c6c20746869732066756e6374696f6044820152603760f91b6064820152608490fd5b6119b99160209160018060a01b031660005260008252604060002082604051948386809551938492016115d1565b820190815203019020906119cd8254611707565b15159160ff600482015416916119e560018301611741565b916002810154916007600383015492015490565b6040519060035480835282602091602082019060036000527fc2575a0e9e593c00f959f8c92f12db2869c3395a3b0502d05e2516446f71f85b936000905b828210611a4d575050506117839250038361164b565b85546001600160a01b031684526001958601958895509381019390910190611a37565b805182101561187e5760209160051b010190565b919091825167ffffffffffffffff811161163557611aa28254611707565b601f8111611b4d575b50602080601f8311600114611ae8575081929394600092611add575b50508160011b916000199060031b1c1916179055565b015190503880611ac7565b90601f19831695846000526020600020926000905b888210611b3557505083600195969710611b1c575b505050811b019055565b015160001960f88460031b161c19169055388080611b12565b80600185968294968601518155019501930190611afd565b6000836000526020600020601f840160051c81019260208510611b8d575b601f0160051c01915b828110611b82575050611aab565b818155600101611b74565b9092508290611b6b565b60405190611ba482611619565b6012825271636f6e74726163746f725f6c6963656e736560701b602083015256fea26469706673582212207ee24e04fd979562c9e1b8d64a1b98adecb5361f08fce673ea8d884d0028f35564736f6c63430008160033",
  "linkReferences": {},
  "deployedLinkReferences": {}
}