{
  "_format": "hh-sol-artifact-1",
  "contractName": "AuditLog",
  "sourceName": "contracts/AuditLog.sol",
  "abi": [
    {
      "inputs": [],
      "stateMutability": "nonpayable",
      "type": "constructor"
    },
    {
      "anonymous": false,
      "inputs": [
        {
          "indexed": true,
          "internalType": "uint256",
          "name": "logId",
          "type": "uint256"
        },
        {
          "indexed": true,
          "internalType": "address",
          "name": "actor",
          "type": "address"
        },
        {
          "indexed": false,
          "internalType": "string",
          "name": "eventType",
          "type": "string"
        },
        {
          "indexed": false,
          "internalType": "enum AuditLog.LogCategory",
          "name": "category",
          "type": "uint8"
        }
      ],
      "name": "LogAdded",
      "type": "event"
    },
    {
      "inputs": [
        {
          "internalType": "address",
          "name": "_logger",
          "type": "address"
        }
      ],
      "name": "addAuthorizedLogger",
      "outputs": [],
      "stateMutability": "nonpayable",
      "type": "function"
    },
    {
      "inputs": [
        {
          "internalType": "address",
          "name": "_actor",
          "type": "address"
        },
        {
          "internalType": "string",
          "name": "_eventType",
          "type": "string"
        },
        {
          "internalType": "string",
          "name": "_details",
          "type": "string"
        },
        {
          "internalType": "enum AuditLog.LogCategory",
          "name": "_category",
          "type": "uint8"
        }
      ],
      "name": "addLog",
      "outputs": [
        {
          "internalType": "uint256",
          "name": "",
          "type": "uint256"
        }
      ],
      "stateMutability": "nonpayable",
      "type": "function"
    },
    {
      "inputs": [
        {
          "internalType": "uint256",
          "name": "_logId",
          "type": "uint256"
        },
        {
          "internalType": "string",
          "name": "_key",
          "type": "string"
        },
        {
          "internalType": "string",
          "name": "_value",
          "type": "string"
        }
      ],
      "name": "addLogMetadata",
      "outputs": [],
      "stateMutability": "nonpayable",
      "type": "function"
    },
    {
      "inputs": [
        {
          "internalType": "address",
          "name": "",
          "type": "address"
        }
      ],
      "name": "authorizedLoggers",
      "outputs": [
        {
          "internalType": "bool",
          "name": "",
          "type": "bool"
        }
      ],
      "stateMutability": "view",
      "type": "function"
    },
    {
      "inputs": [
        {
          "internalType": "enum AuditLog.LogCategory",
          "name": "",
          "type": "uint8"
        },
        {
          "internalType": "uint256",
          "name": "",
          "type": "uint256"
        }
      ],
      "name": "categoryLogs",
      "outputs": [
        {
          "internalType": "uint256",
          "name": "",
          "type": "uint256"
        }
      ],
      "stateMutability": "view",
      "type": "function"
    },
    {
      "inputs": [
        {
          "internalType": "string",
          "name": "",
          "type": "string"
        },
        {
          "internalType": "uint256",
          "name": "",
          "type": "uint256"
        }
      ],
      "name": "eventTypeLogs",
      "outputs": [
        {
          "internalType": "uint256",
          "name": "",
          "type": "uint256"
        }
      ],
      "stateMutability": "view",
      "type": "function"
    },
    {
      "inputs": [],
      "name": "getLogCount",
      "outputs": [
        {
          "internalType": "uint256",
          "name": "",
          "type": "uint256"
        }
      ],
      "stateMutability": "view",
      "type": "function"
    },
    {
      "inputs": [
        {
          "internalType": "uint256",
          "name": "_logId",
          "type": "uint256"
        },
        {
          "internalType": "string",
          "name": "_key",
          "type": "string"
        }
      ],
      "name": "getLogMetadata",
      "outputs": [
        {
          "internalType": "string",
          "name": "",
          "type": "string"
        }
      ],
      "stateMutability": "view",
      "type": "function"
    },
    {
      "inputs": [
        {
          "internalType": "uint256",
          "name": "_logId",
          "type": "uint256"
        }
      ],
      "name": "getLogMetadataKeys",
      "outputs": [
        {
          "internalType": "string[]",
          "name": "",
          "type": "string[]"
        }
      ],
      "stateMutability": "view",
      "type": "function"
    },
    {
      "inputs": [
        {
          "internalType": "uint256",
          "name": "_logId",
          "type": "uint256"
        }
      ],
      "name": "getLogSummary",
      "outputs": [
        {
          "components": [
            {
              "internalType": "uint256",
              "name": "timestamp",
              "type": "uint256"
            },
            {
              "internalType": "address",
              "name": "actor",
              "type": "address"
            },
            {
              "internalType": "string",
              "name": "eventType",
              "type": "string"
            },
            {
              "internalType": "string",
              "name": "details",
              "type": "string"
            },
            {
              "internalType": "bytes32",
              "name": "transactionHash",
              "type": "bytes32"
            },
            {
              "internalType": "enum AuditLog.LogCategory",
              "name": "category",
              "type": "uint8"
            }
          ],
          "internalType": "struct AuditLog.LogSummary",
          "name": "",
          "type": "tuple"
        }
      ],
      "stateMutability": "view",
      "type": "function"
    },
    {
      "inputs": [
        {
          "internalType": "enum AuditLog.LogCategory",
          "name": "_category",
          "type": "uint8"
        }
      ],
      "name": "getLogsByCategory",
      "outputs": [
        {
          "components": [
            {
              "internalType": "uint256",
              "name": "timestamp",
              "type": "uint256"
            },
            {
              "internalType": "address",
              "name": "actor",
              "type": "address"
            },
            {
              "internalType": "string",
              "name": "eventType",
              "type": "string"
            },
            {
              "internalType": "string",
              "name": "details",
              "type": "string"
            },
            {
              "internalType": "bytes32",
              "name": "transactionHash",
              "type": "bytes32"
            },
            {
              "internalType": "enum AuditLog.LogCategory",
              "name": "category",
              "type": "uint8"
            }
          ],
          "internalType": "struct AuditLog.LogSummary[]",
          "name": "",
          "type": "tuple[]"
        }
      ],
      "stateMutability": "view",
      "type": "function"
    },
    {
      "inputs": [
        {
          "internalType": "string",
          "name": "_eventType",
          "type": "string"
        }
      ],
      "name": "getLogsByEventType",
      "outputs": [
        {
          "components": [
            {
              "internalType": "uint256",
              "name": "timestamp",
              "type": "uint256"
            },
            {
              "internalType": "address",
              "name": "actor",
              "type": "address"
            },
            {
              "internalType": "string",
              "name": "eventType",
              "type": "string"
            },
            {
              "internalType": "string",
              "name": "details",
              "type": "string"
            },
            {
              "internalType": "bytes32",
              "name": "transactionHash",
              "type": "bytes32"
            },
            {
              "internalType": "enum AuditLog.LogCategory",
              "name": "category",
              "type": "uint8"
            }
          ],
          "internalType": "struct AuditLog.LogSummary[]",
          "name": "",
          "type": "tuple[]"
        }
      ],
      "stateMutability": "view",
      "type": "function"
    },
    {
      "inputs": [
        {
          "internalType": "address",
          "name": "_user",
          "type": "address"
        }
      ],
      "name": "getLogsByUser",
      "outputs": [
        {
          "components": [
            {
              "internalType": "uint256",
              "name": "timestamp",
              "type": "uint256"
            },
            {
              "internalType": "address",
              "name": "actor",
              "type": "address"
            },
            {
              "internalType": "string",
              "name": "eventType",
              "type": "string"
            },
            {
              "internalType": "string",
              "name": "details",
              "type": "string"
            },
            {
              "internalType": "bytes32",
              "name": "transactionHash",
              "type": "bytes32"
            },
            {
              "internalType": "enum AuditLog.LogCategory",
              "name": "category",
              "type": "uint8"
            }
          ],
          "internalType": "struct AuditLog.LogSummary[]",
          "name": "",
          "type": "tuple[]"
        }
      ],
      "stateMutability": "view",
      "type": "function"
    },
    {
      "inputs": [
        {
          "internalType": "address",
          "name": "_logger",
          "type": "address"
        }
      ],
      "name": "isAuthorizedLogger",
      "outputs": [
        {
          "internalType": "bool",
          "name": "",
          "type": "bool"
        }
      ],
      "stateMutability": "view",
      "type": "function"
    },
    {
      "inputs": [],
      "name": "logCount",
      "outputs": [
        {
          "internalType": "uint256",
          "name": "",
          "type": "uint256"
        }
      ],
      "stateMutability": "view",
      "type": "function"
    },
    {
      "inputs": [
        {
          "internalType": "uint256",
          "name": "",
          "type": "uint256"
        }
      ],
      "name": "logs",
      "outputs": [
        {
          "internalType": "uint256",
          "name": "timestamp",
          "type": "uint256"
        },
        {
          "internalType": "address",
          "name": "actor",
          "type": "address"
        },
        {
          "internalType": "string",
          "name": "eventType",
          "type": "string"
        },
        {
          "internalType": "string",
          "name": "details",
          "type": "string"
        },
        {
          "internalType": "bytes32",
          "name": "transactionHash",
          "type": "bytes32"
        },
        {
          "internalType": "enum AuditLog.LogCategory",
          "name": "category",
          "type": "uint8"
        }
      ],
      "stateMutability": "view",
      "type": "function"
    },
    {
      "inputs": [],
      "name": "owner",
      "outputs": [
        {
          "internalType": "address",
          "name": "",
          "type": "address"
        }
      ],
      "stateMutability": "view",
      "type": "function"
    },
    {
      "inputs": [
        {
          "internalType": "address",
          "name": "_logger",
          "type": "address"
        }
      ],
      "name": "removeAuthorizedLogger",
      "outputs": [],
      "stateMutability": "nonpayable",
      "type": "function"
    },
    {
      "inputs": [
        {
          "internalType": "address",
          "name": "",
          "type": "address"
        },
        {
          "internalType": "uint256",
          "name": "",
          "type": "uint256"
        }
      ],
      "name": "userLogs",
      "outputs": [
        {
          "internalType": "uint256",
          "name": "",
          "type": "uint256"
        }
      ],
      "stateMutability": "view",
      "type": "function"
    }
  ],
  "bytecode": "0x6080806040523461004457600580546001600160a01b031916339081179091556000908152600660205260409020805460ff191660011790556111fe908161004a8239f35b600080fdfe6040608081526004908136101561001557600080fd5b600091823560e01c806218141914610af257806327d4994214610aa55780632801e43a146101de57806346044c61146109c457806350862c2b1461095957806357533f0114610911578063618033db1461069c5780637000dae8146108485780637bbee708146107d35780637ee02da6146106e45780638da5cb5b146106bb578063a503898f1461069c578063a8ff54e4146105ad578063b55ddac3146103e7578063c8e781611461035c578063d8675f5014610220578063e1437f0f146101de578063e79899bd146101445763eeeba905146100f157600080fd5b346101405781600319360112610140573591600883101561013d5761011860243593610eca565b90815484101561013d575060209261012f91610dbd565b91905490519160031b1c8152f35b80fd5b8280fd5b50913461013d57602036600319011261013d5781908335815280602052206101da8154926101ca60018060a01b03600185015416956101bc61018860028701610e25565b60c060ff600561019a60038b01610e25565b958a0154990154169580519a8b9a8b5260208b015289015260c0880190610bc1565b908682036060880152610bc1565b92608085015260a0840190610be6565b0390f35b50503461021c57602036600319011261021c5760209160ff9082906001600160a01b03610209610c6d565b1681526006855220541690519015158152f35b5080fd5b5091903461021c57606036600319011261021c5782359067ffffffffffffffff90602435828111610358576102589036908701610cdc565b91604435908111610358576102709036908701610cdc565b9260018060a01b036005541633148015610343575b61028e90611034565b61029b6001548210610f15565b84528360205283209060068201916102bc6102b68484610d97565b54610deb565b156102d9575b506102d692916102d191610d97565b611080565b80f35b600701805490600160401b82101561033057906102fb91600182018155610dbd565b61031e576102d694955090610314816102d19493611080565b90918594506102c2565b634e487b7160e01b8552848652602485fd5b634e487b7160e01b865260418752602486fd5b5033855260066020528185205460ff16610285565b8480fd5b503461014057602036600319011261014057610376610c6d565b6005546001600160a01b039081169291610391338514610f62565b169182146103ae5750825260066020528120805460ff1916905580f35b606490602084519162461bcd60e51b8352820152601360248201527221b0b73737ba103932b6b7bb329037bbb732b960691b6044820152fd5b5091903461021c57608036600319011261021c57610403610c6d565b67ffffffffffffffff602435818111610358576104239036908701610cdc565b906044359081116103585761043b9036908701610cdc565b946064359060088210156105a9576005546001600160a01b039690871633148015610594575b61046a90611034565b6001549660001980891461058157600189016001558883526104c660209a848c528985209342855560018501991698896bffffffffffffffffffffffff60a01b8254161790556104bd8860028601611080565b60038401611080565b4301438111610581578861056e94610526828b819a978f6002908e60057f80f0f5028fb165ab876360fb9ca241442790f9e3b5076a2b1e1e4e833280e74f9e9b61055a9b408a8201550160ff1981541660ff8d1617905583525220611193565b6105388261053386610eca565b611193565b8b8a518092875161054c8184868c01610b9e565b820190815203019020611193565b610578875193849389855289850190610bc1565b918a840190610be6565b0390a351908152f35b634e487b7160e01b835260118452602483fd5b5033815260066020528581205460ff16610461565b8580fd5b5082903461021c57602090816003193601126101405782849135906001916105d86001548210610f15565b8152808452600783822001938454906105f082610fb8565b916105fd86519384610cba565b8083528183018097855282852085915b83831061066f57505050508451948186019282875251809352808601908360051b8701019693905b8382106106425786880387f35b9091929394838061065e839a603f198b82030186528951610bc1565b999701959493919091019101610635565b90878086819c9a9594610686859d999a9b9d610e25565b815201920192019250989698979594939761060d565b50503461021c578160031936011261021c576020906001549051908152f35b50503461021c578160031936011261021c5760055490516001600160a01b039091168152602090f35b509034610140576020806003193601126107cf576001600160a01b0380610709610c6d565b16855260029160026020528386209485549361072485610fd0565b96885b86811061073b578751806101da8b82610d33565b808a6107b3878b6107a0816107526001988a610dbd565b969054600397881b1c815280855220948554958d8982015416938c8201549460ff600584015416968251996107868b610c88565b8a528901526107968c8301610e25565b9088015201610e25565b6060850152608084015260a08301610f56565b6107bd828c611020565b526107c8818b611020565b5001610727565b8380fd5b503461014057816003193601126101405780359060243567ffffffffffffffff811161035857916006846101da966108146108309561083597369101610cdc565b936108226001548210610f15565b815280602052200190610d97565b610e25565b9051918291602083526020830190610bc1565b50903461014057602092602060031936011261013d578235600881101561021c5761087290610eca565b9283549161087f83610fd0565b94815b848110610896578551806101da8982610d33565b806108a360019284610dbd565b9054600391821b1c8552848a526108f5888b6107a082892094855495888060a01b0389820154168c8201549460ff6005840154169651986108e38a610c88565b89528801528d61079660028301610e25565b6108ff828a611020565b5261090a8189611020565b5001610882565b50503461021c578060031936011261021c5761092b610c6d565b6001600160a01b0316825260026020528082208054602435939084101561013d575060209261012f91610dbd565b50913461013d578160031936011261013d57823567ffffffffffffffff811161021c57602061098e6109a49236908701610cdc565b6024359582865194838680955193849201610b9e565b82019081520301902090815484101561013d575060209261012f91610dbd565b50903461014057602092602060031936011261013d57823567ffffffffffffffff811161021c5760206109fd610a0f9236908701610cdc565b81855193828580945193849201610b9e565b81018681520301902092835491610a2583610fd0565b94815b848110610a3c578551806101da8982610d33565b80610a4960019284610dbd565b9054600391821b1c8552848a52610a89888b6107a082892094855495888060a01b0389820154168c8201549460ff6005840154169651986108e38a610c88565b610a93828a611020565b52610a9e8189611020565b5001610a28565b50503461021c57602036600319011261021c57610ac0610c6d565b6005546001600160a01b039190610ada9083163314610f62565b16825260066020528120805460ff1916600117905580f35b50903461014057602036600319011261014057610b8c816101da948435610b17610ee3565b50610b256001548210610f15565b8152806020522092835493610b79600360018060a01b03600184015416938301549260ff60058201541694875198610b5c8a610c88565b89526020890152610b6f60028201610e25565b8789015201610e25565b6060860152608085015260a08401610f56565b51918291602083526020830190610c09565b60005b838110610bb15750506000910152565b8181015183820152602001610ba1565b90602091610bda81518092818552858086019101610b9e565b601f01601f1916010190565b906008821015610bf35752565b634e487b7160e01b600052602160045260246000fd5b90610c6a908251815260018060a01b03602084015116602082015260a080610c55610c43604087015160c0604087015260c0860190610bc1565b60608701518582036060870152610bc1565b94608081015160808501520151910190610be6565b90565b600435906001600160a01b0382168203610c8357565b600080fd5b60c0810190811067ffffffffffffffff821117610ca457604052565b634e487b7160e01b600052604160045260246000fd5b90601f8019910116810190811067ffffffffffffffff821117610ca457604052565b81601f82011215610c835780359067ffffffffffffffff8211610ca45760405192610d11601f8401601f191660200185610cba565b82845260208383010111610c8357816000926020809301838601378301015290565b6020808201906020835283518092526040830192602060408460051b8301019501936000915b848310610d695750505050505090565b9091929394958480610d87600193603f198682030187528a51610c09565b9801930193019194939290610d59565b602090610db1928260405194838680955193849201610b9e565b82019081520301902090565b8054821015610dd55760005260206000200190600090565b634e487b7160e01b600052603260045260246000fd5b90600182811c92168015610e1b575b6020831014610e0557565b634e487b7160e01b600052602260045260246000fd5b91607f1691610dfa565b90604051918260008254610e3881610deb565b90818452602094600191600181169081600014610ea85750600114610e69575b505050610e6792500383610cba565b565b600090815285812095935091905b818310610e90575050610e679350820101388080610e58565b85548884018501529485019487945091830191610e77565b92505050610e6794925060ff191682840152151560051b820101388080610e58565b6008811015610bf3576000526003602052604060002090565b60405190610ef082610c88565b600060a083828152826020820152606060408201526060808201528260808201520152565b15610f1c57565b60405162461bcd60e51b8152602060048201526012602482015271131bd9c8191bd95cc81b9bdd08195e1a5cdd60721b6044820152606490fd5b6008821015610bf35752565b15610f6957565b60405162461bcd60e51b815260206004820152602160248201527f4f6e6c79206f776e65722063616e2063616c6c20746869732066756e6374696f6044820152603760f91b6064820152608490fd5b67ffffffffffffffff8111610ca45760051b60200190565b90610fda82610fb8565b610fe76040519182610cba565b8281528092610ff8601f1991610fb8565b019060005b82811061100957505050565b602090611014610ee3565b82828501015201610ffd565b8051821015610dd55760209160051b010190565b1561103b57565b60405162461bcd60e51b815260206004820152601c60248201527f4e6f7420617574686f72697a656420746f206c6f67206576656e7473000000006044820152606490fd5b919091825167ffffffffffffffff8111610ca45761109e8254610deb565b601f8111611149575b50602080601f83116001146110e45750819293946000926110d9575b50508160011b916000199060031b1c1916179055565b0151905038806110c3565b90601f19831695846000526020600020926000905b88821061113157505083600195969710611118575b505050811b019055565b015160001960f88460031b161c1916905538808061110e565b806001859682949686015181550195019301906110f9565b6000836000526020600020601f840160051c81019260208510611189575b601f0160051c01915b82811061117e5750506110a7565b818155600101611170565b9092508290611167565b8054600160401b811015610ca4576111b091600182018155610dbd565b819291549060031b91821b91600019901b191617905556fea264697066735822122037d503af82516581cf8013b3cc2c7eb1d283a2355399b366a42f57a4c62e066864736f6c63430008160033",
  "linkReferences": {},
  "deployedLinkReferences": {}
}