{
  "_format": "hh-sol-artifact-1",
  "contractName": "ProjectEscrow",
  "sourceName": "contracts/ProjectEscrow.sol",
  "abi": [
    {
      "inputs": [
        {
          "internalType": "address",
          "name": "_progressValidation",
          "type": "address"
        },
        {
          "internalType": "uint256",
          "name": "_platformFee",
          "type": "uint256"
        }
      ],
      "stateMutability": "nonpayable",
      "type": "constructor"
    },
    {
      "anonymous": false,
      "inputs": [
        {
          "indexed": true,
          "internalType": "uint256",
          "name": "tenderId",
          "type": "uint256"
        },
        {
          "indexed": false,
          "internalType": "uint256",
          "name": "progressId",
          "type": "uint256"
        },
        {
          "indexed": false,
          "internalType": "uint256",
          "name": "amount",
          "type": "uint256"
        }
      ],
      "name": "MilestonePaid",
      "type": "event"
    },
    {
      "anonymous": false,
      "inputs": [
        {
          "indexed": true,
          "internalType": "uint256",
          "name": "tenderId",
          "type": "uint256"
        },
        {
          "indexed": false,
          "internalType": "address",
          "name": "recipient",
          "type": "address"
        },
        {
          "indexed": false,
          "internalType": "uint256",
          "name": "amount",
          "type": "uint256"
        }
      ],
      "name": "PaymentReleased",
      "type": "event"
    },
    {
      "anonymous": false,
      "inputs": [
        {
          "indexed": true,
          "internalType": "uint256",
          "name": "tenderId",
          "type": "uint256"
        }
      ],
      "name": "ProjectClosed",
      "type": "event"
    },
    {
      "anonymous": false,
      "inputs": [
        {
          "indexed": true,
          "internalType": "uint256",
          "name": "tenderId",
          "type": "uint256"
        },
        {
          "indexed": false,
          "internalType": "address",
          "name": "contractor",
          "type": "address"
        },
        {
          "indexed": false,
          "internalType": "uint256",
          "name": "amount",
          "type": "uint256"
        }
      ],
      "name": "ProjectCreated",
      "type": "event"
    },
    {
      "inputs": [
        {
          "internalType": "address",
          "name": "",
          "type": "address"
        },
        {
          "internalType": "uint256",
          "name": "",
          "type": "uint256"
        }
      ],
      "name": "contractorProjects",
      "outputs": [
        {
          "internalType": "uint256",
          "name": "",
          "type": "uint256"
        }
      ],
      "stateMutability": "view",
      "type": "function"
    },
    {
      "inputs": [
        {
          "internalType": "uint256",
          "name": "_tenderId",
          "type": "uint256"
        },
        {
          "internalType": "address payable",
          "name": "_contractor",
          "type": "address"
        },
        {
          "internalType": "uint256",
          "name": "_totalAmount",
          "type": "uint256"
        },
        {
          "internalType": "uint256",
          "name": "_nextMilestoneAmount",
          "type": "uint256"
        }
      ],
      "name": "createProject",
      "outputs": [],
      "stateMutability": "payable",
      "type": "function"
    },
    {
      "inputs": [
        {
          "internalType": "address",
          "name": "_contractor",
          "type": "address"
        }
      ],
      "name": "getContractorProjects",
      "outputs": [
        {
          "internalType": "uint256[]",
          "name": "",
          "type": "uint256[]"
        }
      ],
      "stateMutability": "view",
      "type": "function"
    },
    {
      "inputs": [
        {
          "internalType": "uint256",
          "name": "_tenderId",
          "type": "uint256"
        }
      ],
      "name": "getProjectBalance",
      "outputs": [
        {
          "internalType": "uint256",
          "name": "totalAmount",
          "type": "uint256"
        },
        {
          "internalType": "uint256",
          "name": "releasedAmount",
          "type": "uint256"
        },
        {
          "internalType": "uint256",
          "name": "remainingAmount",
          "type": "uint256"
        }
      ],
      "stateMutability": "view",
      "type": "function"
    },
    {
      "inputs": [
        {
          "internalType": "uint256",
          "name": "_tenderId",
          "type": "uint256"
        }
      ],
      "name": "getProjectPayments",
      "outputs": [
        {
          "components": [
            {
              "internalType": "uint256",
              "name": "tenderId",
              "type": "uint256"
            },
            {
              "internalType": "uint256",
              "name": "progressId",
              "type": "uint256"
            },
            {
              "internalType": "address",
              "name": "recipient",
              "type": "address"
            },
            {
              "internalType": "uint256",
              "name": "amount",
              "type": "uint256"
            },
            {
              "internalType": "uint256",
              "name": "timestamp",
              "type": "uint256"
            },
            {
              "internalType": "string",
              "name": "paymentType",
              "type": "string"
            }
          ],
          "internalType": "struct ProjectEscrow.Payment[]",
          "name": "",
          "type": "tuple[]"
        }
      ],
      "stateMutability": "view",
      "type": "function"
    },
    {
      "inputs": [],
      "name": "owner",
      "outputs": [
        {
          "internalType": "address",
          "name": "",
          "type": "address"
        }
      ],
      "stateMutability": "view",
      "type": "function"
    },
    {
      "inputs": [],
      "name": "platformFee",
      "outputs": [
        {
          "internalType": "uint256",
          "name": "",
          "type": "uint256"
        }
      ],
      "stateMutability": "view",
      "type": "function"
    },
    {
      "inputs": [],
      "name": "progressValidation",
      "outputs": [
        {
          "internalType": "contract IProgressValidation",
          "name": "",
          "type": "address"
        }
      ],
      "stateMutability": "view",
      "type": "function"
    },
    {
      "inputs": [
        {
          "internalType": "uint256",
          "name": "",
          "type": "uint256"
        },
        {
          "internalType": "uint256",
          "name": "",
          "type": "uint256"
        }
      ],
      "name": "projectPayments",
      "outputs": [
        {
          "internalType": "uint256",
          "name": "tenderId",
          "type": "uint256"
        },
        {
          "internalType": "uint256",
          "name": "progressId",
          "type": "uint256"
        },
        {
          "internalType": "address",
          "name": "recipient",
          "type": "address"
        },
        {
          "internalType": "uint256",
          "name": "amount",
          "type": "uint256"
        },
        {
          "internalType": "uint256",
          "name": "timestamp",
          "type": "uint256"
        },
        {
          "internalType": "string",
          "name": "paymentType",
          "type": "string"
        }
      ],
      "stateMutability": "view",
      "type": "function"
    },
    {
      "inputs": [
        {
          "internalType": "uint256",
          "name": "",
          "type": "uint256"
        }
      ],
      "name": "projects",
      "outputs": [
        {
          "internalType": "uint256",
          "name": "tenderId",
          "type": "uint256"
        },
        {
          "internalType": "address payable",
          "name": "contractor",
          "type": "address"
        },
        {
          "internalType": "uint256",
          "name": "totalAmount",
          "type": "uint256"
        },
        {
          "internalType": "uint256",
          "name": "releasedAmount",
          "type": "uint256"
        },
        {
          "internalType": "uint256",
          "name": "nextMilestoneAmount",
          "type": "uint256"
        },
        {
          "internalType": "bool",
          "name": "isActive",
          "type": "bool"
        }
      ],
      "stateMutability": "view",
      "type": "function"
    },
    {
      "inputs": [
        {
          "internalType": "uint256",
          "name": "_tenderId",
          "type": "uint256"
        }
      ],
      "name": "recoverFunds",
      "outputs": [],
      "stateMutability": "nonpayable",
      "type": "function"
    },
    {
      "inputs": [
        {
          "internalType": "uint256",
          "name": "_tenderId",
          "type": "uint256"
        },
        {
          "internalType": "uint256",
          "name": "_progressId",
          "type": "uint256"
        }
      ],
      "name": "releaseMilestonePayment",
      "outputs": [],
      "stateMutability": "nonpayable",
      "type": "function"
    },
    {
      "inputs": [
        {
          "internalType": "uint256",
          "name": "_tenderId",
          "type": "uint256"
        },
        {
          "internalType": "address payable",
          "name": "_recipient",
          "type": "address"
        },
        {
          "internalType": "uint256",
          "name": "_amount",
          "type": "uint256"
        },
        {
          "internalType": "string",
          "name": "_paymentType",
          "type": "string"
        }
      ],
      "name": "releasePayment",
      "outputs": [],
      "stateMutability": "nonpayable",
      "type": "function"
    },
    {
      "stateMutability": "payable",
      "type": "receive"
    }
  ],
  "bytecode": "0x60803461008357601f6112a938819003918201601f19168301916001600160401b038311848410176100885780849260409485528339810103126100835780516001600160a01b038116919082900361008357602001519060018060a01b031933816003541617600355600454161760045560055560405161120a908161009f8239f35b600080fd5b634e487b7160e01b600052604160045260246000fdfe6080604081815260049182361015610022575b505050361561002057600080fd5b005b600092833560e01c918263107046bd14610ca1575081631ce4fa4c14610c7957816326232a2e14610c5a57816331752fa514610a605781634ab358c714610970578163636f34d6146108c35781637f90757d1461087d57816381593e70146106f55781638c936e65146103dd5781638da5cb5b146103b4578163a409b16e14610324578163a43065ac1461011c575063c9b08c02146100c15780610012565b346101185780600319360112610118576100d9610d28565b6001600160a01b03168252600260205280822080546024359390841015610115575060209261010791610ef9565b91905490519160031b1c8152f35b80fd5b5080fd5b9050346103095760803660031901126103095780359061013a610d0d565b604435916064359067ffffffffffffffff8083116103205736602384011215610320578282013590811161030d578760209388519261018286601f19601f8401160185610e32565b80845236602482840101116103095780602487930183860137830101526003546001600160a01b03906101b89082163314610f11565b8689528884526101d060ff60058a8c20015416610f8a565b868952888452878920926101e647881115610fe4565b600384019360026101f8898754611030565b910154106102c657508416918886848282156102bd575b839283928392f1156102b357927f21d71db5be59bb9fa133895586b7404307dd33fb93b16db09dc6f1d9d7d231b096979261028d9285610253896102ad9854611030565b9055898b5260018352848b20918b86519461026d86610e00565b8c86528501528584015287606084015242608084015260a083015261103d565b516001600160a01b03909216825260208201929092529081906040820190565b0390a280f35b87513d8a823e3d90fd5b506108fc61020f565b885162461bcd60e51b8152908101859052601e60248201527f5061796d656e7420657863656564732070726f6a6563742062756467657400006044820152606490fd5b8280fd5b634e487b7160e01b885260418252602488fd5b8780fd5b8284346101155761033436610d7e565b91908152600160205282812090815483101561011557506103b09161035891610d94565b509182549260018101549460018060a01b0360028301541661038560056003850154938501549401610e54565b938051978897885260208801528601526060850152608084015260c060a084015260c0830190610d3e565b0390f35b50503461011857816003193601126101185760035490516001600160a01b039091168152602090f35b91905034610309576103ee36610d7e565b909283855260209285845261040b60ff6005838920015416610f8a565b84865285845280862092600684019281885283865260ff83892054166106b9578054835163c592b41560e01b8152808301899052602481018490526001600160a01b0397918290829060449082908c165afa9081156106af578a91610675575b501561063a57818601549161048247841115610fe4565b600554808402908482041484151715610627576001918b89818080808f976127109004946104b0868d610f67565b998a91019889541682821561061e575bf11561061257818080928e60035416828215610609575bf1156105ff5760038901976104ed868a54611030565b8955868d528452868c209960ff199a60018c8254161790558b8d5260018552878d209254169287519361051f85610e00565b8c855287868601528885015260608401524260808401528651908782019082821067ffffffffffffffff8311176105ec5750927fafc8fc5dd6037bf38d34d9d51bb5ecc0af143248332c63ae9e83bbef6d4638d996949261059f928997958e9a5260098152686d696c6573746f6e6560b81b8582015260a083015261103d565b8351928352820152a254600282015411156105b8578380f35b6005019081541690557fa10da3bd85a8a7569325abd94177d0bbf25fbded5a3f6622a5588ce2cf1153ba8280a23880808380f35b634e487b7160e01b8e526041905260248dfd5b86513d8d823e3d90fd5b506108fc6104d7565b508751903d90823e3d90fd5b506108fc6104c0565b634e487b7160e01b8b526011825260248bfd5b835162461bcd60e51b8152918201526016602482015275141c9bd9dc995cdcc81b9bdd081d985b1a59185d195960521b604482015260649150fd5b90508181813d83116106a8575b61068c8183610e32565b810103126106a4575180151581036106a4573861046b565b8980fd5b503d610682565b85513d8c823e3d90fd5b825162461bcd60e51b81529081018690526016602482015275135a5b195cdd1bdb9948185b1c9958591e481c185a5960521b6044820152606490fd5b838334610118576020928360031936011261030957803583526001936001815282842092835467ffffffffffffffff811161086a579286928692946005865193610744848460051b0186610e32565b82855283850191829987528487209187935b8585106107fd575050505050508451948186019282875251809352808601818460051b8801019794915b84831061078d5787890388f35b90919293949584806107eb839b603f198c82030187528a519060c09082518152848301518582015260018060a01b0388840151168882015260608084015190820152608080840151908201528160a080940151938201520190610d3e565b9a980196959491909101920190610780565b98600687829d9b8d999a9b9d5161081381610e00565b87548152848801548382015260028801546001600160a01b03168b8201526003880154606082015285880154608082015261084f878901610e54565b60a08201528152019401940193929a989a9997969599610756565b634e487b7160e01b865260418452602486fd5b90503461030957602036600319011261030957606092829135815280602052209060036002830154920154906108b38284610f67565b9181519384526020840152820152f35b82843461011557602090816003193601126101155782906001600160a01b036108ea610d28565b16815260028352818120908251808584549182815201908194845286842090845b81811061095c5750505081610921910382610e32565b83519485948186019282875251809352850193925b82811061094557505050500390f35b835185528695509381019392810192600101610936565b82548452928801926001928301920161090b565b905034610309576020366003190112610309576003546001600160a01b03169061099b338314610f11565b803584528360205260ff6005848620015416610a1d5747156109e45750828080809347908282156109db575bf1156109d1575080f35b51903d90823e3d90fd5b506108fc6109c7565b606490602084519162461bcd60e51b83528201526013602482015272273790333ab73239903a37903932b1b7bb32b960691b6044820152fd5b606490602084519162461bcd60e51b8352820152601760248201527f50726f6a656374206973207374696c6c206163746976650000000000000000006044820152fd5b8383608036600319011261011857823590610a79610d0d565b6044359160643560018060a01b0390610a9782600354163314610f11565b843403610c1f57848111610bdc578587528660205260ff6005848920015416610ba05760059086885287602052838820908782556001820193861693846bffffffffffffffffffffffff60a01b8254161790558660028301558860038301558982015501600160ff1982541617905585526002602052808520805490600160401b821015610b8d5791610b56827f1b9d0946c0a6f3b3a57782ad25a4553bd5bcf1f1a252068eafc757670aad573a96959460016102ad95018155610ef9565b815460001960039290921b91821b19169088901b179055516001600160a01b03909216825260208201929092529081906040820190565b634e487b7160e01b875260418852602487fd5b825162461bcd60e51b81526020818a0152601660248201527550726f6a65637420616c72656164792065786973747360501b6044820152606490fd5b825162461bcd60e51b81526020818a0152601e60248201527f4d696c6573746f6e6520616d6f756e74206578636565647320746f74616c00006044820152606490fd5b825162461bcd60e51b81526020818a01526015602482015274125b98dbdc9c9958dd08199d5b9908185b5bdd5b9d605a1b6044820152606490fd5b5050346101185781600319360112610118576020906005549051908152f35b9050346103095782600319360112610309575490516001600160a01b03909116815260209150f35b92915034610d09576020366003190112610d09578160c0948235815280602052209081549260018060a01b036001840154169060028401549160ff600560038701549587015496015416958752602087015285015260608401526080830152151560a0820152f35b8380fd5b602435906001600160a01b0382168203610d2357565b600080fd5b600435906001600160a01b0382168203610d2357565b919082519283825260005b848110610d6a575050826000602080949584010152601f8019910116010190565b602081830181015184830182015201610d49565b6040906003190112610d23576004359060243590565b8054821015610db0576000526006602060002091020190600090565b634e487b7160e01b600052603260045260246000fd5b90600182811c92168015610df6575b6020831014610de057565b634e487b7160e01b600052602260045260246000fd5b91607f1691610dd5565b60c0810190811067ffffffffffffffff821117610e1c57604052565b634e487b7160e01b600052604160045260246000fd5b90601f8019910116810190811067ffffffffffffffff821117610e1c57604052565b90604051918260008254610e6781610dc6565b90818452602094600191600181169081600014610ed75750600114610e98575b505050610e9692500383610e32565b565b600090815285812095935091905b818310610ebf575050610e969350820101388080610e87565b85548884018501529485019487945091830191610ea6565b92505050610e9694925060ff191682840152151560051b820101388080610e87565b8054821015610db05760005260206000200190600090565b15610f1857565b60405162461bcd60e51b815260206004820152602160248201527f4f6e6c79206f776e65722063616e2063616c6c20746869732066756e6374696f6044820152603760f91b6064820152608490fd5b91908203918211610f7457565b634e487b7160e01b600052601160045260246000fd5b15610f9157565b60405162461bcd60e51b815260206004820152602560248201527f50726f6a65637420646f6573206e6f74206578697374206f7220697320696e61604482015264637469766560d81b6064820152608490fd5b15610feb57565b60405162461bcd60e51b815260206004820152601d60248201527f496e73756666696369656e7420636f6e74726163742062616c616e63650000006044820152606490fd5b91908201809211610f7457565b8054600160401b811015610e1c5761105c906001928382018155610d94565b6111be578251815560a06005602092838601518582015560028101600180851b036040880151166bffffffffffffffffffffffff851b8254161790556060860151600382015560808601516004820155019301519081519167ffffffffffffffff8311610e1c576110cd8554610dc6565b601f8111611173575b5081601f84116001146111105750928293918392600094611105575b50501b916000199060031b1c1916179055565b0151925038806110f2565b919083601f1981168760005284600020946000905b888383106111595750505010611140575b505050811b019055565b015160001960f88460031b161c19169055388080611136565b858701518855909601959485019487935090810190611125565b60008660005283600020601f860160051c8101928587106111b4575b601f0160051c019186905b8381106111a9575050506110d6565b82815501869061119a565b909250829061118f565b634e487b7160e01b600052600060045260246000fdfea264697066735822122018f9e557bb9722c33ef4c8272356469d319efce1e312f133601ccb3533926f8064736f6c63430008160033",
  "linkReferences": {},
  "deployedLinkReferences": {}
}