{
  "_format": "hh-sol-artifact-1",
  "contractName": "TenderManagement",
  "sourceName": "contracts/TenderManagement.sol",
  "abi": [
    {
      "inputs": [
        {
          "internalType": "address",
          "name": "_credentialVerificationAddress",
          "type": "address"
        },
        {
          "internalType": "address",
          "name": "_auditLogAddress",
          "type": "address"
        }
      ],
      "stateMutability": "nonpayable",
      "type": "constructor"
    },
    {
      "inputs": [],
      "name": "EnforcedPause",
      "type": "error"
    },
    {
      "inputs": [],
      "name": "ExpectedPause",
      "type": "error"
    },
    {
      "inputs": [],
      "name": "ReentrancyGuardReentrantCall",
      "type": "error"
    },
    {
      "anonymous": false,
      "inputs": [
        {
          "indexed": true,
          "internalType": "uint256",
          "name": "tenderId",
          "type": "uint256"
        },
        {
          "indexed": true,
          "internalType": "uint256",
          "name": "bidId",
          "type": "uint256"
        },
        {
          "indexed": true,
          "internalType": "address",
          "name": "contractor",
          "type": "address"
        },
        {
          "indexed": false,
          "internalType": "uint256",
          "name": "amount",
          "type": "uint256"
        }
      ],
      "name": "BidSubmitted",
      "type": "event"
    },
    {
      "anonymous": false,
      "inputs": [
        {
          "indexed": true,
          "internalType": "uint256",
          "name": "tenderId",
          "type": "uint256"
        },
        {
          "indexed": true,
          "internalType": "uint256",
          "name": "bidId",
          "type": "uint256"
        },
        {
          "indexed": true,
          "internalType": "address",
          "name": "contractor",
          "type": "address"
        }
      ],
      "name": "BidWithdrawn",
      "type": "event"
    },
    {
      "anonymous": false,
      "inputs": [
        {
          "indexed": true,
          "internalType": "uint256",
          "name": "tenderId",
          "type": "uint256"
        },
        {
          "indexed": true,
          "internalType": "address",
          "name": "contractor",
          "type": "address"
        },
        {
          "indexed": false,
          "internalType": "uint256",
          "name": "amount",
          "type": "uint256"
        }
      ],
      "name": "ContractorSelected",
      "type": "event"
    },
    {
      "anonymous": false,
      "inputs": [
        {
          "indexed": false,
          "internalType": "address",
          "name": "account",
          "type": "address"
        }
      ],
      "name": "Paused",
      "type": "event"
    },
    {
      "anonymous": false,
      "inputs": [
        {
          "indexed": true,
          "internalType": "uint256",
          "name": "tenderId",
          "type": "uint256"
        },
        {
          "indexed": true,
          "internalType": "address",
          "name": "owner",
          "type": "address"
        },
        {
          "indexed": false,
          "internalType": "string",
          "name": "title",
          "type": "string"
        },
        {
          "indexed": false,
          "internalType": "uint256",
          "name": "budget",
          "type": "uint256"
        }
      ],
      "name": "TenderCreated",
      "type": "event"
    },
    {
      "anonymous": false,
      "inputs": [
        {
          "indexed": true,
          "internalType": "uint256",
          "name": "tenderId",
          "type": "uint256"
        },
        {
          "indexed": false,
          "internalType": "enum TenderManagement.TenderStatus",
          "name": "status",
          "type": "uint8"
        }
      ],
      "name": "TenderStatusUpdated",
      "type": "event"
    },
    {
      "anonymous": false,
      "inputs": [
        {
          "indexed": false,
          "internalType": "address",
          "name": "account",
          "type": "address"
        }
      ],
      "name": "Unpaused",
      "type": "event"
    },
    {
      "inputs": [],
      "name": "DEFAULT_MAX_BIDS",
      "outputs": [
        {
          "internalType": "uint256",
          "name": "",
          "type": "uint256"
        }
      ],
      "stateMutability": "view",
      "type": "function"
    },
    {
      "inputs": [],
      "name": "MAX_DESCRIPTION_LENGTH",
      "outputs": [
        {
          "internalType": "uint256",
          "name": "",
          "type": "uint256"
        }
      ],
      "stateMutability": "view",
      "type": "function"
    },
    {
      "inputs": [],
      "name": "MAX_PROPOSAL_LENGTH",
      "outputs": [
        {
          "internalType": "uint256",
          "name": "",
          "type": "uint256"
        }
      ],
      "stateMutability": "view",
      "type": "function"
    },
    {
      "inputs": [],
      "name": "auditLog",
      "outputs": [
        {
          "internalType": "contract AuditLog",
          "name": "",
          "type": "address"
        }
      ],
      "stateMutability": "view",
      "type": "function"
    },
    {
      "inputs": [],
      "name": "bidCount",
      "outputs": [
        {
          "internalType": "uint256",
          "name": "",
          "type": "uint256"
        }
      ],
      "stateMutability": "view",
      "type": "function"
    },
    {
      "inputs": [
        {
          "internalType": "uint256",
          "name": "",
          "type": "uint256"
        }
      ],
      "name": "bids",
      "outputs": [
        {
          "internalType": "uint256",
          "name": "id",
          "type": "uint256"
        },
        {
          "internalType": "uint256",
          "name": "tenderId",
          "type": "uint256"
        },
        {
          "internalType": "address",
          "name": "contractor",
          "type": "address"
        },
        {
          "internalType": "uint256",
          "name": "amount",
          "type": "uint256"
        },
        {
          "internalType": "uint256",
          "name": "estimatedDuration",
          "type": "uint256"
        },
        {
          "internalType": "string",
          "name": "proposal",
          "type": "string"
        },
        {
          "internalType": "uint256",
          "name": "timestamp",
          "type": "uint256"
        },
        {
          "internalType": "bool",
          "name": "selected",
          "type": "bool"
        },
        {
          "internalType": "bool",
          "name": "active",
          "type": "bool"
        }
      ],
      "stateMutability": "view",
      "type": "function"
    },
    {
      "inputs": [
        {
          "internalType": "address",
          "name": "",
          "type": "address"
        },
        {
          "internalType": "uint256",
          "name": "",
          "type": "uint256"
        }
      ],
      "name": "contractorBids",
      "outputs": [
        {
          "internalType": "uint256",
          "name": "",
          "type": "uint256"
        }
      ],
      "stateMutability": "view",
      "type": "function"
    },
    {
      "inputs": [
        {
          "internalType": "address",
          "name": "",
          "type": "address"
        },
        {
          "internalType": "uint256",
          "name": "",
          "type": "uint256"
        }
      ],
      "name": "contractorTenders",
      "outputs": [
        {
          "internalType": "uint256",
          "name": "",
          "type": "uint256"
        }
      ],
      "stateMutability": "view",
      "type": "function"
    },
    {
      "inputs": [
        {
          "internalType": "string",
          "name": "_title",
          "type": "string"
        },
        {
          "internalType": "string",
          "name": "_description",
          "type": "string"
        },
        {
          "internalType": "uint256",
          "name": "_budget",
          "type": "uint256"
        },
        {
          "internalType": "uint256",
          "name": "_deadline",
          "type": "uint256"
        },
        {
          "internalType": "uint256",
          "name": "_minQualificationScore",
          "type": "uint256"
        },
        {
          "internalType": "uint256",
          "name": "_maxBids",
          "type": "uint256"
        },
        {
          "internalType": "uint256",
          "name": "_minBidAmount",
          "type": "uint256"
        },
        {
          "internalType": "uint256",
          "name": "_maxBidAmount",
          "type": "uint256"
        }
      ],
      "name": "createTender",
      "outputs": [
        {
          "internalType": "uint256",
          "name": "",
          "type": "uint256"
        }
      ],
      "stateMutability": "nonpayable",
      "type": "function"
    },
    {
      "inputs": [],
      "name": "credentialVerification",
      "outputs": [
        {
          "internalType": "contract CredentialVerification",
          "name": "",
          "type": "address"
        }
      ],
      "stateMutability": "view",
      "type": "function"
    },
    {
      "inputs": [
        {
          "internalType": "uint256",
          "name": "_tenderId",
          "type": "uint256"
        }
      ],
      "name": "getActiveBids",
      "outputs": [
        {
          "components": [
            {
              "internalType": "uint256",
              "name": "id",
              "type": "uint256"
            },
            {
              "internalType": "uint256",
              "name": "tenderId",
              "type": "uint256"
            },
            {
              "internalType": "address",
              "name": "contractor",
              "type": "address"
            },
            {
              "internalType": "uint256",
              "name": "amount",
              "type": "uint256"
            },
            {
              "internalType": "uint256",
              "name": "estimatedDuration",
              "type": "uint256"
            },
            {
              "internalType": "string",
              "name": "proposal",
              "type": "string"
            },
            {
              "internalType": "uint256",
              "name": "timestamp",
              "type": "uint256"
            },
            {
              "internalType": "bool",
              "name": "selected",
              "type": "bool"
            },
            {
              "internalType": "bool",
              "name": "active",
              "type": "bool"
            }
          ],
          "internalType": "struct TenderManagement.Bid[]",
          "name": "",
          "type": "tuple[]"
        }
      ],
      "stateMutability": "view",
      "type": "function"
    },
    {
      "inputs": [
        {
          "internalType": "uint256",
          "name": "_bidId",
          "type": "uint256"
        }
      ],
      "name": "getBidDetails",
      "outputs": [
        {
          "internalType": "uint256",
          "name": "tenderId",
          "type": "uint256"
        },
        {
          "internalType": "address",
          "name": "contractor",
          "type": "address"
        },
        {
          "internalType": "uint256",
          "name": "amount",
          "type": "uint256"
        },
        {
          "internalType": "uint256",
          "name": "estimatedDuration",
          "type": "uint256"
        },
        {
          "internalType": "string",
          "name": "proposal",
          "type": "string"
        },
        {
          "internalType": "uint256",
          "name": "timestamp",
          "type": "uint256"
        },
        {
          "internalType": "bool",
          "name": "selected",
          "type": "bool"
        },
        {
          "internalType": "bool",
          "name": "active",
          "type": "bool"
        }
      ],
      "stateMutability": "view",
      "type": "function"
    },
    {
      "inputs": [
        {
          "internalType": "address",
          "name": "_contractor",
          "type": "address"
        }
      ],
      "name": "getContractorBids",
      "outputs": [
        {
          "components": [
            {
              "internalType": "uint256",
              "name": "id",
              "type": "uint256"
            },
            {
              "internalType": "uint256",
              "name": "tenderId",
              "type": "uint256"
            },
            {
              "internalType": "address",
              "name": "contractor",
              "type": "address"
            },
            {
              "internalType": "uint256",
              "name": "amount",
              "type": "uint256"
            },
            {
              "internalType": "uint256",
              "name": "estimatedDuration",
              "type": "uint256"
            },
            {
              "internalType": "string",
              "name": "proposal",
              "type": "string"
            },
            {
              "internalType": "uint256",
              "name": "timestamp",
              "type": "uint256"
            },
            {
              "internalType": "bool",
              "name": "selected",
              "type": "bool"
            },
            {
              "internalType": "bool",
              "name": "active",
              "type": "bool"
            }
          ],
          "internalType": "struct TenderManagement.Bid[]",
          "name": "",
          "type": "tuple[]"
        }
      ],
      "stateMutability": "view",
      "type": "function"
    },
    {
      "inputs": [
        {
          "internalType": "address",
          "name": "_contractor",
          "type": "address"
        }
      ],
      "name": "getContractorTenders",
      "outputs": [
        {
          "internalType": "uint256[]",
          "name": "",
          "type": "uint256[]"
        }
      ],
      "stateMutability": "view",
      "type": "function"
    },
    {
      "inputs": [
        {
          "internalType": "uint256",
          "name": "_tenderId",
          "type": "uint256"
        }
      ],
      "name": "getTenderBids",
      "outputs": [
        {
          "components": [
            {
              "internalType": "uint256",
              "name": "id",
              "type": "uint256"
            },
            {
              "internalType": "uint256",
              "name": "tenderId",
              "type": "uint256"
            },
            {
              "internalType": "address",
              "name": "contractor",
              "type": "address"
            },
            {
              "internalType": "uint256",
              "name": "amount",
              "type": "uint256"
            },
            {
              "internalType": "uint256",
              "name": "estimatedDuration",
              "type": "uint256"
            },
            {
              "internalType": "string",
              "name": "proposal",
              "type": "string"
            },
            {
              "internalType": "uint256",
              "name": "timestamp",
              "type": "uint256"
            },
            {
              "internalType": "bool",
              "name": "selected",
              "type": "bool"
            },
            {
              "internalType": "bool",
              "name": "active",
              "type": "bool"
            }
          ],
          "internalType": "struct TenderManagement.Bid[]",
          "name": "",
          "type": "tuple[]"
        }
      ],
      "stateMutability": "view",
      "type": "function"
    },
    {
      "inputs": [
        {
          "internalType": "uint256",
          "name": "_tenderId",
          "type": "uint256"
        }
      ],
      "name": "getTenderDetails",
      "outputs": [
        {
          "internalType": "uint256",
          "name": "id",
          "type": "uint256"
        },
        {
          "internalType": "address",
          "name": "owner",
          "type": "address"
        },
        {
          "internalType": "string",
          "name": "title",
          "type": "string"
        },
        {
          "internalType": "string",
          "name": "description",
          "type": "string"
        },
        {
          "internalType": "uint256",
          "name": "budget",
          "type": "uint256"
        },
        {
          "internalType": "uint256",
          "name": "deadline",
          "type": "uint256"
        },
        {
          "internalType": "uint256",
          "name": "minQualificationScore",
          "type": "uint256"
        },
        {
          "internalType": "enum TenderManagement.TenderStatus",
          "name": "status",
          "type": "uint8"
        },
        {
          "internalType": "address",
          "name": "selectedContractor",
          "type": "address"
        }
      ],
      "stateMutability": "view",
      "type": "function"
    },
    {
      "inputs": [],
      "name": "pause",
      "outputs": [],
      "stateMutability": "nonpayable",
      "type": "function"
    },
    {
      "inputs": [],
      "name": "paused",
      "outputs": [
        {
          "internalType": "bool",
          "name": "",
          "type": "bool"
        }
      ],
      "stateMutability": "view",
      "type": "function"
    },
    {
      "inputs": [
        {
          "internalType": "uint256",
          "name": "_tenderId",
          "type": "uint256"
        },
        {
          "internalType": "uint256",
          "name": "_bidId",
          "type": "uint256"
        }
      ],
      "name": "selectContractor",
      "outputs": [],
      "stateMutability": "nonpayable",
      "type": "function"
    },
    {
      "inputs": [
        {
          "internalType": "uint256",
          "name": "_tenderId",
          "type": "uint256"
        },
        {
          "internalType": "uint256",
          "name": "_amount",
          "type": "uint256"
        },
        {
          "internalType": "uint256",
          "name": "_estimatedDuration",
          "type": "uint256"
        },
        {
          "internalType": "string",
          "name": "_proposal",
          "type": "string"
        }
      ],
      "name": "submitBid",
      "outputs": [
        {
          "internalType": "uint256",
          "name": "",
          "type": "uint256"
        }
      ],
      "stateMutability": "nonpayable",
      "type": "function"
    },
    {
      "inputs": [],
      "name": "tenderCount",
      "outputs": [
        {
          "internalType": "uint256",
          "name": "",
          "type": "uint256"
        }
      ],
      "stateMutability": "view",
      "type": "function"
    },
    {
      "inputs": [
        {
          "internalType": "uint256",
          "name": "",
          "type": "uint256"
        }
      ],
      "name": "tenders",
      "outputs": [
        {
          "internalType": "uint256",
          "name": "id",
          "type": "uint256"
        },
        {
          "internalType": "address",
          "name": "owner",
          "type": "address"
        },
        {
          "internalType": "string",
          "name": "title",
          "type": "string"
        },
        {
          "internalType": "string",
          "name": "description",
          "type": "string"
        },
        {
          "internalType": "uint256",
          "name": "budget",
          "type": "uint256"
        },
        {
          "internalType": "uint256",
          "name": "deadline",
          "type": "uint256"
        },
        {
          "internalType": "uint256",
          "name": "minQualificationScore",
          "type": "uint256"
        },
        {
          "internalType": "enum TenderManagement.TenderStatus",
          "name": "status",
          "type": "uint8"
        },
        {
          "internalType": "address",
          "name": "selectedContractor",
          "type": "address"
        },
        {
          "internalType": "uint256",
          "name": "createdAt",
          "type": "uint256"
        },
        {
          "internalType": "uint256",
          "name": "maxBids",
          "type": "uint256"
        },
        {
          "internalType": "uint256",
          "name": "minBidAmount",
          "type": "uint256"
        },
        {
          "internalType": "uint256",
          "name": "maxBidAmount",
          "type": "uint256"
        }
      ],
      "stateMutability": "view",
      "type": "function"
    },
    {
      "inputs": [],
      "name": "unpause",
      "outputs": [],
      "stateMutability": "nonpayable",
      "type": "function"
    },
    {
      "inputs": [
        {
          "internalType": "uint256",
          "name": "_tenderId",
          "type": "uint256"
        },
        {
          "internalType": "enum TenderManagement.TenderStatus",
          "name": "_status",
          "type": "uint8"
        }
      ],
      "name": "updateTenderStatus",
      "outputs": [],
      "stateMutability": "nonpayable",
      "type": "function"
    },
    {
      "inputs": [
        {
          "internalType": "uint256",
          "name": "_bidId",
          "type": "uint256"
        }
      ],
      "name": "withdrawBid",
      "outputs": [],
      "stateMutability": "nonpayable",
      "type": "function"
    }
  ],
  "bytecode": "0x6080346200014057601f620028cd38819003918201601f19168301916001600160401b038311848410176200014557808492604094855283398101031262000140576200005a602062000052836200015b565b92016200015b565b60016000556001600160a01b0391821691908215620000eb5716908115620000a65760018060a01b031990816008541617600855600954161760095560405161275c9081620001718239f35b60405162461bcd60e51b815260206004820152601960248201527f496e76616c6964206175646974206c6f672061646472657373000000000000006044820152606490fd5b60405162461bcd60e51b815260206004820152602760248201527f496e76616c69642063726564656e7469616c20766572696669636174696f6e206044820152666164647265737360c81b6064820152608490fd5b600080fd5b634e487b7160e01b600052604160045260246000fd5b51906001600160a01b0382168203620001405756fe6080604052600436101561001257600080fd5b60e0600035811c80625ff00314611e0157806305fd043b14611d4d5780630eaaf4c814611aae5780631f05877614611a905780633f4ba83a14611a195780634423c5f11461196a578063465e1def1461186e578063477787d0146118245780634cd4d8b11461112857806353ee895d146110575780635a2d6ebd1461102e5780635c975abb1461100b5780638456cb5914610fa557806387cab81f14610f4d5780639201ea0a14610f30578063a46021251461089e578063a6f205ec14610881578063aaaf41881461060b578063b40a5627146105ed578063bb7e4ee114610442578063bd4e715b14610419578063e4c242dd14610312578063e597675c14610260578063f4ec440b146102445763f76562871461012f57600080fd5b3461023f5760208060031936011261023f57600435906006916101556006548210612426565b600052600292600260205260096040600020019384549361017585612640565b9560005b868110610192576040518061018e8a8261235a565b0390f35b8061019f600192846122d5565b9054600391821b1c60005280885260076040600020604051926101c18461219c565b81548452858201548b850152858060a01b03898301541660408501528101546060840152600481015460808401526101fb600582016121db565b60a08401528681015460c0840152015460ff9081811615158984015260081c16151561010082015261022d828b6126d1565b52610238818a6126d1565b5001610179565b600080fd5b3461023f57600036600319011261023f57602060405160648152f35b503461023f57602036600319011261023f57600435610282600754821061246a565b6000526003602052604060002090600182015460018060a01b036002840154169160ff6003850154946102f460048201546006830154956102ca6005600786015495016121db565b91604051998a99610100938b5260208b015260408a015260608901528060808901528701906122a3565b9360a0860152818116151560c086015260081c161515908301520390f35b503461023f57602090602060031936011261023f576001600160a01b03918261033961214c565b16600052600591600560205260406000209384549361035785612640565b9560005b868110610370576040518061018e8a8261235a565b8061037d600192846122d5565b9054600391821b1c600052808852600760406000206040519261039f8461219c565b81548452858201548b8501528860028301541660408501528101546060840152600481015460808401526103d48782016121db565b60a0840152600681015460c0840152015460ff9081811615158984015260081c161515610100820152610407828b6126d1565b52610412818a6126d1565b500161035b565b3461023f57600036600319011261023f576008546040516001600160a01b039091168152602090f35b503461023f5760208060031936011261023f576004356006906104686006548210612426565b60005260029260028352604060002092600090600960009501918254955b8681106105a6575061049790612640565b9560009360005b8781106104b3576040518061018e8b8261235a565b6104bd81866122d5565b9054600391821b1c60005280855260ff600780604060002001549082600892831c166104f0575b5050505060010161049e565b9161059c9391859a936105056001978c6122d5565b905490851b1c600052838a526040600020604051946105238661219c565b81548652888201548c870152888060a01b038b83015416604087015281015460608601526004810154608086015261055d600582016121db565b60a08601528d81015460c08601520154908282161515888501521c16151561010082015261058b828d6126d1565b52610596818c6126d1565b506125c9565b95903880806104e4565b6105b081856122d5565b9054600391821b1c600052835260ff60076040600020015460081c166105d9575b600101610486565b906105e56001916125c9565b9190506105d1565b3461023f57600036600319011261023f576020600754604051908152f35b3461023f57604036600319011261023f57600435602435600581101561023f576106336126e5565b61063b612703565b6106486006548310612426565b816000526020916002835260018060a01b0390610670826001604060002001541633146124ab565b8060005260028452604060002092801561083c5760078401805460ff81169060058210156108265760ff8416918211156107e1579461078f947fedd428545b013fd63058137111380e276bffcafe4510af9df100d15d06ea514c896000999661072b9661073996839b60ff19161790556106ed60405180926122c8565ba260095416926040519283917f557064617465642074656e646572207374617475733a20000000000000000000888401526002603784019101612508565b03601f1981018352826121b9565b60405194858094819363b55ddac360e01b835233600484015260806024840152601560848401527415115391115497d4d510551554d7d5541110551151605a1b60a484015260c0604484015260c48301906122a3565b6001606483015203925af180156107d5576107ac575b6001600055005b813d83116107ce575b6107bf81836121b9565b8101031261023f5780806107a5565b503d6107b5565b6040513d6000823e3d90fd5b60405162461bcd60e51b815260048101899052601960248201527f496e76616c696420737461747573207472616e736974696f6e000000000000006044820152606490fd5b634e487b7160e01b600052602160045260246000fd5b60405162461bcd60e51b815260048101869052601e60248201527f43616e6e6f742073657420737461747573206261636b20746f204f70656e00006044820152606490fd5b3461023f57600036600319011261023f5760206040516113888152f35b3461023f5761010036600319011261023f5760043567ffffffffffffffff811161023f576108d0903690600401612303565b60243567ffffffffffffffff811161023f576108f0903690600401612303565b906108f96126e5565b610901612703565b805115610ef3576107d0825111610eb757426064351115610e725760443515610e2d5760e43560c43511610de85760443560e43511610da35760a435151580610d96575b15610d5e5760065490610957826125c9565b60065560008281526002602052604090208281556001810180546001600160a01b03191633179055815167ffffffffffffffff8111610c895761099d6002830154612162565b601f8111610d17575b50806020601f8211600114610caa57600091610c9f575b508160011b916000199060031b1c19161760028201555b835167ffffffffffffffff8111610c89576109f26003830154612162565b601f8111610c42575b506020601f8211600114610bca57918160209492610b6e94600097988892610bbf575b50508160011b9187199060031b1c19161760038201555b6044356004820155606435600582015560843560068201556007810160ff19815416905542600882015560a435600b82015560c435600c820155600d60e43591015533845260048352610a8b85604086206125ee565b60405160408152857fcd5369f0f60e8f290627282c19ef53a610648f4fea79719dbde417d4d3afafe9610ac160408401856122a3565b92604435878201528033940390a360018060a01b036009541690610b1f603060405180936f021b932b0ba32b2103a32b73232b91d160851b88830152610b0f815180928a8686019101612280565b81010360108101845201826121b9565b60405194858094819363b55ddac360e01b835233600484015260806024840152600e60848401526d15115391115497d0d4915055115160921b60a484015260c0604484015260c48301906122a3565b6001606483015203925af180156107d557610b94575b6020826001600055604051908152f35b602090813d8311610bb8575b610baa81836121b9565b8101031261023f5781610b84565b503d610ba0565b015190508880610a1e565b6003830160005260206000209560005b601f1984168110610c2a57508260009697610b6e959360019360209896601f19811610610c12575b505050811b016003820155610a35565b0151881960f88460031b161c19169055888080610c02565b82820151885560019097019660209283019201610bda565b600383016000526020600020601f830160051c810160208410610c82575b601f830160051c82018110610c765750506109fb565b60008155600101610c60565b5080610c60565b634e487b7160e01b600052604160045260246000fd5b9050830151866109bd565b91506002830160005260206000206000925b601f1983168410610cff576001935082601f19811610610ce6575b5050811b0160028201556109d4565b85015160001960f88460031b161c191690558680610cd7565b85810151825560209384019360019092019101610cbc565b600283016000526020600020601f830160051c810160208410610d57575b601f830160051c82018110610d4b5750506109a6565b60008155600101610d35565b5080610d35565b60405162461bcd60e51b815260206004820152601060248201526f496e76616c6964206d6178206269647360801b6044820152606490fd5b50606460a4351115610945565b60405162461bcd60e51b815260206004820152601d60248201527f4d61782062696420616d6f756e742065786365656473206275646765740000006044820152606490fd5b60405162461bcd60e51b815260206004820152601860248201527f496e76616c69642062696420616d6f756e742072616e676500000000000000006044820152606490fd5b60405162461bcd60e51b815260206004820152601d60248201527f427564676574206d7573742062652067726561746572207468616e20300000006044820152606490fd5b60405162461bcd60e51b815260206004820152601e60248201527f446561646c696e65206d75737420626520696e207468652066757475726500006044820152606490fd5b60405162461bcd60e51b81526020600482015260146024820152734465736372697074696f6e20746f6f206c6f6e6760601b6044820152606490fd5b60405162461bcd60e51b81526020600482015260156024820152745469746c652063616e6e6f7420626520656d70747960581b6044820152606490fd5b3461023f57600036600319011261023f5760206040516107d08152f35b3461023f57604036600319011261023f57610f6661214c565b6001600160a01b031660009081526005602052604090208054602435919082101561023f57602091610f97916122d5565b90546040519160031b1c8152f35b3461023f57600036600319011261023f57610fcb60018060a01b0360085416331461258c565b610fd36126e5565b600160ff19815416176001557f62e78cea01bee320cd4e420270b5ea74000d11b0c9f74754ebdbfc544b05a2586020604051338152a1005b3461023f57600036600319011261023f57602060ff600154166040519015158152f35b3461023f57600036600319011261023f576009546040516001600160a01b039091168152602090f35b503461023f57602036600319011261023f576004356110796006548210612426565b60005260026020526040806000209182549260018060a01b039061111a826001830154169360048301549460058401546110ff6006860154926110f16007880154976110d360036110cc600284016121db565b92016121db565b928c519d8e9d8e6101209384938252602082015201528c01906122a3565b908a820360608c01526122a3565b96608089015260a088015260c0870152850160ff83166122c8565b60081c166101008301520390f35b3461023f57608036600319011261023f5760643567ffffffffffffffff811161023f57611159903690600401612303565b6111616126e5565b611169612703565b61117860065460043510612426565b6004356000526002602052604060002060ff6007820154166005811015610826576117df57600581015442101561179a5733600052600a810160205260ff604060002054166117555760085460405163088937fb60e41b81523360048201526001600160a01b0390911690602081602481855afa9081156107d55760009161171a575b50156116cb57602060249160405192838092632c83de8d60e21b82523360048301525afa9081156107d557600091611699575b50600682015411611637576009810154600b82015411156115f257600c8101546024351015806115e2575b1561159d57611388825111611564576044351561152c576007549061127d826125c9565b6007558160005260036020526040600020828155600435600182015560028101336bffffffffffffffffffffffff60a01b82541617905560243560038201556044356004820155835167ffffffffffffffff8111610c89576112e26005830154612162565b601f81116114e5575b506020601f821160011461146b5761143b928260209593600793600098998992611460575b50508160011b9188199060031b1c19161760058201555b42600682015501805461ffff191661010017905561134885600983016125ee565b338452600a8101835260408420600160ff198254161790556005835261137185604086206125ee565b60405160243581528533917fb5cc2e6a75ba593196ae1600d90399014d2790179ceae0b5d9a2303144028bad8660043592a461072b6113ed60018060a01b0360095416926040519283917f5375626d69747465642062696420666f722074656e6465723a20000000000000888401526002603a84019101612508565b60405194858094819363b55ddac360e01b835233600484015260806024840152600d60848401526c10925117d4d550935255151151609a1b60a484015260c0604484015260c48301906122a3565b6002606483015203925af180156107d557610b94576020826001600055604051908152f35b015190508980611310565b6005830160005260206000209560005b601f19841681106114cd5750926001836000979860079461143b9760209997601f198116106114b5575b505050811b016005820155611327565b0151891960f88460031b161c191690558980806114a5565b8282015188556001909701966020928301920161147b565b600583016000526020600020601f830160051c810160208410611525575b601f830160051c820181106115195750506112eb565b60008155600101611503565b5080611503565b60405162461bcd60e51b815260206004820152601060248201526f24b73b30b634b210323ab930ba34b7b760811b6044820152606490fd5b60405162461bcd60e51b815260206004820152601160248201527050726f706f73616c20746f6f206c6f6e6760781b6044820152606490fd5b60405162461bcd60e51b815260206004820152601760248201527f42696420616d6f756e74206f7574206f662072616e67650000000000000000006044820152606490fd5b50600d8101546024351115611259565b60405162461bcd60e51b815260206004820152601e60248201527f4d6178696d756d206e756d626572206f662062696473207265616368656400006044820152606490fd5b60405162461bcd60e51b815260206004820152603460248201527f436f6e74726163746f7220646f6573206e6f74206d656574206d696e696d756d604482015273207175616c696669636174696f6e2073636f726560601b6064820152608490fd5b90506020813d6020116116c3575b816116b4602093836121b9565b8101031261023f57518361122e565b3d91506116a7565b60405162461bcd60e51b815260206004820152602160248201527f4f6e6c7920766572696669656420636f6e74726163746f72732063616e2062696044820152601960fa1b6064820152608490fd5b90506020813d60201161174d575b81611735602093836121b9565b8101031261023f5751801515810361023f57846111fb565b3d9150611728565b60405162461bcd60e51b815260206004820152601a60248201527f436f6e74726163746f722068617320616c7265616479206269640000000000006044820152606490fd5b60405162461bcd60e51b815260206004820152601a60248201527f54656e64657220646561646c696e6520686173207061737365640000000000006044820152606490fd5b60405162461bcd60e51b815260206004820152601e60248201527f54656e646572206973206e6f74206f70656e20666f722062696464696e6700006044820152606490fd5b3461023f57604036600319011261023f5761183d61214c565b6001600160a01b031660009081526004602052604090208054602435919082101561023f57602091610f97916122d5565b503461023f57602036600319011261023f576004356000526002602052604060002090815490600160a01b60019003908160018501541693600281016118b3906121db565b916118c0600383016121db565b90600483015494600584015491600685015490600786015491600887015494600b88015496600c89015498600d0154996040519d8e9d8e6101a092839282526020820152604001528d01611913916122a3565b8c810360608e0152611924916122a3565b9960808c015260a08b015260c08a0152880160ff821690611944916122c8565b60081c166101008701526101208601526101408501526101608401526101808301520390f35b503461023f57602036600319011261023f576004356000526003602052604060002080549060ff60018201549260018060a01b03600284015416946119fa6003850154926004860154906119c0600588016121db565b9160076006890154980154956040519a8b9a610120948c5260208c015260408b015260608a015260808901528060a08901528701906122a3565b9360c086015282821615159085015260081c1615156101008301520390f35b3461023f57600036600319011261023f57611a3f60018060a01b0360085416331461258c565b60015460ff811615611a7e5760ff19166001557f5db9ee0a495bf2e6ff9c91a7834c1ba4fdd244a5e8aa4e537bd38aeae4b073aa6020604051338152a1005b604051638dfc202b60e01b8152600490fd5b3461023f57600036600319011261023f576020600654604051908152f35b3461023f5760208060031936011261023f57600435611acb6126e5565b611ad3612703565b611ae0600754821061246a565b80600052600382526040600020600181019182546000526002845260406000209260018060a01b0392836002820154163303611d1857600701805460ff8160081c1615611cdb5760ff600787015416600581101561082657611c865760ff8116611c4157611c259361072b60009794899794611bd79461ff0019169055338952600a860188526040892060ff198154169055549360405194859333917fb41c9b05054be45850ccc1da7d90c7b819cff855cfe0d14f16427398b286c9b68c80a460095416947f57697468647261776e206269642066726f6d2074656e6465723a200000000000888401526002603b84019101612508565b60405194858094819363b55ddac360e01b835233600484015260806024840152600d60848401526c2124a22faba4aa24222920aba760991b60a484015260c0604484015260c48301906122a3565b6002606483015203925af180156107d5576107ac576001600055005b60405162461bcd60e51b815260048101889052601c60248201527f43616e6e6f742077697468647261772073656c656374656420626964000000006044820152606490fd5b60405162461bcd60e51b815260048101889052602760248201527f43616e6e6f74207769746864726177206269642061667465722074656e6465726044820152660818db1bdcd95960ca1b6064820152608490fd5b60405162461bcd60e51b81526004810188905260156024820152742134b21030b63932b0b23c903bb4ba34323930bbb760591b6044820152606490fd5b60405162461bcd60e51b815260048101879052600d60248201526c2737ba103134b21037bbb732b960991b6044820152606490fd5b3461023f5760208060031936011261023f576001600160a01b03611d6f61214c565b1660005260048152604060002060405190818382549182815201908192600052846000209060005b86828210611ded578686611dad828803836121b9565b604051928392818401908285525180915260408401929160005b828110611dd657505050500390f35b835185528695509381019392810192600101611dc7565b835485529093019260019283019201611d97565b3461023f57604036600319011261023f5760246004358135611e216126e5565b611e29612703565b611e366006548310612426565b611e43600754821061246a565b81600052600260209281845260018060a01b0390611e6c826001604060002001541633146124ab565b8060005282855260ff600760406000200154166005811015612137576120e25780600052828552604060002093600052600385526040600020816001820154036120935760078101805460ff8160081c161561205c5760ff166120185787611fc7858560809589977f047fb15a707b97c7441e0815f97b0a5206bfac1de8e350f35c7601442dc06a448d60038e9c61078f9f9e839f9b6001600760009e019283549360ff199180838716178255808c01956101008560a81b03875460081b16906affffffffffffffffffffff60a81b16171790558254161790555416940154604051908152a37fedd428545b013fd63058137111380e276bffcafe4510af9df100d15d06ea514c89604051898152a26009541694611fb96040519788927f53656c656374656420636f6e74726163746f7220666f722074656e6465723a208b850152604084019101612508565b03601f1981018752866121b9565b6040519687958694859363b55ddac360e01b8552336004860152840152601360848401527210d3d395149050d513d497d4d1531150d51151606a1b60a484015260c0604484015260c48301906122a3565b60405162461bcd60e51b8152600481018890526017818a01527f42696420697320616c72656164792073656c65637465640000000000000000006044820152606490fd5b60405162461bcd60e51b8152600481018990526010818b01526f2134b21034b9903bb4ba34323930bbb760811b6044820152606490fd5b60405162461bcd60e51b8152600481018790526022818901527f42696420646f6573206e6f742062656c6f6e6720746f20746869732074656e6460448201526132b960f11b6064820152608490fd5b60405162461bcd60e51b8152600481018690526028818801527f496e76616c69642074656e6465722073746174757320666f722074686973206f6044820152673832b930ba34b7b760c11b6064820152608490fd5b86634e487b7160e01b60005260216004526000fd5b600435906001600160a01b038216820361023f57565b90600182811c92168015612192575b602083101461217c57565b634e487b7160e01b600052602260045260246000fd5b91607f1691612171565b610120810190811067ffffffffffffffff821117610c8957604052565b90601f8019910116810190811067ffffffffffffffff821117610c8957604052565b906040519182600082546121ee81612162565b9081845260209460019160018116908160001461225e575060011461221f575b50505061221d925003836121b9565b565b600090815285812095935091905b81831061224657505061221d935082010138808061220e565b8554888401850152948501948794509183019161222d565b9250505061221d94925060ff191682840152151560051b82010138808061220e565b60005b8381106122935750506000910152565b8181015183820152602001612283565b906020916122bc81518092818552858086019101612280565b601f01601f1916010190565b9060058210156108265752565b80548210156122ed5760005260206000200190600090565b634e487b7160e01b600052603260045260246000fd5b81601f8201121561023f5780359067ffffffffffffffff8211610c895760405192612338601f8401601f1916602001856121b9565b8284526020838301011161023f57816000926020809301838601378301015290565b6020808201908083528351809252604092604081018260408560051b8401019601946000925b858410612391575050505050505090565b909192939495968580600192603f198582030187528a51906123f2610120835183528484015185840152868060a01b03898501511689840152606080850151908401526080808501519084015260a0908082860151928501528301906122a3565b9160c0808201519083015260e080820151151590830152610100809101511515910152990194019401929594939190612380565b1561242d57565b60405162461bcd60e51b815260206004820152601560248201527415195b99195c88191bd95cc81b9bdd08195e1a5cdd605a1b6044820152606490fd5b1561247157565b60405162461bcd60e51b8152602060048201526012602482015271109a5908191bd95cc81b9bdd08195e1a5cdd60721b6044820152606490fd5b156124b257565b60405162461bcd60e51b815260206004820152602860248201527f4f6e6c792074656e646572206f776e65722063616e2063616c6c207468697320604482015267333ab731ba34b7b760c11b6064820152608490fd5b60009291815461251781612162565b926001918083169081156125715750600114612534575b50505050565b9091929394506000526020906020600020906000915b858310612560575050505001903880808061252e565b80548584015291830191810161254a565b60ff191684525050508115159091020191503880808061252e565b1561259357565b60405162461bcd60e51b815260206004820152600e60248201526d139bdd08185d5d1a1bdc9a5e995960921b6044820152606490fd5b60001981146125d85760010190565b634e487b7160e01b600052601160045260246000fd5b805468010000000000000000811015610c8957612610916001820181556122d5565b819291549060031b91821b91600019901b1916179055565b67ffffffffffffffff8111610c895760051b60200190565b9061264a82612628565b60409061265a60405191826121b9565b838152809361266b601f1991612628565b019160005b83811061267d5750505050565b602090825161268b8161219c565b600081528260008183015260008583015260606000818401526000608084015260a0830152600060c0830152600060e08301526000610100830152828601015201612670565b80518210156122ed5760209160051b010190565b60ff600154166126f157565b60405163d93c066560e01b8152600490fd5b600260005414612714576002600055565b604051633ee5aeb560e01b8152600490fdfea2646970667358221220f442b838b61b16509baf9719ce8583fc497b1954d2f5aae1ad32a49a56193daf64736f6c63430008160033",
  "linkReferences": {},
  "deployedLinkReferences": {}
}