{
  "_format": "hh-sol-artifact-1",
  "contractName": "BuildingProject",
  "sourceName": "contracts/BuildingProject.sol",
  "abi": [
    {
      "inputs": [
        {
          "internalType": "address",
          "name": "_tenderManagementAddress",
          "type": "address"
        }
      ],
      "stateMutability": "nonpayable",
      "type": "constructor"
    },
    {
      "anonymous": false,
      "inputs": [
        {
          "indexed": true,
          "internalType": "uint256",
          "name": "tenderId",
          "type": "uint256"
        },
        {
          "indexed": false,
          "internalType": "string",
          "name": "description",
          "type": "string"
        }
      ],
      "name": "ProgressReported",
      "type": "event"
    },
    {
      "anonymous": false,
      "inputs": [
        {
          "indexed": true,
          "internalType": "uint256",
          "name": "tenderId",
          "type": "uint256"
        },
        {
          "indexed": false,
          "internalType": "uint256",
          "name": "progressId",
          "type": "uint256"
        }
      ],
      "name": "ProgressValidated",
      "type": "event"
    },
    {
      "anonymous": false,
      "inputs": [
        {
          "indexed": true,
          "internalType": "address",
          "name": "userAddress",
          "type": "address"
        },
        {
          "indexed": false,
          "internalType": "string",
          "name": "role",
          "type": "string"
        }
      ],
      "name": "UserRegistered",
      "type": "event"
    },
    {
      "anonymous": false,
      "inputs": [
        {
          "indexed": true,
          "internalType": "address",
          "name": "userAddress",
          "type": "address"
        }
      ],
      "name": "UserVerified",
      "type": "event"
    },
    {
      "inputs": [
        {
          "internalType": "string",
          "name": "_title",
          "type": "string"
        },
        {
          "internalType": "string",
          "name": "_description",
          "type": "string"
        },
        {
          "internalType": "uint256",
          "name": "_budget",
          "type": "uint256"
        },
        {
          "internalType": "uint256",
          "name": "_deadline",
          "type": "uint256"
        },
        {
          "internalType": "uint256",
          "name": "_minQualificationScore",
          "type": "uint256"
        },
        {
          "internalType": "uint256",
          "name": "_maxBids",
          "type": "uint256"
        },
        {
          "internalType": "uint256",
          "name": "_minBidAmount",
          "type": "uint256"
        },
        {
          "internalType": "uint256",
          "name": "_maxBidAmount",
          "type": "uint256"
        }
      ],
      "name": "createTender",
      "outputs": [],
      "stateMutability": "nonpayable",
      "type": "function"
    },
    {
      "inputs": [
        {
          "internalType": "address",
          "name": "_userAddress",
          "type": "address"
        }
      ],
      "name": "getUser",
      "outputs": [
        {
          "components": [
            {
              "internalType": "address",
              "name": "userAddress",
              "type": "address"
            },
            {
              "internalType": "string",
              "name": "role",
              "type": "string"
            },
            {
              "internalType": "bool",
              "name": "isVerified",
              "type": "bool"
            },
            {
              "internalType": "string",
              "name": "certificateHash",
              "type": "string"
            }
          ],
          "internalType": "struct BuildingProject.User",
          "name": "",
          "type": "tuple"
        }
      ],
      "stateMutability": "view",
      "type": "function"
    },
    {
      "inputs": [],
      "name": "owner",
      "outputs": [
        {
          "internalType": "address",
          "name": "",
          "type": "address"
        }
      ],
      "stateMutability": "view",
      "type": "function"
    },
    {
      "inputs": [
        {
          "internalType": "uint256",
          "name": "",
          "type": "uint256"
        },
        {
          "internalType": "uint256",
          "name": "",
          "type": "uint256"
        }
      ],
      "name": "progressReports",
      "outputs": [
        {
          "internalType": "uint256",
          "name": "tenderId",
          "type": "uint256"
        },
        {
          "internalType": "string",
          "name": "description",
          "type": "string"
        },
        {
          "internalType": "string",
          "name": "evidenceHash",
          "type": "string"
        },
        {
          "internalType": "uint256",
          "name": "timestamp",
          "type": "uint256"
        },
        {
          "internalType": "bool",
          "name": "isValidated",
          "type": "bool"
        },
        {
          "internalType": "uint8",
          "name": "validationCount",
          "type": "uint8"
        }
      ],
      "stateMutability": "view",
      "type": "function"
    },
    {
      "inputs": [
        {
          "internalType": "address",
          "name": "_userAddress",
          "type": "address"
        },
        {
          "internalType": "string",
          "name": "_role",
          "type": "string"
        }
      ],
      "name": "registerUser",
      "outputs": [],
      "stateMutability": "nonpayable",
      "type": "function"
    },
    {
      "inputs": [
        {
          "internalType": "uint256",
          "name": "_tenderId",
          "type": "uint256"
        },
        {
          "internalType": "string",
          "name": "_description",
          "type": "string"
        },
        {
          "internalType": "string",
          "name": "_evidenceHash",
          "type": "string"
        }
      ],
      "name": "reportProgress",
      "outputs": [],
      "stateMutability": "nonpayable",
      "type": "function"
    },
    {
      "inputs": [
        {
          "internalType": "uint256",
          "name": "_tenderId",
          "type": "uint256"
        },
        {
          "internalType": "uint256",
          "name": "_amount",
          "type": "uint256"
        },
        {
          "internalType": "string",
          "name": "_proposal",
          "type": "string"
        },
        {
          "internalType": "uint256",
          "name": "_estimatedDuration",
          "type": "uint256"
        }
      ],
      "name": "submitBid",
      "outputs": [],
      "stateMutability": "nonpayable",
      "type": "function"
    },
    {
      "inputs": [],
      "name": "tenderManager",
      "outputs": [
        {
          "internalType": "contract TenderManagement",
          "name": "",
          "type": "address"
        }
      ],
      "stateMutability": "view",
      "type": "function"
    },
    {
      "inputs": [
        {
          "internalType": "address",
          "name": "",
          "type": "address"
        }
      ],
      "name": "users",
      "outputs": [
        {
          "internalType": "address",
          "name": "userAddress",
          "type": "address"
        },
        {
          "internalType": "string",
          "name": "role",
          "type": "string"
        },
        {
          "internalType": "bool",
          "name": "isVerified",
          "type": "bool"
        },
        {
          "internalType": "string",
          "name": "certificateHash",
          "type": "string"
        }
      ],
      "stateMutability": "view",
      "type": "function"
    },
    {
      "inputs": [
        {
          "internalType": "uint256",
          "name": "_tenderId",
          "type": "uint256"
        },
        {
          "internalType": "uint256",
          "name": "_progressId",
          "type": "uint256"
        }
      ],
      "name": "validateProgress",
      "outputs": [],
      "stateMutability": "nonpayable",
      "type": "function"
    },
    {
      "inputs": [
        {
          "internalType": "address",
          "name": "_userAddress",
          "type": "address"
        },
        {
          "internalType": "string",
          "name": "_certificateHash",
          "type": "string"
        }
      ],
      "name": "verifyUser",
      "outputs": [],
      "stateMutability": "nonpayable",
      "type": "function"
    }
  ],
  "bytecode": "0x60803461007a57601f61157d38819003918201601f19168301916001600160401b0383118484101761007f5780849260209460405283398101031261007a57516001600160a01b0381169081900361007a5760018060a01b03193381600354161760035560005416176000556040516114e790816100968239f35b600080fd5b634e487b7160e01b600052604160045260246000fdfe6080604052600436101561001257600080fd5b60003560e01c80630ea126f914610dad57806314783b5b14610cf057806351563ef514610bba578063641d7a78146109885780636f77926b146108915780638da5cb5b14610868578063a06a72f51461083f578063a4602125146106d8578063a87430ba14610632578063abfb9254146105725763e67f295e1461009557600080fd5b34610561576060366003190112610561576024356001600160401b038111610561576100c59036906004016111a7565b6044356001600160401b038111610561576100e49036906004016111a7565b600080546040516353ee895d60e01b81526004803590820152916001600160a01b03918390602490829085165afa8015610566576000926000916104d2575b5016330361047857600581101561046257600203610424576004356000526001602052604060002080546801000000000000000081101561034d57610171816101889360018201815561135e565b50506004356000526001602052604060002061135e565b509160043583558051926001600160401b03841161034d576101ad600182015461128e565b601f81116103d9575b50602093601f811160011461036e578091929394600091610363575b508160011b916000199060031b1c19161760018201555b6002810183516001600160401b03811161034d57610207825461128e565b601f8111610305575b506020601f821160011461029b57819060049596600092610290575b50508160011b916000199060031b1c19161790555b4260038201550161ffff1981541690557fb6bc665b4b1df3ec7834d43f9bed48d9fa69cb76ab44e11527e30222afca8970604051602081528061028b600435946020830190611269565b0390a2005b01519050388061022c565b601f198216958360005260206000209660005b8181106102ed57509160049697918460019594106102d4575b505050811b019055610241565b015160001960f88460031b161c191690553880806102c7565b838301518955600190980197602093840193016102ae565b826000526020600020601f830160051c81019160208410610343575b601f0160051c01905b8181106103375750610210565b6000815560010161032a565b9091508190610321565b634e487b7160e01b600052604160045260246000fd5b9050830151386101d2565b601f198116946001830160005260206000209060005b8781106103c1575082600194959697106103a8575b5050811b0160018201556101e9565b85015160001960f88460031b161c191690553880610399565b90916020600181928589015181550193019101610384565b600182016000526020600020601f860160051c8101916020871061041a575b601f0160051c01905b81811061040e57506101b6565b60008155600101610401565b90915081906103f8565b60405162461bcd60e51b815260206004820152601660248201527554656e646572206e6f7420696e2070726f677265737360501b6044820152606490fd5b634e487b7160e01b600052602160045260246000fd5b60405162461bcd60e51b815260206004820152602c60248201527f4f6e6c792073656c656374656420636f6e74726163746f722063616e2072657060448201526b6f72742070726f677265737360a01b6064820152608490fd5b9250503d806000843e6104e5818461116b565b820161012083820312610561576104fe6020840161145b565b5060408301516001600160401b038111610561578161051e91850161146f565b506060830151906001600160401b0382116105615761053e91840161146f565b5060e08201519160058310156105615761010061055b910161145b565b38610123565b600080fd5b6040513d6000823e3d90fd5b346105615761058036611230565b9060005260016020526040600020908154811015610561576105a19161135e565b508054604051916105c0836105b981600185016112c8565b038461116b565b60ff6040516105dd816105d681600287016112c8565b038261116b565b6106156004600385015494015491610607604051978897885260c0602089015260c0880190611269565b908682036040880152611269565b9260608501528181161515608085015260081c1660a08301520390f35b34610561576020366003190112610561576001600160a01b038061065461113a565b1660005260026020526040600020908154166106d4604051926106858461067e81600185016112c8565b038561116b565b60036106a360ff600284015416926105d660405180948193016112c8565b6106bf6040519586958652608060208701526080860190611269565b91151560408501528382036060850152611269565b0390f35b34610561576003196101003682018113610561576001600160401b03906004358281116105615761070d9036906004016111a7565b916024359081116105615760009361072c61078c9236906004016111a7565b93338652602095869460028652610749600160408420015461128e565b1515806107ff575b61075a90611405565b61079b60018060a01b03835416946040519889978896879563a460212560e01b87526004870152610104860190611269565b91848303016024850152611269565b60443560448301526064356064830152608435608483015260a43560a483015260c43560c483015260e43560e483015203925af18015610566576107db57005b813d83116107f8575b6107ee818361116b565b8101031261056157005b503d6107e4565b503382526002865261075a6105d661082360016040862001604051928380926112c8565b8781519101206108316113d4565b888151910120149050610751565b34610561576000366003190112610561576000546040516001600160a01b039091168152602090f35b34610561576000366003190112610561576003546040516001600160a01b039091168152602090f35b3461056157602080600319360112610561576108ab61113a565b906060806040516108bb81611150565b60008152818482015260006040820152015260018060a01b03809216600052600281526106d46040600020600361096d604051946108f886611150565b8684541686526040519061091a8261091381600189016112c8565b038361116b565b80870191825261094560ff6002870154169560408901961515875261067e60405180978193016112c8565b60608701938452604051978897828952511690870152516080604087015260a0860190611269565b91511515606085015251838203601f19016080850152611269565b3461056157610996366111ee565b9033600052602090600282526001906109b5826040600020015461128e565b151580610b79575b6109c690611405565b60018060a01b03169283600052600283526109e7826040600020015461128e565b15610b3e57836000526002835260036040600020600281018460ff1982541617905501928151916001600160401b03831161034d57610a26855461128e565b601f8111610af5575b5081601f8411600114610a8f5750928293918392600094610a84575b50501b916000199060031b1c19161790555b7fa6625d2d26e786e2f473111bea4b2fcdbbf1863d883a2359989ce3a103d2972a600080a2005b015192508680610a4b565b919083601f1981168760005284600020946000905b88838310610adb5750505010610ac2575b505050811b019055610a5d565b015160001960f88460031b161c19169055848080610ab5565b858701518855909601959485019487935090810190610aa4565b8560005282600020601f850160051c810191848610610b34575b601f0160051c019085905b828110610b28575050610a2f565b60008155018590610b1a565b9091508190610b0f565b60405162461bcd60e51b8152600481018490526013602482015272155cd95c881b9bdd081c9959da5cdd195c9959606a1b6044820152606490fd5b5033600052600283526109c66105d6610b9e84604060002001604051928380926112c8565b848151910120610bac6113d4565b8581519101201490506109bd565b3461056157610bc836611230565b33600052602060028152610be660ff60026040600020015416611390565b8260005260018152610bfc82604060002061135e565b50600581013360005280835260ff60406000205416610cb757906004913360005283526040600020600160ff19825416179055019182549260ff8460081c1660ff8114610ca157600161ff00910160081b1693600260ff8661ff001984161780855560081c161015610c6a57005b7f6d4204ef7b450960e8e28d63412c73807599697a00e89a3f2e7f72779afa74659460019161ffff191617179055604051908152a2005b634e487b7160e01b600052601160045260246000fd5b60405162461bcd60e51b8152600481018490526011602482015270105b1c9958591e481d985b1a59185d1959607a1b6044820152606490fd5b34610561576080366003190112610561576044356001600160401b038111610561576020610d88610d2760009336906004016111a7565b33845260028352610d4160ff600260408720015416611390565b60018060a01b0384541690604051948580948193634cd4d8b160e01b8352600435600484015260243560248401526064356044840152608060648401526084830190611269565b03925af1801561056657610d9857005b602090813d83116107f8576107ee818361116b565b3461056157610dbb366111ee565b6001600160a01b03828116600090815260026020526040902060010154610de19061128e565b6110f55760405192610df284611150565b8082168452602080850184815260006040808801918252516001600160401b03979381018881118282101761034d576040526000815260608401528484166000526002602052604060002091858451166bffffffffffffffffffffffff60a01b8454161783555180519088821161034d57610e70600185015461128e565b601f81116110aa575b50602090601f8311600114611037579180600394926060969460009261102c575b505060001982861b1c1916600191821b17908301555b600282019051151560ff8019835416911617905501910151805195861161034d57610edb825461128e565b601f8111610fe4575b50602090601f8711600114610f5a579580917f48cac28ad4dc618e15f4c2dd5e97751182f166de97b25618318b2112aa951a2f9697600092610f4f575b50508160011b916000199060031b1c19161790555b61028b6040519283926020845216946020830190611269565b015190508780610f21565b90601f198716918360005260206000209260005b818110610fcc57509160019391897f48cac28ad4dc618e15f4c2dd5e97751182f166de97b25618318b2112aa951a2f999a9410610fb3575b505050811b019055610f36565b015160001960f88460031b161c19169055878080610fa6565b92936020600181928786015181550195019301610f6e565b826000526020600020601f880160051c81019160208910611022575b601f0160051c01905b8181106110165750610ee4565b60008155600101611009565b9091508190611000565b015190508b80610e9a565b90601f198316916001860160005260206000209260005b818110611092575092600192859260609896600398961061107a575b505050811b016001830155610eb0565b015160001983881b60f8161c191690558b808061106a565b9293602060018192878601518155019501930161104e565b600185016000526020600020601f840160051c810191602085106110eb575b601f0160051c01905b8181106110df5750610e79565b600081556001016110d2565b90915081906110c9565b60405162461bcd60e51b815260206004820152601760248201527f5573657220616c726561647920726567697374657265640000000000000000006044820152606490fd5b600435906001600160a01b038216820361056157565b608081019081106001600160401b0382111761034d57604052565b90601f801991011681019081106001600160401b0382111761034d57604052565b6001600160401b03811161034d57601f01601f191660200190565b81601f82011215610561578035906111be8261118c565b926111cc604051948561116b565b8284526020838301011161056157816000926020809301838601378301015290565b906040600319830112610561576004356001600160a01b03811681036105615791602435906001600160401b0382116105615761122d916004016111a7565b90565b6040906003190112610561576004359060243590565b60005b8381106112595750506000910152565b8181015183820152602001611249565b9060209161128281518092818552858086019101611246565b601f01601f1916010190565b90600182811c921680156112be575b60208310146112a857565b634e487b7160e01b600052602260045260246000fd5b91607f169161129d565b8054600093926112d78261128e565b9182825260209360019160018116908160001461133f57506001146112fe575b5050505050565b90939495506000929192528360002092846000945b83861061132b575050505001019038808080806112f7565b805485870183015294019385908201611313565b60ff19168685015250505090151560051b0101915038808080806112f7565b805482101561137a576000526006602060002091020190600090565b634e487b7160e01b600052603260045260246000fd5b1561139757565b60405162461bcd60e51b8152602060048201526015602482015274155cd95c881b5d5cdd081899481d995c9a599a5959605a1b6044820152606490fd5b60405190604082018281106001600160401b0382111761034d57604052600582526430b236b4b760d91b6020830152565b1561140c57565b60405162461bcd60e51b815260206004820152602160248201527f4f6e6c792061646d696e2063616e2063616c6c20746869732066756e6374696f6044820152603760f91b6064820152608490fd5b51906001600160a01b038216820361056157565b81601f820112156105615780516114858161118c565b92611493604051948561116b565b818452602082840101116105615761122d916020808501910161124656fea26469706673582212206ab01eb97765961fb7c1bbbcb098241e89690ea721957f9f9e5332aba2023f9764736f6c63430008160033",
  "linkReferences": {},
  "deployedLinkReferences": {}
}